{
  "contractName": "Hodler",
  "abi": [
    {
      "anonymous": false,
      "inputs": [
        {
          "indexed": false,
          "internalType": "uint256",
          "name": "hodlId",
          "type": "uint256"
        },
        {
          "indexed": true,
          "internalType": "address",
          "name": "owner",
          "type": "address"
        },
        {
          "indexed": false,
          "internalType": "uint256",
          "name": "amount",
          "type": "uint256"
        },
        {
          "indexed": false,
          "internalType": "uint256",
          "name": "timelocked",
          "type": "uint256"
        },
        {
          "indexed": false,
          "internalType": "uint256",
          "name": "closedAt",
          "type": "uint256"
        }
      ],
      "name": "ClosedHodl",
      "type": "event"
    },
    {
      "anonymous": false,
      "inputs": [
        {
          "indexed": false,
          "internalType": "uint256",
          "name": "hodlId",
          "type": "uint256"
        },
        {
          "indexed": true,
          "internalType": "address",
          "name": "owner",
          "type": "address"
        },
        {
          "indexed": false,
          "internalType": "uint256",
          "name": "amount",
          "type": "uint256"
        },
        {
          "indexed": false,
          "internalType": "uint256",
          "name": "timelocked",
          "type": "uint256"
        },
        {
          "indexed": false,
          "internalType": "uint256",
          "name": "createdAt",
          "type": "uint256"
        }
      ],
      "name": "NewHodl",
      "type": "event"
    },
    {
      "inputs": [
        {
          "internalType": "uint256",
          "name": "",
          "type": "uint256"
        }
      ],
      "name": "hodlToOwner",
      "outputs": [
        {
          "internalType": "address",
          "name": "",
          "type": "address"
        }
      ],
      "stateMutability": "view",
      "type": "function",
      "constant": true
    },
    {
      "inputs": [
        {
          "internalType": "uint256",
          "name": "",
          "type": "uint256"
        }
      ],
      "name": "hodls",
      "outputs": [
        {
          "internalType": "address",
          "name": "owner",
          "type": "address"
        },
        {
          "internalType": "address",
          "name": "otherOwner",
          "type": "address"
        },
        {
          "internalType": "uint256",
          "name": "amount",
          "type": "uint256"
        },
        {
          "internalType": "uint256",
          "name": "timelocked",
          "type": "uint256"
        },
        {
          "internalType": "uint256",
          "name": "createdAt",
          "type": "uint256"
        },
        {
          "internalType": "bool",
          "name": "closed",
          "type": "bool"
        }
      ],
      "stateMutability": "view",
      "type": "function",
      "constant": true
    },
    {
      "inputs": [],
      "name": "totalLocked",
      "outputs": [
        {
          "internalType": "uint256",
          "name": "",
          "type": "uint256"
        }
      ],
      "stateMutability": "view",
      "type": "function",
      "constant": true
    },
    {
      "inputs": [],
      "name": "totalUnlocked",
      "outputs": [
        {
          "internalType": "uint256",
          "name": "",
          "type": "uint256"
        }
      ],
      "stateMutability": "view",
      "type": "function",
      "constant": true
    },
    {
      "inputs": [
        {
          "internalType": "uint256",
          "name": "timelocked",
          "type": "uint256"
        }
      ],
      "name": "lockHodl",
      "outputs": [],
      "stateMutability": "payable",
      "type": "function",
      "payable": true
    },
    {
      "inputs": [
        {
          "internalType": "uint256",
          "name": "_hodlId",
          "type": "uint256"
        },
        {
          "internalType": "address",
          "name": "_backupAddress",
          "type": "address"
        }
      ],
      "name": "modifyHodlBackup",
      "outputs": [],
      "stateMutability": "nonpayable",
      "type": "function"
    },
    {
      "inputs": [
        {
          "internalType": "uint256",
          "name": "_hodlId",
          "type": "uint256"
        }
      ],
      "name": "unlockHodl",
      "outputs": [],
      "stateMutability": "nonpayable",
      "type": "function"
    },
    {
      "inputs": [],
      "name": "getHodlsCount",
      "outputs": [
        {
          "internalType": "uint256",
          "name": "",
          "type": "uint256"
        }
      ],
      "stateMutability": "view",
      "type": "function",
      "constant": true
    },
    {
      "inputs": [
        {
          "internalType": "address",
          "name": "_owner",
          "type": "address"
        }
      ],
      "name": "getHodlsByOwner",
      "outputs": [
        {
          "internalType": "uint256[]",
          "name": "",
          "type": "uint256[]"
        }
      ],
      "stateMutability": "view",
      "type": "function",
      "constant": true
    },
    {
      "inputs": [
        {
          "internalType": "address",
          "name": "_owner",
          "type": "address"
        }
      ],
      "name": "getTotalLockedByOwner",
      "outputs": [
        {
          "internalType": "uint256",
          "name": "",
          "type": "uint256"
        }
      ],
      "stateMutability": "view",
      "type": "function",
      "constant": true
    },
    {
      "inputs": [
        {
          "internalType": "address",
          "name": "_owner",
          "type": "address"
        }
      ],
      "name": "getTotalUnlockedByOwner",
      "outputs": [
        {
          "internalType": "uint256",
          "name": "",
          "type": "uint256"
        }
      ],
      "stateMutability": "view",
      "type": "function",
      "constant": true
    }
  ],
  "bytecode": "0x608060405234801561001057600080fd5b506114c2806100206000396000f3fe60806040526004361061009c5760003560e01c806350df21bc1161006457806350df21bc146101a257806356891412146101cb57806369b514ce146101f6578063a779d08014610233578063bf99235e1461025e578063fd78e7d7146102895761009c565b80630308ffad146100a15780630d8bfb85146100ca5780631d2ff96114610107578063216be181146101235780632e4fdbd214610165575b600080fd5b3480156100ad57600080fd5b506100c860048036038101906100c39190610f81565b6102c6565b005b3480156100d657600080fd5b506100f160048036038101906100ec9190610f58565b6106f1565b6040516100fe91906111a5565b60405180910390f35b610121600480360381019061011c9190610f81565b61073a565b005b34801561012f57600080fd5b5061014a60048036038101906101459190610f81565b610a8f565b60405161015c96959493929190611102565b60405180910390f35b34801561017157600080fd5b5061018c60048036038101906101879190610f81565b610b28565b60405161019991906110e7565b60405180910390f35b3480156101ae57600080fd5b506101c960048036038101906101c49190610faa565b610b5b565b005b3480156101d757600080fd5b506101e0610d2d565b6040516101ed91906111a5565b60405180910390f35b34801561020257600080fd5b5061021d60048036038101906102189190610f58565b610d33565b60405161022a9190611163565b60405180910390f35b34801561023f57600080fd5b50610248610ed2565b60405161025591906111a5565b60405180910390f35b34801561026a57600080fd5b50610273610ed8565b60405161028091906111a5565b60405180910390f35b34801561029557600080fd5b506102b060048036038101906102ab9190610f58565b610ee5565b6040516102bd91906111a5565b60405180910390f35b806004600082815260200190815260200160002060009054906101000a900473ffffffffffffffffffffffffffffffffffffffff1673ffffffffffffffffffffffffffffffffffffffff163373ffffffffffffffffffffffffffffffffffffffff1614806103ca575060038181548110610369577f4e487b7100000000000000000000000000000000000000000000000000000000600052603260045260246000fd5b906000526020600020906006020160010160009054906101000a900473ffffffffffffffffffffffffffffffffffffffff1673ffffffffffffffffffffffffffffffffffffffff163373ffffffffffffffffffffffffffffffffffffffff16145b610409576040517f08c379a000000000000000000000000000000000000000000000000000000000815260040161040090611185565b60405180910390fd5b600060038381548110610445577f4e487b7100000000000000000000000000000000000000000000000000000000600052603260045260246000fd5b906000526020600020906006020190504267ffffffffffffffff16816003015467ffffffffffffffff16111561047a57600080fd5b600015158160050160009054906101000a900460ff1615151461049c57600080fd5b8060010160009054906101000a900473ffffffffffffffffffffffffffffffffffffffff1673ffffffffffffffffffffffffffffffffffffffff163373ffffffffffffffffffffffffffffffffffffffff161415610568578060010160009054906101000a900473ffffffffffffffffffffffffffffffffffffffff1673ffffffffffffffffffffffffffffffffffffffff166108fc82600201549081150290604051600060405180830381858888f19350505050158015610562573d6000803e3d6000fd5b506105d8565b8060000160009054906101000a900473ffffffffffffffffffffffffffffffffffffffff1673ffffffffffffffffffffffffffffffffffffffff166108fc82600201549081150290604051600060405180830381858888f193505050501580156105d6573d6000803e3d6000fd5b505b60018160050160006101000a81548160ff02191690831515021790555080600201546002600082825461060b9190611294565b925050819055508060020154600760003373ffffffffffffffffffffffffffffffffffffffff1673ffffffffffffffffffffffffffffffffffffffff16815260200190815260200160002060008282546106659190611294565b925050819055508060000160009054906101000a900473ffffffffffffffffffffffffffffffffffffffff1673ffffffffffffffffffffffffffffffffffffffff167fde31b1a52ca322b72a901c70ff7893e65fca1ea4a3e031dfccc181c6560e8bc68483600201548460030154426040516106e494939291906111c0565b60405180910390a2505050565b6000600660008373ffffffffffffffffffffffffffffffffffffffff1673ffffffffffffffffffffffffffffffffffffffff168152602001908152602001600020549050919050565b60036040518060c001604052803373ffffffffffffffffffffffffffffffffffffffff168152602001600073ffffffffffffffffffffffffffffffffffffffff1681526020013481526020016018603c808661079691906112ea565b6107a091906112ea565b6107aa91906112ea565b426107b59190611294565b67ffffffffffffffff1681526020014267ffffffffffffffff16815260200160001515815250908060018154018082558091505060019003906000526020600020906006020160009091909190915060008201518160000160006101000a81548173ffffffffffffffffffffffffffffffffffffffff021916908373ffffffffffffffffffffffffffffffffffffffff16021790555060208201518160010160006101000a81548173ffffffffffffffffffffffffffffffffffffffff021916908373ffffffffffffffffffffffffffffffffffffffff16021790555060408201518160020155606082015181600301556080820151816004015560a08201518160050160006101000a81548160ff0219169083151502179055505050600560003373ffffffffffffffffffffffffffffffffffffffff1673ffffffffffffffffffffffffffffffffffffffff1681526020019081526020016000206000815480929190610922906113e6565b91905055503360046000600160038054905061093e9190611344565b815260200190815260200160002060006101000a81548173ffffffffffffffffffffffffffffffffffffffff021916908373ffffffffffffffffffffffffffffffffffffffff16021790555034600660003373ffffffffffffffffffffffffffffffffffffffff1673ffffffffffffffffffffffffffffffffffffffff16815260200190815260200160002060008282546109d99190611294565b9250508190555034600160008282546109f29190611294565b925050819055503373ffffffffffffffffffffffffffffffffffffffff167fd902438957a94d109e82dd5c91091055ad14becb7f7ecc3f35e64ab3b49dbbcc6001600380549050610a439190611344565b346018603c8087610a5491906112ea565b610a5e91906112ea565b610a6891906112ea565b42610a739190611294565b42604051610a849493929190611205565b60405180910390a250565b60038181548110610a9f57600080fd5b90600052602060002090600602016000915090508060000160009054906101000a900473ffffffffffffffffffffffffffffffffffffffff16908060010160009054906101000a900473ffffffffffffffffffffffffffffffffffffffff16908060020154908060030154908060040154908060050160009054906101000a900460ff16905086565b60046020528060005260406000206000915054906101000a900473ffffffffffffffffffffffffffffffffffffffff1681565b816004600082815260200190815260200160002060009054906101000a900473ffffffffffffffffffffffffffffffffffffffff1673ffffffffffffffffffffffffffffffffffffffff163373ffffffffffffffffffffffffffffffffffffffff161480610c5f575060038181548110610bfe577f4e487b7100000000000000000000000000000000000000000000000000000000600052603260045260246000fd5b906000526020600020906006020160010160009054906101000a900473ffffffffffffffffffffffffffffffffffffffff1673ffffffffffffffffffffffffffffffffffffffff163373ffffffffffffffffffffffffffffffffffffffff16145b610c9e576040517f08c379a0000000000000000000000000000000000000000000000000000000008152600401610c9590611185565b60405180910390fd5b8160038481548110610cd9577f4e487b7100000000000000000000000000000000000000000000000000000000600052603260045260246000fd5b906000526020600020906006020160010160006101000a81548173ffffffffffffffffffffffffffffffffffffffff021916908373ffffffffffffffffffffffffffffffffffffffff160217905550505050565b60015481565b60606000600560008473ffffffffffffffffffffffffffffffffffffffff1673ffffffffffffffffffffffffffffffffffffffff1681526020019081526020016000205467ffffffffffffffff811115610db6577f4e487b7100000000000000000000000000000000000000000000000000000000600052604160045260246000fd5b604051908082528060200260200182016040528015610de45781602001602082028036833780820191505090505b5090506000805b600380549050811015610ec7578473ffffffffffffffffffffffffffffffffffffffff166004600083815260200190815260200160002060009054906101000a900473ffffffffffffffffffffffffffffffffffffffff1673ffffffffffffffffffffffffffffffffffffffff161415610eb45780838381518110610e99577f4e487b7100000000000000000000000000000000000000000000000000000000600052603260045260246000fd5b6020026020010181815250508180610eb0906113e6565b9250505b8080610ebf906113e6565b915050610deb565b508192505050919050565b60025481565b6000600380549050905090565b6000600760008373ffffffffffffffffffffffffffffffffffffffff1673ffffffffffffffffffffffffffffffffffffffff168152602001908152602001600020549050919050565b600081359050610f3d8161145e565b92915050565b600081359050610f5281611475565b92915050565b600060208284031215610f6a57600080fd5b6000610f7884828501610f2e565b91505092915050565b600060208284031215610f9357600080fd5b6000610fa184828501610f43565b91505092915050565b60008060408385031215610fbd57600080fd5b6000610fcb85828601610f43565b9250506020610fdc85828601610f2e565b9150509250929050565b6000610ff283836110ba565b60208301905092915050565b61100781611378565b82525050565b60006110188261125a565b6110228185611272565b935061102d8361124a565b8060005b8381101561105e5781516110458882610fe6565b975061105083611265565b925050600181019050611031565b5085935050505092915050565b6110748161138a565b82525050565b6000611087601583611283565b91507f53656e646572206e6f7420617574686f72697a656400000000000000000000006000830152602082019050919050565b6110c3816113b6565b82525050565b6110d2816113b6565b82525050565b6110e1816113d4565b82525050565b60006020820190506110fc6000830184610ffe565b92915050565b600060c0820190506111176000830189610ffe565b6111246020830188610ffe565b61113160408301876110c9565b61113e60608301866110c9565b61114b60808301856110c9565b61115860a083018461106b565b979650505050505050565b6000602082019050818103600083015261117d818461100d565b905092915050565b6000602082019050818103600083015261119e8161107a565b9050919050565b60006020820190506111ba60008301846110c9565b92915050565b60006080820190506111d560008301876110c9565b6111e260208301866110c9565b6111ef60408301856110c9565b6111fc60608301846110d8565b95945050505050565b600060808201905061121a60008301876110c9565b61122760208301866110c9565b61123460408301856110d8565b61124160608301846110d8565b95945050505050565b6000819050602082019050919050565b600081519050919050565b6000602082019050919050565b600082825260208201905092915050565b600082825260208201905092915050565b600061129f826113b6565b91506112aa836113b6565b9250827fffffffffffffffffffffffffffffffffffffffffffffffffffffffffffffffff038211156112df576112de61142f565b5b828201905092915050565b60006112f5826113b6565b9150611300836113b6565b9250817fffffffffffffffffffffffffffffffffffffffffffffffffffffffffffffffff04831182151516156113395761133861142f565b5b828202905092915050565b600061134f826113b6565b915061135a836113b6565b92508282101561136d5761136c61142f565b5b828203905092915050565b600061138382611396565b9050919050565b60008115159050919050565b600073ffffffffffffffffffffffffffffffffffffffff82169050919050565b6000819050919050565b600067ffffffffffffffff82169050919050565b60006113df826113c0565b9050919050565b60006113f1826113b6565b91507fffffffffffffffffffffffffffffffffffffffffffffffffffffffffffffffff8214156114245761142361142f565b5b600182019050919050565b7f4e487b7100000000000000000000000000000000000000000000000000000000600052601160045260246000fd5b61146781611378565b811461147257600080fd5b50565b61147e816113b6565b811461148957600080fd5b5056fea26469706673582212205f5e7eb0498ee35de2e5c78641d17a8251aca27215d9986c152b57ab47da46b864736f6c63430008000033",
  "immutableReferences": {},
  "source": "pragma solidity ^0.8.0;\nimport \"@openzeppelin/contracts/access/Ownable.sol\";\n// import \"@chainlink/contracts/src/v0.6/interfaces/AggregatorV3Interface.sol\";\n\n/// @title A Contract to Hodl (lock) funds until a defined time in the future\n/// @author G. T. SA.\n/// @notice This contract should be used to lock funds from yourself. There is no coming back after you lock your funds.\ncontract Hodler {\n\n  // AggregatorV3Interface internal priceFeed;\n\n  // constructor() public {\n  //     priceFeed = AggregatorV3Interface(0x8A753747A1Fa494EC906cE90E9f37563A8AF630e);\n  // }\n\n  address owner;\n  uint256 public totalLocked;\n  uint256 public totalUnlocked;\n\n  /// @dev Two events are emitted. One for Open and one for closed hodl\n  /// A \"Hodl\" is triggered once you use lockHodl() and lock your funds\n  // event NewHodl(uint hodlId, address indexed owner, uint amount, uint timelocked, uint createdAt, uint ethPriceAtStart);\n  // event ClosedHodl(uint hodlId, address indexed owner, uint amount, uint timelocked, uint closedAt, uint ethPriceAtClose);\n\n  event NewHodl(uint hodlId, address indexed owner, uint amount, uint timelocked, uint createdAt);\n  event ClosedHodl(uint hodlId, address indexed owner, uint amount, uint timelocked, uint closedAt);\n\n  struct Hodl {\n    address owner;\n    address otherOwner;\n    uint amount;\n    uint timelocked;\n    uint createdAt;\n    bool closed;\n  }\n\n  Hodl[] public hodls;\n\n  /// @dev Mapping to store which hodl belongs to whom\n  mapping(uint => address) public hodlToOwner;\n  mapping(address => uint) ownerHodlCount;\n  mapping(address => uint) ownerTotalLocked;\n  mapping(address => uint) ownerTotalUnlocked;\n\n  /// @notice - Lock Function - Owner defines a time in days he wants he's funds to be locked from himself\n  /// @dev Logs into a struct that'll be used to verify is Unlock is possible and if unlock has happened\n  /// Time is set in days \"timelocked*60*60*24\"\n  /// When no backupAddress is present, it'll be defined as address(0)\n  function lockHodl(uint timelocked) external payable {\n    // uint ethPriceAtStart = uint(getEthPrice());\n    hodls.push(Hodl(msg.sender, address(0), msg.value, uint64(block.timestamp + timelocked*60*60*24), uint64(block.timestamp), false));\n\n    ownerHodlCount[msg.sender]++;\n    hodlToOwner[hodls.length - 1] = msg.sender;\n    ownerTotalLocked[msg.sender] += msg.value;\n\n    totalLocked += msg.value;\n\n    emit NewHodl(hodls.length - 1, msg.sender, msg.value, uint64(block.timestamp + timelocked*60*60*24), uint64(block.timestamp));\n  }\n\n  /// @dev Makes every modified functions accessible for the owner's address and owner's backup address\n  modifier onlyOwnerOf(uint _hodlId) {\n    require(msg.sender == hodlToOwner[_hodlId] || msg.sender == hodls[_hodlId].otherOwner, \"Sender not authorized\");\n    _;\n  }\n\n  /// @notice - Modify Backup Address\n  /// @dev Hodl Owner's address or BackupAddress can modify the BackupAddress\n  /// this function can be called at any time and any number of times\n  function modifyHodlBackup(uint _hodlId, address _backupAddress) public onlyOwnerOf(_hodlId) {\n    hodls[_hodlId].otherOwner = _backupAddress;\n  }\n\n  /// @notice - Unlock Function - After this time the Hodl owner can withdraw\n  /// @dev only available to the hodl owner / verify that current time is inferior to defined timelocked time\n  /// If called by backupAddress, it will pay the backupAddress\n  function unlockHodl(uint _hodlId) public onlyOwnerOf(_hodlId) {\n    Hodl storage myHodl = hodls[_hodlId];\n    require(uint64(myHodl.timelocked) <= uint64(block.timestamp));\n    require(myHodl.closed == false);\n\n    if (msg.sender == myHodl.otherOwner) {\n      payable(myHodl.otherOwner).transfer(myHodl.amount);\n    } else {\n      payable(myHodl.owner).transfer(myHodl.amount);\n    }\n\n    myHodl.closed = true;\n    totalUnlocked += myHodl.amount;\n    ownerTotalUnlocked[msg.sender] += myHodl.amount;\n\n    // uint ethPriceAtClose = uint(getEthPrice());\n    emit ClosedHodl(_hodlId, myHodl.owner, myHodl.amount, myHodl.timelocked, uint64(block.timestamp));\n  }\n\n  /// @notice - View the total count of Hodls\n  function getHodlsCount() public view returns(uint) {\n    return uint(hodls.length);\n  }\n\n  /// @notice - Get hodls by owner (ids)\n  function getHodlsByOwner(address _owner) external view returns(uint[] memory) {\n    uint[] memory result = new uint[](ownerHodlCount[_owner]);\n    uint counter = 0;\n    for (uint i = 0; i < hodls.length; i++) {\n      if (hodlToOwner[i] == _owner) {\n        result[counter] = i;\n        counter++;\n      }\n    }\n    return result;\n  }\n\n  /// @notice - Getters for owner's data\n  function getTotalLockedByOwner(address _owner) external view returns(uint) {\n    return ownerTotalLocked[_owner];\n  }\n\n  function getTotalUnlockedByOwner(address _owner) external view returns(uint) {\n    return ownerTotalUnlocked[_owner];\n  }\n\n  /// @notice ETH price feed from Chainlink\n  // function getEthPrice() public view returns (int) {\n  //     (\n  //         uint80 roundID,\n  //         int price,\n  //         uint startedAt,\n  //         uint timeStamp,\n  //         uint80 answeredInRound\n  //     ) = priceFeed.latestRoundData();\n  //     return price;\n  // }\n}\n",
  "sourcePath": "/Users/guillaumedesa/Documents/eth/hodler-react/contracts/Hodler.sol",
  "compiler": {
    "name": "solc",
    "version": "0.8.0+commit.c7dfd78e.Emscripten.clang"
  },
  "schemaVersion": "3.3.4",
  "updatedAt": "2021-06-12T13:29:34.929Z",
  "networkType": "ethereum",
  "devdoc": {
    "author": "G. T. SA.",
    "events": {
      "NewHodl(uint256,address,uint256,uint256,uint256)": {
        "details": "Two events are emitted. One for Open and one for closed hodl A \"Hodl\" is triggered once you use lockHodl() and lock your funds"
      }
    },
    "kind": "dev",
    "methods": {
      "lockHodl(uint256)": {
        "details": "Logs into a struct that'll be used to verify is Unlock is possible and if unlock has happened Time is set in days \"timelocked*60*60*24\" When no backupAddress is present, it'll be defined as address(0)"
      },
      "modifyHodlBackup(uint256,address)": {
        "details": "Hodl Owner's address or BackupAddress can modify the BackupAddress this function can be called at any time and any number of times"
      },
      "unlockHodl(uint256)": {
        "details": "only available to the hodl owner / verify that current time is inferior to defined timelocked time If called by backupAddress, it will pay the backupAddress"
      }
    },
    "stateVariables": {
      "hodlToOwner": {
        "details": "Mapping to store which hodl belongs to whom"
      }
    },
    "title": "A Contract to Hodl (lock) funds until a defined time in the future",
    "version": 1
  },
  "userdoc": {
    "kind": "user",
    "methods": {
      "getHodlsByOwner(address)": {
        "notice": "- Get hodls by owner (ids)"
      },
      "getHodlsCount()": {
        "notice": "- View the total count of Hodls"
      },
      "getTotalLockedByOwner(address)": {
        "notice": "- Getters for owner's data"
      },
      "lockHodl(uint256)": {
        "notice": "- Lock Function - Owner defines a time in days he wants he's funds to be locked from himself"
      },
      "modifyHodlBackup(uint256,address)": {
        "notice": "- Modify Backup Address"
      },
      "unlockHodl(uint256)": {
        "notice": "- Unlock Function - After this time the Hodl owner can withdraw"
      }
    },
    "notice": "This contract should be used to lock funds from yourself. There is no coming back after you lock your funds.",
    "version": 1
  }
}