{
  "contractName": "Hodler",
  "abi": [
    {
      "anonymous": false,
      "inputs": [
        {
          "indexed": true,
          "internalType": "address",
          "name": "owner",
          "type": "address"
        },
        {
          "indexed": true,
          "internalType": "address",
          "name": "spender",
          "type": "address"
        },
        {
          "indexed": false,
          "internalType": "uint256",
          "name": "value",
          "type": "uint256"
        }
      ],
      "name": "Approval",
      "type": "event"
    },
    {
      "anonymous": false,
      "inputs": [
        {
          "indexed": false,
          "internalType": "uint256",
          "name": "hodlId",
          "type": "uint256"
        },
        {
          "indexed": true,
          "internalType": "address",
          "name": "owner",
          "type": "address"
        },
        {
          "indexed": false,
          "internalType": "uint256",
          "name": "amount",
          "type": "uint256"
        },
        {
          "indexed": false,
          "internalType": "uint256",
          "name": "timelocked",
          "type": "uint256"
        },
        {
          "indexed": false,
          "internalType": "uint256",
          "name": "closedAt",
          "type": "uint256"
        }
      ],
      "name": "ClosedHodl",
      "type": "event"
    },
    {
      "anonymous": false,
      "inputs": [
        {
          "indexed": false,
          "internalType": "uint256",
          "name": "hodlId",
          "type": "uint256"
        },
        {
          "indexed": true,
          "internalType": "address",
          "name": "owner",
          "type": "address"
        },
        {
          "indexed": false,
          "internalType": "uint256",
          "name": "amount",
          "type": "uint256"
        },
        {
          "indexed": false,
          "internalType": "uint256",
          "name": "timelocked",
          "type": "uint256"
        },
        {
          "indexed": false,
          "internalType": "uint256",
          "name": "createdAt",
          "type": "uint256"
        }
      ],
      "name": "NewHodl",
      "type": "event"
    },
    {
      "anonymous": false,
      "inputs": [
        {
          "indexed": true,
          "internalType": "bytes32",
          "name": "role",
          "type": "bytes32"
        },
        {
          "indexed": true,
          "internalType": "bytes32",
          "name": "previousAdminRole",
          "type": "bytes32"
        },
        {
          "indexed": true,
          "internalType": "bytes32",
          "name": "newAdminRole",
          "type": "bytes32"
        }
      ],
      "name": "RoleAdminChanged",
      "type": "event"
    },
    {
      "anonymous": false,
      "inputs": [
        {
          "indexed": true,
          "internalType": "bytes32",
          "name": "role",
          "type": "bytes32"
        },
        {
          "indexed": true,
          "internalType": "address",
          "name": "account",
          "type": "address"
        },
        {
          "indexed": true,
          "internalType": "address",
          "name": "sender",
          "type": "address"
        }
      ],
      "name": "RoleGranted",
      "type": "event"
    },
    {
      "anonymous": false,
      "inputs": [
        {
          "indexed": true,
          "internalType": "bytes32",
          "name": "role",
          "type": "bytes32"
        },
        {
          "indexed": true,
          "internalType": "address",
          "name": "account",
          "type": "address"
        },
        {
          "indexed": true,
          "internalType": "address",
          "name": "sender",
          "type": "address"
        }
      ],
      "name": "RoleRevoked",
      "type": "event"
    },
    {
      "anonymous": false,
      "inputs": [
        {
          "indexed": true,
          "internalType": "address",
          "name": "from",
          "type": "address"
        },
        {
          "indexed": true,
          "internalType": "address",
          "name": "to",
          "type": "address"
        },
        {
          "indexed": false,
          "internalType": "uint256",
          "name": "value",
          "type": "uint256"
        }
      ],
      "name": "Transfer",
      "type": "event"
    },
    {
      "inputs": [],
      "name": "DEFAULT_ADMIN_ROLE",
      "outputs": [
        {
          "internalType": "bytes32",
          "name": "",
          "type": "bytes32"
        }
      ],
      "stateMutability": "view",
      "type": "function",
      "constant": true
    },
    {
      "inputs": [
        {
          "internalType": "address",
          "name": "owner",
          "type": "address"
        },
        {
          "internalType": "address",
          "name": "spender",
          "type": "address"
        }
      ],
      "name": "allowance",
      "outputs": [
        {
          "internalType": "uint256",
          "name": "",
          "type": "uint256"
        }
      ],
      "stateMutability": "view",
      "type": "function",
      "constant": true
    },
    {
      "inputs": [
        {
          "internalType": "address",
          "name": "spender",
          "type": "address"
        },
        {
          "internalType": "uint256",
          "name": "amount",
          "type": "uint256"
        }
      ],
      "name": "approve",
      "outputs": [
        {
          "internalType": "bool",
          "name": "",
          "type": "bool"
        }
      ],
      "stateMutability": "nonpayable",
      "type": "function"
    },
    {
      "inputs": [
        {
          "internalType": "address",
          "name": "account",
          "type": "address"
        }
      ],
      "name": "balanceOf",
      "outputs": [
        {
          "internalType": "uint256",
          "name": "",
          "type": "uint256"
        }
      ],
      "stateMutability": "view",
      "type": "function",
      "constant": true
    },
    {
      "inputs": [],
      "name": "decimals",
      "outputs": [
        {
          "internalType": "uint8",
          "name": "",
          "type": "uint8"
        }
      ],
      "stateMutability": "view",
      "type": "function",
      "constant": true
    },
    {
      "inputs": [
        {
          "internalType": "address",
          "name": "spender",
          "type": "address"
        },
        {
          "internalType": "uint256",
          "name": "subtractedValue",
          "type": "uint256"
        }
      ],
      "name": "decreaseAllowance",
      "outputs": [
        {
          "internalType": "bool",
          "name": "",
          "type": "bool"
        }
      ],
      "stateMutability": "nonpayable",
      "type": "function"
    },
    {
      "inputs": [
        {
          "internalType": "bytes32",
          "name": "role",
          "type": "bytes32"
        }
      ],
      "name": "getRoleAdmin",
      "outputs": [
        {
          "internalType": "bytes32",
          "name": "",
          "type": "bytes32"
        }
      ],
      "stateMutability": "view",
      "type": "function",
      "constant": true
    },
    {
      "inputs": [
        {
          "internalType": "bytes32",
          "name": "role",
          "type": "bytes32"
        },
        {
          "internalType": "address",
          "name": "account",
          "type": "address"
        }
      ],
      "name": "grantRole",
      "outputs": [],
      "stateMutability": "nonpayable",
      "type": "function"
    },
    {
      "inputs": [
        {
          "internalType": "bytes32",
          "name": "role",
          "type": "bytes32"
        },
        {
          "internalType": "address",
          "name": "account",
          "type": "address"
        }
      ],
      "name": "hasRole",
      "outputs": [
        {
          "internalType": "bool",
          "name": "",
          "type": "bool"
        }
      ],
      "stateMutability": "view",
      "type": "function",
      "constant": true
    },
    {
      "inputs": [
        {
          "internalType": "uint256",
          "name": "",
          "type": "uint256"
        }
      ],
      "name": "hodlToOwner",
      "outputs": [
        {
          "internalType": "address",
          "name": "",
          "type": "address"
        }
      ],
      "stateMutability": "view",
      "type": "function",
      "constant": true
    },
    {
      "inputs": [
        {
          "internalType": "uint256",
          "name": "",
          "type": "uint256"
        }
      ],
      "name": "hodls",
      "outputs": [
        {
          "internalType": "address",
          "name": "owner",
          "type": "address"
        },
        {
          "internalType": "address",
          "name": "otherOwner",
          "type": "address"
        },
        {
          "internalType": "uint256",
          "name": "amount",
          "type": "uint256"
        },
        {
          "internalType": "uint256",
          "name": "timelocked",
          "type": "uint256"
        },
        {
          "internalType": "uint256",
          "name": "createdAt",
          "type": "uint256"
        },
        {
          "internalType": "bool",
          "name": "closed",
          "type": "bool"
        }
      ],
      "stateMutability": "view",
      "type": "function",
      "constant": true
    },
    {
      "inputs": [
        {
          "internalType": "address",
          "name": "spender",
          "type": "address"
        },
        {
          "internalType": "uint256",
          "name": "addedValue",
          "type": "uint256"
        }
      ],
      "name": "increaseAllowance",
      "outputs": [
        {
          "internalType": "bool",
          "name": "",
          "type": "bool"
        }
      ],
      "stateMutability": "nonpayable",
      "type": "function"
    },
    {
      "inputs": [],
      "name": "name",
      "outputs": [
        {
          "internalType": "string",
          "name": "",
          "type": "string"
        }
      ],
      "stateMutability": "view",
      "type": "function",
      "constant": true
    },
    {
      "inputs": [
        {
          "internalType": "bytes32",
          "name": "role",
          "type": "bytes32"
        },
        {
          "internalType": "address",
          "name": "account",
          "type": "address"
        }
      ],
      "name": "renounceRole",
      "outputs": [],
      "stateMutability": "nonpayable",
      "type": "function"
    },
    {
      "inputs": [
        {
          "internalType": "bytes32",
          "name": "role",
          "type": "bytes32"
        },
        {
          "internalType": "address",
          "name": "account",
          "type": "address"
        }
      ],
      "name": "revokeRole",
      "outputs": [],
      "stateMutability": "nonpayable",
      "type": "function"
    },
    {
      "inputs": [
        {
          "internalType": "bytes4",
          "name": "interfaceId",
          "type": "bytes4"
        }
      ],
      "name": "supportsInterface",
      "outputs": [
        {
          "internalType": "bool",
          "name": "",
          "type": "bool"
        }
      ],
      "stateMutability": "view",
      "type": "function",
      "constant": true
    },
    {
      "inputs": [],
      "name": "symbol",
      "outputs": [
        {
          "internalType": "string",
          "name": "",
          "type": "string"
        }
      ],
      "stateMutability": "view",
      "type": "function",
      "constant": true
    },
    {
      "inputs": [],
      "name": "totalLocked",
      "outputs": [
        {
          "internalType": "uint256",
          "name": "",
          "type": "uint256"
        }
      ],
      "stateMutability": "view",
      "type": "function",
      "constant": true
    },
    {
      "inputs": [],
      "name": "totalSupply",
      "outputs": [
        {
          "internalType": "uint256",
          "name": "",
          "type": "uint256"
        }
      ],
      "stateMutability": "view",
      "type": "function",
      "constant": true
    },
    {
      "inputs": [],
      "name": "totalUnlocked",
      "outputs": [
        {
          "internalType": "uint256",
          "name": "",
          "type": "uint256"
        }
      ],
      "stateMutability": "view",
      "type": "function",
      "constant": true
    },
    {
      "inputs": [
        {
          "internalType": "address",
          "name": "recipient",
          "type": "address"
        },
        {
          "internalType": "uint256",
          "name": "amount",
          "type": "uint256"
        }
      ],
      "name": "transfer",
      "outputs": [
        {
          "internalType": "bool",
          "name": "",
          "type": "bool"
        }
      ],
      "stateMutability": "nonpayable",
      "type": "function"
    },
    {
      "inputs": [
        {
          "internalType": "address",
          "name": "sender",
          "type": "address"
        },
        {
          "internalType": "address",
          "name": "recipient",
          "type": "address"
        },
        {
          "internalType": "uint256",
          "name": "amount",
          "type": "uint256"
        }
      ],
      "name": "transferFrom",
      "outputs": [
        {
          "internalType": "bool",
          "name": "",
          "type": "bool"
        }
      ],
      "stateMutability": "nonpayable",
      "type": "function"
    },
    {
      "inputs": [
        {
          "internalType": "uint256",
          "name": "timelocked",
          "type": "uint256"
        }
      ],
      "name": "lockHodl",
      "outputs": [],
      "stateMutability": "payable",
      "type": "function",
      "payable": true
    },
    {
      "inputs": [
        {
          "internalType": "uint256",
          "name": "_hodlId",
          "type": "uint256"
        },
        {
          "internalType": "address",
          "name": "_backupAddress",
          "type": "address"
        }
      ],
      "name": "modifyHodlBackup",
      "outputs": [],
      "stateMutability": "nonpayable",
      "type": "function"
    },
    {
      "inputs": [
        {
          "internalType": "uint256",
          "name": "_hodlId",
          "type": "uint256"
        }
      ],
      "name": "unlockHodl",
      "outputs": [],
      "stateMutability": "nonpayable",
      "type": "function"
    },
    {
      "inputs": [],
      "name": "getHodlsCount",
      "outputs": [
        {
          "internalType": "uint256",
          "name": "",
          "type": "uint256"
        }
      ],
      "stateMutability": "view",
      "type": "function",
      "constant": true
    },
    {
      "inputs": [
        {
          "internalType": "address",
          "name": "_owner",
          "type": "address"
        }
      ],
      "name": "getHodlsByOwner",
      "outputs": [
        {
          "internalType": "uint256[]",
          "name": "",
          "type": "uint256[]"
        }
      ],
      "stateMutability": "view",
      "type": "function",
      "constant": true
    },
    {
      "inputs": [
        {
          "internalType": "address",
          "name": "_owner",
          "type": "address"
        }
      ],
      "name": "getTotalLockedByOwner",
      "outputs": [
        {
          "internalType": "uint256",
          "name": "",
          "type": "uint256"
        }
      ],
      "stateMutability": "view",
      "type": "function",
      "constant": true
    },
    {
      "inputs": [
        {
          "internalType": "address",
          "name": "_owner",
          "type": "address"
        }
      ],
      "name": "getTotalUnlockedByOwner",
      "outputs": [
        {
          "internalType": "uint256",
          "name": "",
          "type": "uint256"
        }
      ],
      "stateMutability": "view",
      "type": "function",
      "constant": true
    }
  ],
  "bytecode": "0x60806040523480156200001157600080fd5b506040518060400160405280600481526020017f486f646c000000000000000000000000000000000000000000000000000000008152506040518060400160405280600481526020017f484f444c0000000000000000000000000000000000000000000000000000000081525081600390805190602001906200009692919062000248565b508060049080519060200190620000af92919062000248565b505050620000c76000801b33620000cd60201b60201c565b6200035d565b620000df8282620000e360201b60201c565b5050565b620000f58282620001d560201b60201c565b620001d15760016005600084815260200190815260200160002060000160008373ffffffffffffffffffffffffffffffffffffffff1673ffffffffffffffffffffffffffffffffffffffff16815260200190815260200160002060006101000a81548160ff021916908315150217905550620001766200024060201b60201c565b73ffffffffffffffffffffffffffffffffffffffff168173ffffffffffffffffffffffffffffffffffffffff16837f2f8788117e7eff1d82e926ec794901d17c78024a50270940304540a733656f0d60405160405180910390a45b5050565b60006005600084815260200190815260200160002060000160008373ffffffffffffffffffffffffffffffffffffffff1673ffffffffffffffffffffffffffffffffffffffff16815260200190815260200160002060009054906101000a900460ff16905092915050565b600033905090565b8280546200025690620002f8565b90600052602060002090601f0160209004810192826200027a5760008555620002c6565b82601f106200029557805160ff1916838001178555620002c6565b82800160010185558215620002c6579182015b82811115620002c5578251825591602001919060010190620002a8565b5b509050620002d59190620002d9565b5090565b5b80821115620002f4576000816000905550600101620002da565b5090565b600060028204905060018216806200031157607f821691505b602082108114156200032857620003276200032e565b5b50919050565b7f4e487b7100000000000000000000000000000000000000000000000000000000600052602260045260246000fd5b61362a806200036d6000396000f3fe6080604052600436106101c25760003560e01c806339509351116100f7578063a217fddf11610095578063bf99235e11610064578063bf99235e146106d2578063d547741f146106fd578063dd62ed3e14610726578063fd78e7d714610763576101c2565b8063a217fddf14610602578063a457c2d71461062d578063a779d0801461066a578063a9059cbb14610695576101c2565b806369b514ce116100d157806369b514ce1461052057806370a082311461055d57806391d148541461059a57806395d89b41146105d7576101c2565b8063395093511461048f57806350df21bc146104cc57806356891412146104f5576101c2565b8063216be181116101645780632e4fdbd21161013e5780632e4fdbd2146103d55780632f2ff15d14610412578063313ce5671461043b57806336568abe14610466576101c2565b8063216be1811461031957806323b872dd1461035b578063248a9ca314610398576101c2565b8063095ea7b3116101a0578063095ea7b3146102585780630d8bfb851461029557806318160ddd146102d25780631d2ff961146102fd576101c2565b806301ffc9a7146101c75780630308ffad1461020457806306fdde031461022d575b600080fd5b3480156101d357600080fd5b506101ee60048036038101906101e99190612865565b6107a0565b6040516101fb9190612f84565b60405180910390f35b34801561021057600080fd5b5061022b6004803603810190610226919061288e565b61081a565b005b34801561023957600080fd5b50610242610c45565b60405161024f9190612fba565b60405180910390f35b34801561026457600080fd5b5061027f600480360381019061027a91906127c4565b610cd7565b60405161028c9190612f84565b60405180910390f35b3480156102a157600080fd5b506102bc60048036038101906102b79190612710565b610cf5565b6040516102c9919061313c565b60405180910390f35b3480156102de57600080fd5b506102e7610d3e565b6040516102f4919061313c565b60405180910390f35b6103176004803603810190610312919061288e565b610d48565b005b34801561032557600080fd5b50610340600480360381019061033b919061288e565b6110ba565b60405161035296959493929190612f01565b60405180910390f35b34801561036757600080fd5b50610382600480360381019061037d9190612775565b611153565b60405161038f9190612f84565b60405180910390f35b3480156103a457600080fd5b506103bf60048036038101906103ba9190612800565b611254565b6040516103cc9190612f9f565b60405180910390f35b3480156103e157600080fd5b506103fc60048036038101906103f7919061288e565b611274565b6040516104099190612ee6565b60405180910390f35b34801561041e57600080fd5b5061043960048036038101906104349190612829565b6112a7565b005b34801561044757600080fd5b506104506112d0565b60405161045d91906131e1565b60405180910390f35b34801561047257600080fd5b5061048d60048036038101906104889190612829565b6112d9565b005b34801561049b57600080fd5b506104b660048036038101906104b191906127c4565b61135c565b6040516104c39190612f84565b60405180910390f35b3480156104d857600080fd5b506104f360048036038101906104ee91906128b7565b611408565b005b34801561050157600080fd5b5061050a6115da565b604051610517919061313c565b60405180910390f35b34801561052c57600080fd5b5061054760048036038101906105429190612710565b6115e0565b6040516105549190612f62565b60405180910390f35b34801561056957600080fd5b50610584600480360381019061057f9190612710565b61177f565b604051610591919061313c565b60405180910390f35b3480156105a657600080fd5b506105c160048036038101906105bc9190612829565b6117c7565b6040516105ce9190612f84565b60405180910390f35b3480156105e357600080fd5b506105ec611832565b6040516105f99190612fba565b60405180910390f35b34801561060e57600080fd5b506106176118c4565b6040516106249190612f9f565b60405180910390f35b34801561063957600080fd5b50610654600480360381019061064f91906127c4565b6118cb565b6040516106619190612f84565b60405180910390f35b34801561067657600080fd5b5061067f6119bf565b60405161068c919061313c565b60405180910390f35b3480156106a157600080fd5b506106bc60048036038101906106b791906127c4565b6119c5565b6040516106c99190612f84565b60405180910390f35b3480156106de57600080fd5b506106e76119e3565b6040516106f4919061313c565b60405180910390f35b34801561070957600080fd5b50610724600480360381019061071f9190612829565b6119f0565b005b34801561073257600080fd5b5061074d60048036038101906107489190612739565b611a19565b60405161075a919061313c565b60405180910390f35b34801561076f57600080fd5b5061078a60048036038101906107859190612710565b611aa0565b604051610797919061313c565b60405180910390f35b60007f7965db0b000000000000000000000000000000000000000000000000000000007bffffffffffffffffffffffffffffffffffffffffffffffffffffffff1916827bffffffffffffffffffffffffffffffffffffffffffffffffffffffff19161480610813575061081282611ae9565b5b9050919050565b80600b600082815260200190815260200160002060009054906101000a900473ffffffffffffffffffffffffffffffffffffffff1673ffffffffffffffffffffffffffffffffffffffff163373ffffffffffffffffffffffffffffffffffffffff16148061091e5750600a81815481106108bd577f4e487b7100000000000000000000000000000000000000000000000000000000600052603260045260246000fd5b906000526020600020906006020160010160009054906101000a900473ffffffffffffffffffffffffffffffffffffffff1673ffffffffffffffffffffffffffffffffffffffff163373ffffffffffffffffffffffffffffffffffffffff16145b61095d576040517f08c379a00000000000000000000000000000000000000000000000000000000081526004016109549061301c565b60405180910390fd5b6000600a8381548110610999577f4e487b7100000000000000000000000000000000000000000000000000000000600052603260045260246000fd5b906000526020600020906006020190504267ffffffffffffffff16816003015467ffffffffffffffff1611156109ce57600080fd5b600015158160050160009054906101000a900460ff161515146109f057600080fd5b8060010160009054906101000a900473ffffffffffffffffffffffffffffffffffffffff1673ffffffffffffffffffffffffffffffffffffffff163373ffffffffffffffffffffffffffffffffffffffff161415610abc578060010160009054906101000a900473ffffffffffffffffffffffffffffffffffffffff1673ffffffffffffffffffffffffffffffffffffffff166108fc82600201549081150290604051600060405180830381858888f19350505050158015610ab6573d6000803e3d6000fd5b50610b2c565b8060000160009054906101000a900473ffffffffffffffffffffffffffffffffffffffff1673ffffffffffffffffffffffffffffffffffffffff166108fc82600201549081150290604051600060405180830381858888f19350505050158015610b2a573d6000803e3d6000fd5b505b60018160050160006101000a81548160ff021916908315150217905550806002015460086000828254610b5f919061325c565b925050819055508060020154600e60003373ffffffffffffffffffffffffffffffffffffffff1673ffffffffffffffffffffffffffffffffffffffff1681526020019081526020016000206000828254610bb9919061325c565b925050819055508060000160009054906101000a900473ffffffffffffffffffffffffffffffffffffffff1673ffffffffffffffffffffffffffffffffffffffff167fde31b1a52ca322b72a901c70ff7893e65fca1ea4a3e031dfccc181c6560e8bc6848360020154846003015442604051610c389493929190613157565b60405180910390a2505050565b606060038054610c549061347f565b80601f0160208091040260200160405190810160405280929190818152602001828054610c809061347f565b8015610ccd5780601f10610ca257610100808354040283529160200191610ccd565b820191906000526020600020905b815481529060010190602001808311610cb057829003601f168201915b5050505050905090565b6000610ceb610ce4611b53565b8484611b5b565b6001905092915050565b6000600d60008373ffffffffffffffffffffffffffffffffffffffff1673ffffffffffffffffffffffffffffffffffffffff168152602001908152602001600020549050919050565b6000600254905090565b600a6040518060c001604052803373ffffffffffffffffffffffffffffffffffffffff168152602001600073ffffffffffffffffffffffffffffffffffffffff1681526020013481526020016018603c8086610da491906132e3565b610dae91906132e3565b610db891906132e3565b42610dc3919061325c565b67ffffffffffffffff1681526020014267ffffffffffffffff16815260200160001515815250908060018154018082558091505060019003906000526020600020906006020160009091909190915060008201518160000160006101000a81548173ffffffffffffffffffffffffffffffffffffffff021916908373ffffffffffffffffffffffffffffffffffffffff16021790555060208201518160010160006101000a81548173ffffffffffffffffffffffffffffffffffffffff021916908373ffffffffffffffffffffffffffffffffffffffff16021790555060408201518160020155606082015181600301556080820151816004015560a08201518160050160006101000a81548160ff0219169083151502179055505050600c60003373ffffffffffffffffffffffffffffffffffffffff1673ffffffffffffffffffffffffffffffffffffffff1681526020019081526020016000206000815480929190610f30906134b1565b919050555033600b60006001600a80549050610f4c919061333d565b815260200190815260200160002060006101000a81548173ffffffffffffffffffffffffffffffffffffffff021916908373ffffffffffffffffffffffffffffffffffffffff16021790555034600d60003373ffffffffffffffffffffffffffffffffffffffff1673ffffffffffffffffffffffffffffffffffffffff1681526020019081526020016000206000828254610fe7919061325c565b925050819055503460076000828254611000919061325c565b9250508190555061016d8110611024576110233361101e3484611d26565b611d7c565b5b3373ffffffffffffffffffffffffffffffffffffffff167fd902438957a94d109e82dd5c91091055ad14becb7f7ecc3f35e64ab3b49dbbcc6001600a8054905061106e919061333d565b346018603c808761107f91906132e3565b61108991906132e3565b61109391906132e3565b4261109e919061325c565b426040516110af949392919061319c565b60405180910390a250565b600a81815481106110ca57600080fd5b90600052602060002090600602016000915090508060000160009054906101000a900473ffffffffffffffffffffffffffffffffffffffff16908060010160009054906101000a900473ffffffffffffffffffffffffffffffffffffffff16908060020154908060030154908060040154908060050160009054906101000a900460ff16905086565b6000611160848484611d8a565b6000600160008673ffffffffffffffffffffffffffffffffffffffff1673ffffffffffffffffffffffffffffffffffffffff16815260200190815260200160002060006111ab611b53565b73ffffffffffffffffffffffffffffffffffffffff1673ffffffffffffffffffffffffffffffffffffffff1681526020019081526020016000205490508281101561122b576040517f08c379a00000000000000000000000000000000000000000000000000000000081526004016112229061307c565b60405180910390fd5b61124885611237611b53565b8584611243919061333d565b611b5b565b60019150509392505050565b600060056000838152602001908152602001600020600101549050919050565b600b6020528060005260406000206000915054906101000a900473ffffffffffffffffffffffffffffffffffffffff1681565b6112b082611254565b6112c1816112bc611b53565b612009565b6112cb83836120a6565b505050565b60006012905090565b6112e1611b53565b73ffffffffffffffffffffffffffffffffffffffff168173ffffffffffffffffffffffffffffffffffffffff161461134e576040517f08c379a0000000000000000000000000000000000000000000000000000000008152600401611345906130fc565b60405180910390fd5b6113588282612187565b5050565b60006113fe611369611b53565b848460016000611377611b53565b73ffffffffffffffffffffffffffffffffffffffff1673ffffffffffffffffffffffffffffffffffffffff16815260200190815260200160002060008873ffffffffffffffffffffffffffffffffffffffff1673ffffffffffffffffffffffffffffffffffffffff168152602001908152602001600020546113f9919061325c565b611b5b565b6001905092915050565b81600b600082815260200190815260200160002060009054906101000a900473ffffffffffffffffffffffffffffffffffffffff1673ffffffffffffffffffffffffffffffffffffffff163373ffffffffffffffffffffffffffffffffffffffff16148061150c5750600a81815481106114ab577f4e487b7100000000000000000000000000000000000000000000000000000000600052603260045260246000fd5b906000526020600020906006020160010160009054906101000a900473ffffffffffffffffffffffffffffffffffffffff1673ffffffffffffffffffffffffffffffffffffffff163373ffffffffffffffffffffffffffffffffffffffff16145b61154b576040517f08c379a00000000000000000000000000000000000000000000000000000000081526004016115429061301c565b60405180910390fd5b81600a8481548110611586577f4e487b7100000000000000000000000000000000000000000000000000000000600052603260045260246000fd5b906000526020600020906006020160010160006101000a81548173ffffffffffffffffffffffffffffffffffffffff021916908373ffffffffffffffffffffffffffffffffffffffff160217905550505050565b60075481565b60606000600c60008473ffffffffffffffffffffffffffffffffffffffff1673ffffffffffffffffffffffffffffffffffffffff1681526020019081526020016000205467ffffffffffffffff811115611663577f4e487b7100000000000000000000000000000000000000000000000000000000600052604160045260246000fd5b6040519080825280602002602001820160405280156116915781602001602082028036833780820191505090505b5090506000805b600a80549050811015611774578473ffffffffffffffffffffffffffffffffffffffff16600b600083815260200190815260200160002060009054906101000a900473ffffffffffffffffffffffffffffffffffffffff1673ffffffffffffffffffffffffffffffffffffffff1614156117615780838381518110611746577f4e487b7100000000000000000000000000000000000000000000000000000000600052603260045260246000fd5b602002602001018181525050818061175d906134b1565b9250505b808061176c906134b1565b915050611698565b508192505050919050565b60008060008373ffffffffffffffffffffffffffffffffffffffff1673ffffffffffffffffffffffffffffffffffffffff168152602001908152602001600020549050919050565b60006005600084815260200190815260200160002060000160008373ffffffffffffffffffffffffffffffffffffffff1673ffffffffffffffffffffffffffffffffffffffff16815260200190815260200160002060009054906101000a900460ff16905092915050565b6060600480546118419061347f565b80601f016020809104026020016040519081016040528092919081815260200182805461186d9061347f565b80156118ba5780601f1061188f576101008083540402835291602001916118ba565b820191906000526020600020905b81548152906001019060200180831161189d57829003601f168201915b5050505050905090565b6000801b81565b600080600160006118da611b53565b73ffffffffffffffffffffffffffffffffffffffff1673ffffffffffffffffffffffffffffffffffffffff16815260200190815260200160002060008573ffffffffffffffffffffffffffffffffffffffff1673ffffffffffffffffffffffffffffffffffffffff16815260200190815260200160002054905082811015611997576040517f08c379a000000000000000000000000000000000000000000000000000000000815260040161198e906130dc565b60405180910390fd5b6119b46119a2611b53565b8585846119af919061333d565b611b5b565b600191505092915050565b60085481565b60006119d96119d2611b53565b8484611d8a565b6001905092915050565b6000600a80549050905090565b6119f982611254565b611a0a81611a05611b53565b612009565b611a148383612187565b505050565b6000600160008473ffffffffffffffffffffffffffffffffffffffff1673ffffffffffffffffffffffffffffffffffffffff16815260200190815260200160002060008373ffffffffffffffffffffffffffffffffffffffff1673ffffffffffffffffffffffffffffffffffffffff16815260200190815260200160002054905092915050565b6000600e60008373ffffffffffffffffffffffffffffffffffffffff1673ffffffffffffffffffffffffffffffffffffffff168152602001908152602001600020549050919050565b60007f01ffc9a7000000000000000000000000000000000000000000000000000000007bffffffffffffffffffffffffffffffffffffffffffffffffffffffff1916827bffffffffffffffffffffffffffffffffffffffffffffffffffffffff1916149050919050565b600033905090565b600073ffffffffffffffffffffffffffffffffffffffff168373ffffffffffffffffffffffffffffffffffffffff161415611bcb576040517f08c379a0000000000000000000000000000000000000000000000000000000008152600401611bc2906130bc565b60405180910390fd5b600073ffffffffffffffffffffffffffffffffffffffff168273ffffffffffffffffffffffffffffffffffffffff161415611c3b576040517f08c379a0000000000000000000000000000000000000000000000000000000008152600401611c329061303c565b60405180910390fd5b80600160008573ffffffffffffffffffffffffffffffffffffffff1673ffffffffffffffffffffffffffffffffffffffff16815260200190815260200160002060008473ffffffffffffffffffffffffffffffffffffffff1673ffffffffffffffffffffffffffffffffffffffff168152602001908152602001600020819055508173ffffffffffffffffffffffffffffffffffffffff168373ffffffffffffffffffffffffffffffffffffffff167f8c5be1e5ebec7d5bd14f71427d1e84f3dd0314c0f7b2291e5b200ac8c7c3b92583604051611d19919061313c565b60405180910390a3505050565b6000633b9aca0060648384611d3b91906132e3565b611d4591906132e3565b655af3107a400085611d5791906132b2565b611d6191906132e3565b611d6b91906132b2565b600981905550600954905092915050565b611d868282612269565b5050565b600073ffffffffffffffffffffffffffffffffffffffff168373ffffffffffffffffffffffffffffffffffffffff161415611dfa576040517f08c379a0000000000000000000000000000000000000000000000000000000008152600401611df19061309c565b60405180910390fd5b600073ffffffffffffffffffffffffffffffffffffffff168273ffffffffffffffffffffffffffffffffffffffff161415611e6a576040517f08c379a0000000000000000000000000000000000000000000000000000000008152600401611e6190612ffc565b60405180910390fd5b611e758383836123bd565b60008060008573ffffffffffffffffffffffffffffffffffffffff1673ffffffffffffffffffffffffffffffffffffffff16815260200190815260200160002054905081811015611efb576040517f08c379a0000000000000000000000000000000000000000000000000000000008152600401611ef29061305c565b60405180910390fd5b8181611f07919061333d565b6000808673ffffffffffffffffffffffffffffffffffffffff1673ffffffffffffffffffffffffffffffffffffffff16815260200190815260200160002081905550816000808573ffffffffffffffffffffffffffffffffffffffff1673ffffffffffffffffffffffffffffffffffffffff1681526020019081526020016000206000828254611f97919061325c565b925050819055508273ffffffffffffffffffffffffffffffffffffffff168473ffffffffffffffffffffffffffffffffffffffff167fddf252ad1be2c89b69c2b068fc378daa952ba7f163c4a11628f55a4df523b3ef84604051611ffb919061313c565b60405180910390a350505050565b61201382826117c7565b6120a2576120388173ffffffffffffffffffffffffffffffffffffffff1660146123c2565b6120468360001c60206123c2565b604051602001612057929190612eac565b6040516020818303038152906040526040517f08c379a00000000000000000000000000000000000000000000000000000000081526004016120999190612fba565b60405180910390fd5b5050565b6120b082826117c7565b6121835760016005600084815260200190815260200160002060000160008373ffffffffffffffffffffffffffffffffffffffff1673ffffffffffffffffffffffffffffffffffffffff16815260200190815260200160002060006101000a81548160ff021916908315150217905550612128611b53565b73ffffffffffffffffffffffffffffffffffffffff168173ffffffffffffffffffffffffffffffffffffffff16837f2f8788117e7eff1d82e926ec794901d17c78024a50270940304540a733656f0d60405160405180910390a45b5050565b61219182826117c7565b156122655760006005600084815260200190815260200160002060000160008373ffffffffffffffffffffffffffffffffffffffff1673ffffffffffffffffffffffffffffffffffffffff16815260200190815260200160002060006101000a81548160ff02191690831515021790555061220a611b53565b73ffffffffffffffffffffffffffffffffffffffff168173ffffffffffffffffffffffffffffffffffffffff16837ff6391f5c32d9c69d2a47ea670b442974b53935d1edc7fd64eb21e047a839171b60405160405180910390a45b5050565b600073ffffffffffffffffffffffffffffffffffffffff168273ffffffffffffffffffffffffffffffffffffffff1614156122d9576040517f08c379a00000000000000000000000000000000000000000000000000000000081526004016122d09061311c565b60405180910390fd5b6122e5600083836123bd565b80600260008282546122f7919061325c565b92505081905550806000808473ffffffffffffffffffffffffffffffffffffffff1673ffffffffffffffffffffffffffffffffffffffff168152602001908152602001600020600082825461234c919061325c565b925050819055508173ffffffffffffffffffffffffffffffffffffffff16600073ffffffffffffffffffffffffffffffffffffffff167fddf252ad1be2c89b69c2b068fc378daa952ba7f163c4a11628f55a4df523b3ef836040516123b1919061313c565b60405180910390a35050565b505050565b6060600060028360026123d591906132e3565b6123df919061325c565b67ffffffffffffffff81111561241e577f4e487b7100000000000000000000000000000000000000000000000000000000600052604160045260246000fd5b6040519080825280601f01601f1916602001820160405280156124505781602001600182028036833780820191505090505b5090507f3000000000000000000000000000000000000000000000000000000000000000816000815181106124ae577f4e487b7100000000000000000000000000000000000000000000000000000000600052603260045260246000fd5b60200101907effffffffffffffffffffffffffffffffffffffffffffffffffffffffffffff1916908160001a9053507f780000000000000000000000000000000000000000000000000000000000000081600181518110612538577f4e487b7100000000000000000000000000000000000000000000000000000000600052603260045260246000fd5b60200101907effffffffffffffffffffffffffffffffffffffffffffffffffffffffffffff1916908160001a9053506000600184600261257891906132e3565b612582919061325c565b90505b600181111561266e577f3031323334353637383961626364656600000000000000000000000000000000600f8616601081106125ea577f4e487b7100000000000000000000000000000000000000000000000000000000600052603260045260246000fd5b1a60f81b828281518110612627577f4e487b7100000000000000000000000000000000000000000000000000000000600052603260045260246000fd5b60200101907effffffffffffffffffffffffffffffffffffffffffffffffffffffffffffff1916908160001a905350600485901c94508061266790613455565b9050612585565b50600084146126b2576040517f08c379a00000000000000000000000000000000000000000000000000000000081526004016126a990612fdc565b60405180910390fd5b8091505092915050565b6000813590506126cb81613598565b92915050565b6000813590506126e0816135af565b92915050565b6000813590506126f5816135c6565b92915050565b60008135905061270a816135dd565b92915050565b60006020828403121561272257600080fd5b6000612730848285016126bc565b91505092915050565b6000806040838503121561274c57600080fd5b600061275a858286016126bc565b925050602061276b858286016126bc565b9150509250929050565b60008060006060848603121561278a57600080fd5b6000612798868287016126bc565b93505060206127a9868287016126bc565b92505060406127ba868287016126fb565b9150509250925092565b600080604083850312156127d757600080fd5b60006127e5858286016126bc565b92505060206127f6858286016126fb565b9150509250929050565b60006020828403121561281257600080fd5b6000612820848285016126d1565b91505092915050565b6000806040838503121561283c57600080fd5b600061284a858286016126d1565b925050602061285b858286016126bc565b9150509250929050565b60006020828403121561287757600080fd5b6000612885848285016126e6565b91505092915050565b6000602082840312156128a057600080fd5b60006128ae848285016126fb565b91505092915050565b600080604083850312156128ca57600080fd5b60006128d8858286016126fb565b92505060206128e9858286016126bc565b9150509250929050565b60006128ff8383612e70565b60208301905092915050565b61291481613371565b82525050565b60006129258261320c565b61292f818561322f565b935061293a836131fc565b8060005b8381101561296b57815161295288826128f3565b975061295d83613222565b92505060018101905061293e565b5085935050505092915050565b61298181613383565b82525050565b6129908161338f565b82525050565b60006129a182613217565b6129ab8185613240565b93506129bb818560208601613422565b6129c481613587565b840191505092915050565b60006129da82613217565b6129e48185613251565b93506129f4818560208601613422565b80840191505092915050565b6000612a0d602083613240565b91507f537472696e67733a20686578206c656e67746820696e73756666696369656e746000830152602082019050919050565b6000612a4d602383613240565b91507f45524332303a207472616e7366657220746f20746865207a65726f206164647260008301527f65737300000000000000000000000000000000000000000000000000000000006020830152604082019050919050565b6000612ab3601583613240565b91507f53656e646572206e6f7420617574686f72697a656400000000000000000000006000830152602082019050919050565b6000612af3602283613240565b91507f45524332303a20617070726f766520746f20746865207a65726f20616464726560008301527f73730000000000000000000000000000000000000000000000000000000000006020830152604082019050919050565b6000612b59602683613240565b91507f45524332303a207472616e7366657220616d6f756e742065786365656473206260008301527f616c616e636500000000000000000000000000000000000000000000000000006020830152604082019050919050565b6000612bbf602883613240565b91507f45524332303a207472616e7366657220616d6f756e742065786365656473206160008301527f6c6c6f77616e63650000000000000000000000000000000000000000000000006020830152604082019050919050565b6000612c25602583613240565b91507f45524332303a207472616e736665722066726f6d20746865207a65726f20616460008301527f64726573730000000000000000000000000000000000000000000000000000006020830152604082019050919050565b6000612c8b602483613240565b91507f45524332303a20617070726f76652066726f6d20746865207a65726f2061646460008301527f72657373000000000000000000000000000000000000000000000000000000006020830152604082019050919050565b6000612cf1601783613251565b91507f416363657373436f6e74726f6c3a206163636f756e74200000000000000000006000830152601782019050919050565b6000612d31602583613240565b91507f45524332303a2064656372656173656420616c6c6f77616e63652062656c6f7760008301527f207a65726f0000000000000000000000000000000000000000000000000000006020830152604082019050919050565b6000612d97601183613251565b91507f206973206d697373696e6720726f6c65200000000000000000000000000000006000830152601182019050919050565b6000612dd7602f83613240565b91507f416363657373436f6e74726f6c3a2063616e206f6e6c792072656e6f756e636560008301527f20726f6c657320666f722073656c6600000000000000000000000000000000006020830152604082019050919050565b6000612e3d601f83613240565b91507f45524332303a206d696e7420746f20746865207a65726f2061646472657373006000830152602082019050919050565b612e79816133e5565b82525050565b612e88816133e5565b82525050565b612e9781613410565b82525050565b612ea681613403565b82525050565b6000612eb782612ce4565b9150612ec382856129cf565b9150612ece82612d8a565b9150612eda82846129cf565b91508190509392505050565b6000602082019050612efb600083018461290b565b92915050565b600060c082019050612f16600083018961290b565b612f23602083018861290b565b612f306040830187612e7f565b612f3d6060830186612e7f565b612f4a6080830185612e7f565b612f5760a0830184612978565b979650505050505050565b60006020820190508181036000830152612f7c818461291a565b905092915050565b6000602082019050612f996000830184612978565b92915050565b6000602082019050612fb46000830184612987565b92915050565b60006020820190508181036000830152612fd48184612996565b905092915050565b60006020820190508181036000830152612ff581612a00565b9050919050565b6000602082019050818103600083015261301581612a40565b9050919050565b6000602082019050818103600083015261303581612aa6565b9050919050565b6000602082019050818103600083015261305581612ae6565b9050919050565b6000602082019050818103600083015261307581612b4c565b9050919050565b6000602082019050818103600083015261309581612bb2565b9050919050565b600060208201905081810360008301526130b581612c18565b9050919050565b600060208201905081810360008301526130d581612c7e565b9050919050565b600060208201905081810360008301526130f581612d24565b9050919050565b6000602082019050818103600083015261311581612dca565b9050919050565b6000602082019050818103600083015261313581612e30565b9050919050565b60006020820190506131516000830184612e7f565b92915050565b600060808201905061316c6000830187612e7f565b6131796020830186612e7f565b6131866040830185612e7f565b6131936060830184612e8e565b95945050505050565b60006080820190506131b16000830187612e7f565b6131be6020830186612e7f565b6131cb6040830185612e8e565b6131d86060830184612e8e565b95945050505050565b60006020820190506131f66000830184612e9d565b92915050565b6000819050602082019050919050565b600081519050919050565b600081519050919050565b6000602082019050919050565b600082825260208201905092915050565b600082825260208201905092915050565b600081905092915050565b6000613267826133e5565b9150613272836133e5565b9250827fffffffffffffffffffffffffffffffffffffffffffffffffffffffffffffffff038211156132a7576132a66134fa565b5b828201905092915050565b60006132bd826133e5565b91506132c8836133e5565b9250826132d8576132d7613529565b5b828204905092915050565b60006132ee826133e5565b91506132f9836133e5565b9250817fffffffffffffffffffffffffffffffffffffffffffffffffffffffffffffffff0483118215151615613332576133316134fa565b5b828202905092915050565b6000613348826133e5565b9150613353836133e5565b925082821015613366576133656134fa565b5b828203905092915050565b600061337c826133c5565b9050919050565b60008115159050919050565b6000819050919050565b60007fffffffff0000000000000000000000000000000000000000000000000000000082169050919050565b600073ffffffffffffffffffffffffffffffffffffffff82169050919050565b6000819050919050565b600067ffffffffffffffff82169050919050565b600060ff82169050919050565b600061341b826133ef565b9050919050565b60005b83811015613440578082015181840152602081019050613425565b8381111561344f576000848401525b50505050565b6000613460826133e5565b91506000821415613474576134736134fa565b5b600182039050919050565b6000600282049050600182168061349757607f821691505b602082108114156134ab576134aa613558565b5b50919050565b60006134bc826133e5565b91507fffffffffffffffffffffffffffffffffffffffffffffffffffffffffffffffff8214156134ef576134ee6134fa565b5b600182019050919050565b7f4e487b7100000000000000000000000000000000000000000000000000000000600052601160045260246000fd5b7f4e487b7100000000000000000000000000000000000000000000000000000000600052601260045260246000fd5b7f4e487b7100000000000000000000000000000000000000000000000000000000600052602260045260246000fd5b6000601f19601f8301169050919050565b6135a181613371565b81146135ac57600080fd5b50565b6135b88161338f565b81146135c357600080fd5b50565b6135cf81613399565b81146135da57600080fd5b50565b6135e6816133e5565b81146135f157600080fd5b5056fea26469706673582212206bb380f51546cf6220137e97f838b2dfee2cd6f9ed677d9fe75bb6a1b7dc1dec64736f6c63430008000033",
  "immutableReferences": {},
  "source": "pragma solidity ^0.8.0;\nimport \"@openzeppelin/contracts/access/Ownable.sol\";\nimport \"./HodlToken.sol\";\n// import \"@chainlink/contracts/src/v0.6/interfaces/AggregatorV3Interface.sol\";\n\n/// @title A Contract to Hodl (lock) funds until a defined time in the future\n/// @author G. T. SA.\n/// @notice This contract should be used to lock funds from yourself. There is no coming back after you lock your funds.\ncontract Hodler is HodlToken {\n\n  // AggregatorV3Interface internal priceFeed;\n\n  // constructor() public {\n  //     priceFeed = AggregatorV3Interface(0x8A753747A1Fa494EC906cE90E9f37563A8AF630e);\n  // }\n\n  address owner;\n  uint256 public totalLocked;\n  uint256 public totalUnlocked;\n  uint _mintAmount;\n\n  /// @dev Two events are emitted. One for Open and one for closed hodl\n  /// A \"Hodl\" is triggered once you use lockHodl() and lock your funds\n  // event NewHodl(uint hodlId, address indexed owner, uint amount, uint timelocked, uint createdAt, uint ethPriceAtStart);\n  // event ClosedHodl(uint hodlId, address indexed owner, uint amount, uint timelocked, uint closedAt, uint ethPriceAtClose);\n\n  event NewHodl(uint hodlId, address indexed owner, uint amount, uint timelocked, uint createdAt);\n  event ClosedHodl(uint hodlId, address indexed owner, uint amount, uint timelocked, uint closedAt);\n\n  struct Hodl {\n    address owner;\n    address otherOwner;\n    uint amount;\n    uint timelocked;\n    uint createdAt;\n    bool closed;\n  }\n\n  Hodl[] public hodls;\n\n  /// @dev Mapping to store which hodl belongs to whom\n  mapping(uint => address) public hodlToOwner;\n  mapping(address => uint) ownerHodlCount;\n  mapping(address => uint) ownerTotalLocked;\n  mapping(address => uint) ownerTotalUnlocked;\n\n  /// @dev Constructor should set Hodler Contract as sole Admin, Minter and Burner of Hodl Token\n  // constructor() public {\n  //   /// _grantRole - Set this.address has minter and burner\n  //   grantRole(keccak256(\"MINTER_ROLE\"), address(this));\n  //   grantRole(keccak256(\"BURNER_ROLE\"), address(this));\n  //   /// _setRoleAdmin - Change ERC20 Admin to this.address.\n  //   // _setRoleAdmin(\"DEFAULT_ADMIN_ROLE\", address(this));\n  //   /// Renounce to the admin role\n  //   renounceRole(\"DEFAULT_ADMIN_ROLE\", msg.sender);\n  // }\n\n  /// @notice - Lock Function - Owner defines a time in days he wants he's funds to be locked from himself\n  /// @dev Logs into a struct that'll be used to verify is Unlock is possible and if unlock has happened\n  /// Time is set in days \"timelocked*60*60*24\"\n  /// When no backupAddress is present, it'll be defined as address(0)\n  function lockHodl(uint timelocked) external payable {\n    // uint ethPriceAtStart = uint(getEthPrice());\n    hodls.push(Hodl(msg.sender, address(0), msg.value, uint64(block.timestamp + timelocked*60*60*24), uint64(block.timestamp), false));\n\n    ownerHodlCount[msg.sender]++;\n    hodlToOwner[hodls.length - 1] = msg.sender;\n    ownerTotalLocked[msg.sender] += msg.value;\n\n    totalLocked += msg.value;\n\n    /// Mint new Hodl Tokens\n    /// Minimum Timelocked to get tokens = 365 days.\n    if (timelocked >= 365) {\n      mint(msg.sender, mintCalculator(msg.value, timelocked));\n    }\n\n    emit NewHodl(hodls.length - 1, msg.sender, msg.value, uint64(block.timestamp + timelocked*60*60*24), uint64(block.timestamp));\n  }\n\n  /// @dev Makes every modified functions accessible for the owner's address and owner's backup address\n  modifier onlyOwnerOf(uint _hodlId) {\n    require(msg.sender == hodlToOwner[_hodlId] || msg.sender == hodls[_hodlId].otherOwner, \"Sender not authorized\");\n    _;\n  }\n\n  /// @notice - Modify Backup Address\n  /// @dev Hodl Owner's address or BackupAddress can modify the BackupAddress\n  /// this function can be called at any time and any number of times\n  function modifyHodlBackup(uint _hodlId, address _backupAddress) public onlyOwnerOf(_hodlId) {\n    hodls[_hodlId].otherOwner = _backupAddress;\n  }\n\n  /// @notice - Unlock Function - After this time the Hodl owner can withdraw\n  /// @dev only available to the hodl owner / verify that current time is inferior to defined timelocked time\n  /// If called by backupAddress, it will pay the backupAddress\n  function unlockHodl(uint _hodlId) public onlyOwnerOf(_hodlId) {\n    Hodl storage myHodl = hodls[_hodlId];\n    require(uint64(myHodl.timelocked) <= uint64(block.timestamp));\n    require(myHodl.closed == false);\n\n    if (msg.sender == myHodl.otherOwner) {\n      payable(myHodl.otherOwner).transfer(myHodl.amount);\n    } else {\n      payable(myHodl.owner).transfer(myHodl.amount);\n    }\n\n    myHodl.closed = true;\n    totalUnlocked += myHodl.amount;\n    ownerTotalUnlocked[msg.sender] += myHodl.amount;\n\n    // uint ethPriceAtClose = uint(getEthPrice());\n    emit ClosedHodl(_hodlId, myHodl.owner, myHodl.amount, myHodl.timelocked, uint64(block.timestamp));\n  }\n\n  /// @notice - View the total count of Hodls\n  function getHodlsCount() public view returns(uint) {\n    return uint(hodls.length);\n  }\n\n  /// @notice - Get hodls by owner (ids)\n  function getHodlsByOwner(address _owner) external view returns(uint[] memory) {\n    uint[] memory result = new uint[](ownerHodlCount[_owner]);\n    uint counter = 0;\n    for (uint i = 0; i < hodls.length; i++) {\n      if (hodlToOwner[i] == _owner) {\n        result[counter] = i;\n        counter++;\n      }\n    }\n    return result;\n  }\n\n  /// @notice - Getters for owner's data\n  function getTotalLockedByOwner(address _owner) external view returns(uint) {\n    return ownerTotalLocked[_owner];\n  }\n\n  function getTotalUnlockedByOwner(address _owner) external view returns(uint) {\n    return ownerTotalUnlocked[_owner];\n  }\n\n  /// @notice ETH price feed from Chainlink\n  // function getEthPrice() public view returns (int) {\n  //     (\n  //         uint80 roundID,\n  //         int price,\n  //         uint startedAt,\n  //         uint timeStamp,\n  //         uint80 answeredInRound\n  //     ) = priceFeed.latestRoundData();\n  //     return price;\n  // }\n\n  /// @dev Timelocked should count more than the amount - the goal being to lock money longer\n  function mintCalculator(uint _amount, uint _timelocked) private returns(uint) {\n    _mintAmount = (((_amount / 10**14) * (_timelocked*_timelocked * 10**2)) / 10**9);\n    return _mintAmount;\n  }\n}\n",
  "sourcePath": "/Users/guillaumedesa/Documents/eth/hodler-react/contracts/Hodler.sol",
  "compiler": {
    "name": "solc",
    "version": "0.8.0+commit.c7dfd78e.Emscripten.clang"
  },
  "schemaVersion": "3.3.4",
  "updatedAt": "2021-06-15T10:13:21.257Z",
  "networkType": "ethereum",
  "devdoc": {
    "author": "G. T. SA.",
    "events": {
      "NewHodl(uint256,address,uint256,uint256,uint256)": {
        "details": "Two events are emitted. One for Open and one for closed hodl A \"Hodl\" is triggered once you use lockHodl() and lock your funds"
      }
    },
    "kind": "dev",
    "methods": {
      "allowance(address,address)": {
        "details": "See {IERC20-allowance}."
      },
      "approve(address,uint256)": {
        "details": "See {IERC20-approve}. Requirements: - `spender` cannot be the zero address."
      },
      "balanceOf(address)": {
        "details": "See {IERC20-balanceOf}."
      },
      "decimals()": {
        "details": "Returns the number of decimals used to get its user representation. For example, if `decimals` equals `2`, a balance of `505` tokens should be displayed to a user as `5,05` (`505 / 10 ** 2`). Tokens usually opt for a value of 18, imitating the relationship between Ether and Wei. This is the value {ERC20} uses, unless this function is overridden; NOTE: This information is only used for _display_ purposes: it in no way affects any of the arithmetic of the contract, including {IERC20-balanceOf} and {IERC20-transfer}."
      },
      "decreaseAllowance(address,uint256)": {
        "details": "Atomically decreases the allowance granted to `spender` by the caller. This is an alternative to {approve} that can be used as a mitigation for problems described in {IERC20-approve}. Emits an {Approval} event indicating the updated allowance. Requirements: - `spender` cannot be the zero address. - `spender` must have allowance for the caller of at least `subtractedValue`."
      },
      "getRoleAdmin(bytes32)": {
        "details": "Returns the admin role that controls `role`. See {grantRole} and {revokeRole}. To change a role's admin, use {_setRoleAdmin}."
      },
      "grantRole(bytes32,address)": {
        "details": "Grants `role` to `account`. If `account` had not been already granted `role`, emits a {RoleGranted} event. Requirements: - the caller must have ``role``'s admin role."
      },
      "hasRole(bytes32,address)": {
        "details": "Returns `true` if `account` has been granted `role`."
      },
      "increaseAllowance(address,uint256)": {
        "details": "Atomically increases the allowance granted to `spender` by the caller. This is an alternative to {approve} that can be used as a mitigation for problems described in {IERC20-approve}. Emits an {Approval} event indicating the updated allowance. Requirements: - `spender` cannot be the zero address."
      },
      "lockHodl(uint256)": {
        "details": "Logs into a struct that'll be used to verify is Unlock is possible and if unlock has happened Time is set in days \"timelocked*60*60*24\" When no backupAddress is present, it'll be defined as address(0)"
      },
      "modifyHodlBackup(uint256,address)": {
        "details": "Hodl Owner's address or BackupAddress can modify the BackupAddress this function can be called at any time and any number of times"
      },
      "name()": {
        "details": "Returns the name of the token."
      },
      "renounceRole(bytes32,address)": {
        "details": "Revokes `role` from the calling account. Roles are often managed via {grantRole} and {revokeRole}: this function's purpose is to provide a mechanism for accounts to lose their privileges if they are compromised (such as when a trusted device is misplaced). If the calling account had been granted `role`, emits a {RoleRevoked} event. Requirements: - the caller must be `account`."
      },
      "revokeRole(bytes32,address)": {
        "details": "Revokes `role` from `account`. If `account` had been granted `role`, emits a {RoleRevoked} event. Requirements: - the caller must have ``role``'s admin role."
      },
      "supportsInterface(bytes4)": {
        "details": "See {IERC165-supportsInterface}."
      },
      "symbol()": {
        "details": "Returns the symbol of the token, usually a shorter version of the name."
      },
      "totalSupply()": {
        "details": "See {IERC20-totalSupply}."
      },
      "transfer(address,uint256)": {
        "details": "See {IERC20-transfer}. Requirements: - `recipient` cannot be the zero address. - the caller must have a balance of at least `amount`."
      },
      "transferFrom(address,address,uint256)": {
        "details": "See {IERC20-transferFrom}. Emits an {Approval} event indicating the updated allowance. This is not required by the EIP. See the note at the beginning of {ERC20}. Requirements: - `sender` and `recipient` cannot be the zero address. - `sender` must have a balance of at least `amount`. - the caller must have allowance for ``sender``'s tokens of at least `amount`."
      },
      "unlockHodl(uint256)": {
        "details": "only available to the hodl owner / verify that current time is inferior to defined timelocked time If called by backupAddress, it will pay the backupAddress"
      }
    },
    "stateVariables": {
      "hodlToOwner": {
        "details": "Mapping to store which hodl belongs to whom"
      }
    },
    "title": "A Contract to Hodl (lock) funds until a defined time in the future",
    "version": 1
  },
  "userdoc": {
    "kind": "user",
    "methods": {
      "getHodlsByOwner(address)": {
        "notice": "- Get hodls by owner (ids)"
      },
      "getHodlsCount()": {
        "notice": "- View the total count of Hodls"
      },
      "getTotalLockedByOwner(address)": {
        "notice": "- Getters for owner's data"
      },
      "lockHodl(uint256)": {
        "notice": "- Lock Function - Owner defines a time in days he wants he's funds to be locked from himself"
      },
      "modifyHodlBackup(uint256,address)": {
        "notice": "- Modify Backup Address"
      },
      "unlockHodl(uint256)": {
        "notice": "- Unlock Function - After this time the Hodl owner can withdraw"
      }
    },
    "notice": "This contract should be used to lock funds from yourself. There is no coming back after you lock your funds.",
    "version": 1
  }
}