{
  "contractName": "Dex",
  "abi": [
    {
      "inputs": [
        {
          "internalType": "address",
          "name": "token_addr",
          "type": "address"
        }
      ],
      "stateMutability": "nonpayable",
      "type": "constructor"
    },
    {
      "anonymous": false,
      "inputs": [
        {
          "indexed": false,
          "internalType": "uint256",
          "name": "amount",
          "type": "uint256"
        }
      ],
      "name": "Bought",
      "type": "event"
    },
    {
      "anonymous": false,
      "inputs": [
        {
          "indexed": false,
          "internalType": "uint256",
          "name": "amount",
          "type": "uint256"
        }
      ],
      "name": "Sold",
      "type": "event"
    },
    {
      "inputs": [
        {
          "internalType": "address",
          "name": "",
          "type": "address"
        }
      ],
      "name": "liquidity",
      "outputs": [
        {
          "internalType": "uint256",
          "name": "",
          "type": "uint256"
        }
      ],
      "stateMutability": "view",
      "type": "function",
      "constant": true
    },
    {
      "inputs": [],
      "name": "token",
      "outputs": [
        {
          "internalType": "contract IERC20",
          "name": "",
          "type": "address"
        }
      ],
      "stateMutability": "view",
      "type": "function",
      "constant": true
    },
    {
      "inputs": [],
      "name": "totalLiquidity",
      "outputs": [
        {
          "internalType": "uint256",
          "name": "",
          "type": "uint256"
        }
      ],
      "stateMutability": "view",
      "type": "function",
      "constant": true
    },
    {
      "inputs": [
        {
          "internalType": "uint256",
          "name": "tokens",
          "type": "uint256"
        }
      ],
      "name": "init",
      "outputs": [
        {
          "internalType": "uint256",
          "name": "",
          "type": "uint256"
        }
      ],
      "stateMutability": "payable",
      "type": "function",
      "payable": true
    },
    {
      "inputs": [
        {
          "internalType": "uint256",
          "name": "input_amount",
          "type": "uint256"
        },
        {
          "internalType": "uint256",
          "name": "input_reserve",
          "type": "uint256"
        },
        {
          "internalType": "uint256",
          "name": "output_reserve",
          "type": "uint256"
        }
      ],
      "name": "price",
      "outputs": [
        {
          "internalType": "uint256",
          "name": "",
          "type": "uint256"
        }
      ],
      "stateMutability": "view",
      "type": "function",
      "constant": true
    },
    {
      "inputs": [],
      "name": "ethToHodlToken",
      "outputs": [
        {
          "internalType": "uint256",
          "name": "",
          "type": "uint256"
        }
      ],
      "stateMutability": "payable",
      "type": "function",
      "payable": true
    },
    {
      "inputs": [
        {
          "internalType": "uint256",
          "name": "tokens",
          "type": "uint256"
        }
      ],
      "name": "hodlTokenToEth",
      "outputs": [
        {
          "internalType": "uint256",
          "name": "",
          "type": "uint256"
        }
      ],
      "stateMutability": "nonpayable",
      "type": "function"
    },
    {
      "inputs": [],
      "name": "deposit",
      "outputs": [
        {
          "internalType": "uint256",
          "name": "",
          "type": "uint256"
        }
      ],
      "stateMutability": "payable",
      "type": "function",
      "payable": true
    },
    {
      "inputs": [
        {
          "internalType": "uint256",
          "name": "amount",
          "type": "uint256"
        }
      ],
      "name": "withdraw",
      "outputs": [
        {
          "internalType": "uint256",
          "name": "",
          "type": "uint256"
        },
        {
          "internalType": "uint256",
          "name": "",
          "type": "uint256"
        }
      ],
      "stateMutability": "nonpayable",
      "type": "function"
    }
  ],
  "bytecode": "0x60806040523480156200001157600080fd5b50604051620012b4380380620012b4833981810160405281019062000037919062000095565b806000806101000a81548173ffffffffffffffffffffffffffffffffffffffff021916908373ffffffffffffffffffffffffffffffffffffffff160217905550506200010f565b6000815190506200008f81620000f5565b92915050565b600060208284031215620000a857600080fd5b6000620000b8848285016200007e565b91505092915050565b6000620000ce82620000d5565b9050919050565b600073ffffffffffffffffffffffffffffffffffffffff82169050919050565b6200010081620000c1565b81146200010c57600080fd5b50565b611195806200011f6000396000f3fe6080604052600436106100865760003560e01c80639e978969116100595780639e9789691461016e578063b7b0422d1461018c578063b8c876b1146101bc578063d0e30db0146101f9578063fc0c546a1461021757610086565b806315770f921461008b5780632071a9f4146100b65780632e1a7d4d146100f35780639477245114610131575b600080fd5b34801561009757600080fd5b506100a0610242565b6040516100ad9190610ee6565b60405180910390f35b3480156100c257600080fd5b506100dd60048036038101906100d89190610d74565b610248565b6040516100ea9190610ee6565b60405180910390f35b3480156100ff57600080fd5b5061011a60048036038101906101159190610d22565b6102a0565b604051610128929190610f01565b60405180910390f35b34801561013d57600080fd5b5061015860048036038101906101539190610d22565b610538565b6040516101659190610ee6565b60405180910390f35b6101766106fe565b6040516101839190610ee6565b60405180910390f35b6101a660048036038101906101a19190610d22565b610884565b6040516101b39190610ee6565b60405180910390f35b3480156101c857600080fd5b506101e360048036038101906101de9190610cd0565b6109d9565b6040516101f09190610ee6565b60405180910390f35b6102016109f1565b60405161020e9190610ee6565b60405180910390f35b34801561022357600080fd5b5061022c610c58565b6040516102399190610eab565b60405180910390f35b60015481565b6000806103e3856102599190610fc2565b9050600083826102699190610fc2565b90506000826103e88761027c9190610fc2565b6102869190610f3b565b905080826102949190610f91565b93505050509392505050565b60008060008060009054906101000a900473ffffffffffffffffffffffffffffffffffffffff1673ffffffffffffffffffffffffffffffffffffffff166370a08231306040518263ffffffff1660e01b81526004016102ff9190610e30565b60206040518083038186803b15801561031757600080fd5b505afa15801561032b573d6000803e3d6000fd5b505050506040513d601f19601f8201168201806040525081019061034f9190610d4b565b9050600060015447866103629190610fc2565b61036c9190610f91565b90506000600154838761037f9190610fc2565b6103899190610f91565b905081600260003373ffffffffffffffffffffffffffffffffffffffff1673ffffffffffffffffffffffffffffffffffffffff168152602001908152602001600020546103d6919061101c565b600260003373ffffffffffffffffffffffffffffffffffffffff1673ffffffffffffffffffffffffffffffffffffffff1681526020019081526020016000208190555081600154610427919061101c565b6001819055503373ffffffffffffffffffffffffffffffffffffffff166108fc839081150290604051600060405180830381858888f19350505050158015610473573d6000803e3d6000fd5b5060008054906101000a900473ffffffffffffffffffffffffffffffffffffffff1673ffffffffffffffffffffffffffffffffffffffff1663a9059cbb33836040518363ffffffff1660e01b81526004016104cf929190610e82565b602060405180830381600087803b1580156104e957600080fd5b505af11580156104fd573d6000803e3d6000fd5b505050506040513d601f19601f820116820180604052508101906105219190610cf9565b61052a57600080fd5b818194509450505050915091565b60008060008054906101000a900473ffffffffffffffffffffffffffffffffffffffff1673ffffffffffffffffffffffffffffffffffffffff166370a08231306040518263ffffffff1660e01b81526004016105949190610e30565b60206040518083038186803b1580156105ac57600080fd5b505afa1580156105c0573d6000803e3d6000fd5b505050506040513d601f19601f820116820180604052508101906105e49190610d4b565b905060006105f3848347610248565b90503373ffffffffffffffffffffffffffffffffffffffff166108fc829081150290604051600060405180830381858888f1935050505015801561063b573d6000803e3d6000fd5b5060008054906101000a900473ffffffffffffffffffffffffffffffffffffffff1673ffffffffffffffffffffffffffffffffffffffff166323b872dd3330876040518463ffffffff1660e01b815260040161069993929190610e4b565b602060405180830381600087803b1580156106b357600080fd5b505af11580156106c7573d6000803e3d6000fd5b505050506040513d601f19601f820116820180604052508101906106eb9190610cf9565b6106f457600080fd5b8092505050919050565b60008060008054906101000a900473ffffffffffffffffffffffffffffffffffffffff1673ffffffffffffffffffffffffffffffffffffffff166370a08231306040518263ffffffff1660e01b815260040161075a9190610e30565b60206040518083038186803b15801561077257600080fd5b505afa158015610786573d6000803e3d6000fd5b505050506040513d601f19601f820116820180604052508101906107aa9190610d4b565b905060006107c43434476107be919061101c565b84610248565b905060008054906101000a900473ffffffffffffffffffffffffffffffffffffffff1673ffffffffffffffffffffffffffffffffffffffff1663a9059cbb33836040518363ffffffff1660e01b8152600401610821929190610e82565b602060405180830381600087803b15801561083b57600080fd5b505af115801561084f573d6000803e3d6000fd5b505050506040513d601f19601f820116820180604052508101906108739190610cf9565b61087c57600080fd5b809250505090565b600080600154146108ca576040517f08c379a00000000000000000000000000000000000000000000000000000000081526004016108c190610ec6565b60405180910390fd5b47600181905550600154600260003373ffffffffffffffffffffffffffffffffffffffff1673ffffffffffffffffffffffffffffffffffffffff1681526020019081526020016000208190555060008054906101000a900473ffffffffffffffffffffffffffffffffffffffff1673ffffffffffffffffffffffffffffffffffffffff166323b872dd3330856040518463ffffffff1660e01b815260040161097493929190610e4b565b602060405180830381600087803b15801561098e57600080fd5b505af11580156109a2573d6000803e3d6000fd5b505050506040513d601f19601f820116820180604052508101906109c69190610cf9565b6109cf57600080fd5b6001549050919050565b60026020528060005260406000206000915090505481565b6000803447610a00919061101c565b905060008060009054906101000a900473ffffffffffffffffffffffffffffffffffffffff1673ffffffffffffffffffffffffffffffffffffffff166370a08231306040518263ffffffff1660e01b8152600401610a5e9190610e30565b60206040518083038186803b158015610a7657600080fd5b505afa158015610a8a573d6000803e3d6000fd5b505050506040513d601f19601f82011682018060405250810190610aae9190610d4b565b905060006001838334610ac19190610fc2565b610acb9190610f91565b610ad59190610f3b565b905060008360015434610ae89190610fc2565b610af29190610f91565b905080600260003373ffffffffffffffffffffffffffffffffffffffff1673ffffffffffffffffffffffffffffffffffffffff16815260200190815260200160002054610b3f9190610f3b565b600260003373ffffffffffffffffffffffffffffffffffffffff1673ffffffffffffffffffffffffffffffffffffffff1681526020019081526020016000208190555080600154610b909190610f3b565b60018190555060008054906101000a900473ffffffffffffffffffffffffffffffffffffffff1673ffffffffffffffffffffffffffffffffffffffff166323b872dd3330856040518463ffffffff1660e01b8152600401610bf393929190610e4b565b602060405180830381600087803b158015610c0d57600080fd5b505af1158015610c21573d6000803e3d6000fd5b505050506040513d601f19601f82011682018060405250810190610c459190610cf9565b610c4e57600080fd5b8094505050505090565b60008054906101000a900473ffffffffffffffffffffffffffffffffffffffff1681565b600081359050610c8b8161111a565b92915050565b600081519050610ca081611131565b92915050565b600081359050610cb581611148565b92915050565b600081519050610cca81611148565b92915050565b600060208284031215610ce257600080fd5b6000610cf084828501610c7c565b91505092915050565b600060208284031215610d0b57600080fd5b6000610d1984828501610c91565b91505092915050565b600060208284031215610d3457600080fd5b6000610d4284828501610ca6565b91505092915050565b600060208284031215610d5d57600080fd5b6000610d6b84828501610cbb565b91505092915050565b600080600060608486031215610d8957600080fd5b6000610d9786828701610ca6565b9350506020610da886828701610ca6565b9250506040610db986828701610ca6565b9150509250925092565b610dcc81611050565b82525050565b610ddb81611098565b82525050565b6000610dee601b83610f2a565b91507f444558202d20416c726561647920686173206c697175696469747900000000006000830152602082019050919050565b610e2a8161108e565b82525050565b6000602082019050610e456000830184610dc3565b92915050565b6000606082019050610e606000830186610dc3565b610e6d6020830185610dc3565b610e7a6040830184610e21565b949350505050565b6000604082019050610e976000830185610dc3565b610ea46020830184610e21565b9392505050565b6000602082019050610ec06000830184610dd2565b92915050565b60006020820190508181036000830152610edf81610de1565b9050919050565b6000602082019050610efb6000830184610e21565b92915050565b6000604082019050610f166000830185610e21565b610f236020830184610e21565b9392505050565b600082825260208201905092915050565b6000610f468261108e565b9150610f518361108e565b9250827fffffffffffffffffffffffffffffffffffffffffffffffffffffffffffffffff03821115610f8657610f856110bc565b5b828201905092915050565b6000610f9c8261108e565b9150610fa78361108e565b925082610fb757610fb66110eb565b5b828204905092915050565b6000610fcd8261108e565b9150610fd88361108e565b9250817fffffffffffffffffffffffffffffffffffffffffffffffffffffffffffffffff0483118215151615611011576110106110bc565b5b828202905092915050565b60006110278261108e565b91506110328361108e565b925082821015611045576110446110bc565b5b828203905092915050565b600061105b8261106e565b9050919050565b60008115159050919050565b600073ffffffffffffffffffffffffffffffffffffffff82169050919050565b6000819050919050565b60006110a3826110aa565b9050919050565b60006110b58261106e565b9050919050565b7f4e487b7100000000000000000000000000000000000000000000000000000000600052601160045260246000fd5b7f4e487b7100000000000000000000000000000000000000000000000000000000600052601260045260246000fd5b61112381611050565b811461112e57600080fd5b50565b61113a81611062565b811461114557600080fd5b50565b6111518161108e565b811461115c57600080fd5b5056fea264697066735822122085941f096d904f03850a544afa8a60a4608fd2d63b6f409ff25c67acc3faef3b64736f6c63430008000033",
  "immutableReferences": {},
  "source": "pragma solidity ^0.8.0;\n\nimport \"@openzeppelin/contracts/token/ERC20/IERC20.sol\";\nimport \"./HodlToken.sol\";\n\n/// @dev Hand-made Automated Market Maker for HodlToken/ETH pair\ncontract Dex {\n\n  event Bought(uint256 amount);\n  event Sold(uint256 amount);\n\n  IERC20 public token;\n\n  uint256 public totalLiquidity;\n  mapping (address => uint256) public liquidity;\n\n  constructor(address token_addr) public {\n    token = IERC20(token_addr);\n  }\n\n  /// @dev We're filling the reserve, initialising the Dex with the set Ratio\n  /// FInitial ratio 1:0.00001 Eth ($.024pt)\n  function init(uint256 tokens) public payable returns (uint256) {\n    require(totalLiquidity == 0, 'DEX - Already has liquidity');\n\n    totalLiquidity = address(this).balance;\n    liquidity[msg.sender] = totalLiquidity;\n\n    require(token.transferFrom(msg.sender, address(this), tokens));\n\n    return totalLiquidity;\n  }\n\n  /// @dev This function calculate the price based on the pool's reserve in both assets\n  /// .5% fee\n  /// To add .3% burn\n  /// Pool price will be calculated based on Constant Product Market Maker\n  function price(uint256 input_amount, uint256 input_reserve, uint256 output_reserve) public view returns (uint256) {\n    uint256 input_amount_with_fee = input_amount * 995;\n    uint256 numerator = input_amount_with_fee * output_reserve;\n    uint256 denominator = input_reserve * 1000 + input_amount_with_fee;\n    return numerator / denominator;\n  }\n\n  /// @dev\n  /// Add slippage -X%/+X%\n  function ethToHodlToken() public payable returns (uint256) {\n    uint256 token_reserve = token.balanceOf(address(this));\n    uint256 tokens_bought = price(msg.value, address(this).balance - msg.value, token_reserve);\n    require(token.transfer(msg.sender, tokens_bought));\n    return tokens_bought;\n  }\n\n  /// @dev\n  /// Add slippage -X%/+X%\n  /// Need to approve first\n  function hodlTokenToEth(uint256 tokens) public returns (uint256) {\n    uint256 token_reserve = token.balanceOf(address(this));\n    uint256 eth_bought = price(tokens, token_reserve, address(this).balance);\n    payable(msg.sender).transfer(eth_bought);\n    require(token.transferFrom(msg.sender, address(this), tokens));\n    return eth_bought;\n  }\n\n  /// @dev function to deposit to the pool (must be matching ratio!)\n  /// Ratio 1 : 0.00001\n  /// Ratio to edit here -> L73!\n  function deposit() public payable returns (uint256) {\n    uint256 eth_reserve = address(this).balance - msg.value;\n    uint256 token_reserve = token.balanceOf(address(this));\n    uint256 token_amount = (msg.value * token_reserve / eth_reserve) + 1;\n    uint256 liquidity_minted = msg.value * totalLiquidity / eth_reserve;\n    liquidity[msg.sender] = liquidity[msg.sender] + liquidity_minted;\n    totalLiquidity = totalLiquidity + liquidity_minted;\n    require(token.transferFrom(msg.sender, address(this), token_amount));\n    return liquidity_minted;\n  }\n\n  function withdraw(uint256 amount) public returns (uint256, uint256) {\n    uint256 token_reserve = token.balanceOf(address(this));\n    uint256 eth_amount = amount * address(this).balance / totalLiquidity;\n    uint256 token_amount = amount * token_reserve / totalLiquidity;\n    liquidity[msg.sender] = liquidity[msg.sender] - eth_amount;\n    totalLiquidity = totalLiquidity - eth_amount;\n    payable(msg.sender).transfer(eth_amount);\n    require(token.transfer(msg.sender, token_amount));\n    return (eth_amount, token_amount);\n  }\n}\n",
  "sourcePath": "/Users/guillaumedesa/Documents/eth/hodler-react/contracts/Dex.sol",
  "compiler": {
    "name": "solc",
    "version": "0.8.0+commit.c7dfd78e.Emscripten.clang"
  },
  "schemaVersion": "3.3.4",
  "updatedAt": "2021-06-23T09:09:31.199Z",
  "networkType": "ethereum",
  "devdoc": {
    "details": "Hand-made Automated Market Maker for HodlToken/ETH pair",
    "kind": "dev",
    "methods": {
      "deposit()": {
        "details": "function to deposit to the pool (must be matching ratio!) Ratio 1 : 0.00001 Ratio to edit here -> L73!"
      },
      "ethToHodlToken()": {
        "details": "Add slippage -X%/+X%"
      },
      "hodlTokenToEth(uint256)": {
        "details": "Add slippage -X%/+X% Need to approve first"
      },
      "init(uint256)": {
        "details": "We're filling the reserve, initialising the Dex with the set Ratio FInitial ratio 1:0.00001 Eth ($.024pt)"
      },
      "price(uint256,uint256,uint256)": {
        "details": "This function calculate the price based on the pool's reserve in both assets .5% fee To add .3% burn Pool price will be calculated based on Constant Product Market Maker"
      }
    },
    "version": 1
  },
  "userdoc": {
    "kind": "user",
    "methods": {},
    "version": 1
  }
}