{
  "contractName": "Dex",
  "abi": [
    {
      "inputs": [
        {
          "internalType": "address",
          "name": "token_addr",
          "type": "address"
        }
      ],
      "stateMutability": "nonpayable",
      "type": "constructor"
    },
    {
      "anonymous": false,
      "inputs": [
        {
          "indexed": false,
          "internalType": "uint256",
          "name": "amount",
          "type": "uint256"
        }
      ],
      "name": "Bought",
      "type": "event"
    },
    {
      "anonymous": false,
      "inputs": [
        {
          "indexed": false,
          "internalType": "uint256",
          "name": "amount",
          "type": "uint256"
        }
      ],
      "name": "Sold",
      "type": "event"
    },
    {
      "inputs": [
        {
          "internalType": "address",
          "name": "",
          "type": "address"
        }
      ],
      "name": "liquidity",
      "outputs": [
        {
          "internalType": "uint256",
          "name": "",
          "type": "uint256"
        }
      ],
      "stateMutability": "view",
      "type": "function"
    },
    {
      "inputs": [],
      "name": "token",
      "outputs": [
        {
          "internalType": "contract IERC20",
          "name": "",
          "type": "address"
        }
      ],
      "stateMutability": "view",
      "type": "function"
    },
    {
      "inputs": [],
      "name": "totalLiquidity",
      "outputs": [
        {
          "internalType": "uint256",
          "name": "",
          "type": "uint256"
        }
      ],
      "stateMutability": "view",
      "type": "function"
    },
    {
      "inputs": [
        {
          "internalType": "uint256",
          "name": "tokens",
          "type": "uint256"
        }
      ],
      "name": "init",
      "outputs": [
        {
          "internalType": "uint256",
          "name": "",
          "type": "uint256"
        }
      ],
      "stateMutability": "payable",
      "type": "function"
    },
    {
      "inputs": [
        {
          "internalType": "uint256",
          "name": "input_amount",
          "type": "uint256"
        },
        {
          "internalType": "uint256",
          "name": "input_reserve",
          "type": "uint256"
        },
        {
          "internalType": "uint256",
          "name": "output_reserve",
          "type": "uint256"
        }
      ],
      "name": "price",
      "outputs": [
        {
          "internalType": "uint256",
          "name": "",
          "type": "uint256"
        }
      ],
      "stateMutability": "view",
      "type": "function"
    },
    {
      "inputs": [],
      "name": "ethToHodlToken",
      "outputs": [
        {
          "internalType": "uint256",
          "name": "",
          "type": "uint256"
        }
      ],
      "stateMutability": "payable",
      "type": "function"
    },
    {
      "inputs": [
        {
          "internalType": "uint256",
          "name": "tokens",
          "type": "uint256"
        }
      ],
      "name": "hodlTokenToEth",
      "outputs": [
        {
          "internalType": "uint256",
          "name": "",
          "type": "uint256"
        }
      ],
      "stateMutability": "nonpayable",
      "type": "function"
    },
    {
      "inputs": [],
      "name": "deposit",
      "outputs": [
        {
          "internalType": "uint256",
          "name": "",
          "type": "uint256"
        }
      ],
      "stateMutability": "payable",
      "type": "function"
    },
    {
      "inputs": [
        {
          "internalType": "uint256",
          "name": "amount",
          "type": "uint256"
        }
      ],
      "name": "withdraw",
      "outputs": [
        {
          "internalType": "uint256",
          "name": "",
          "type": "uint256"
        },
        {
          "internalType": "uint256",
          "name": "",
          "type": "uint256"
        }
      ],
      "stateMutability": "nonpayable",
      "type": "function"
    },
    {
      "inputs": [
        {
          "internalType": "uint256",
          "name": "amount",
          "type": "uint256"
        }
      ],
      "name": "withdrawCalc",
      "outputs": [
        {
          "internalType": "uint256",
          "name": "",
          "type": "uint256"
        },
        {
          "internalType": "uint256",
          "name": "",
          "type": "uint256"
        }
      ],
      "stateMutability": "view",
      "type": "function"
    }
  ],
  "bytecode": "0x60806040523480156200001157600080fd5b50604051620013f6380380620013f6833981810160405281019062000037919062000095565b806000806101000a81548173ffffffffffffffffffffffffffffffffffffffff021916908373ffffffffffffffffffffffffffffffffffffffff160217905550506200010f565b6000815190506200008f81620000f5565b92915050565b600060208284031215620000a857600080fd5b6000620000b8848285016200007e565b91505092915050565b6000620000ce82620000d5565b9050919050565b600073ffffffffffffffffffffffffffffffffffffffff82169050919050565b6200010081620000c1565b81146200010c57600080fd5b50565b6112d7806200011f6000396000f3fe6080604052600436106100915760003560e01c80639e978969116100595780639e978969146101b7578063b7b0422d146101d5578063b8c876b114610205578063d0e30db014610242578063fc0c546a1461026057610091565b806315770f92146100965780632071a9f4146100c15780632e1a7d4d146100fe57806343c670cd1461013c578063947724511461017a575b600080fd5b3480156100a257600080fd5b506100ab61028b565b6040516100b89190611028565b60405180910390f35b3480156100cd57600080fd5b506100e860048036038101906100e39190610eb6565b610291565b6040516100f59190611028565b60405180910390f35b34801561010a57600080fd5b5061012560048036038101906101209190610e64565b6102e9565b604051610133929190611043565b60405180910390f35b34801561014857600080fd5b50610163600480360381019061015e9190610e64565b610581565b604051610171929190611043565b60405180910390f35b34801561018657600080fd5b506101a1600480360381019061019c9190610e64565b61067a565b6040516101ae9190611028565b60405180910390f35b6101bf610840565b6040516101cc9190611028565b60405180910390f35b6101ef60048036038101906101ea9190610e64565b6109c6565b6040516101fc9190611028565b60405180910390f35b34801561021157600080fd5b5061022c60048036038101906102279190610e12565b610b1b565b6040516102399190611028565b60405180910390f35b61024a610b33565b6040516102579190611028565b60405180910390f35b34801561026c57600080fd5b50610275610d9a565b6040516102829190610fed565b60405180910390f35b60015481565b6000806103e3856102a29190611104565b9050600083826102b29190611104565b90506000826103e8876102c59190611104565b6102cf919061107d565b905080826102dd91906110d3565b93505050509392505050565b60008060008060009054906101000a900473ffffffffffffffffffffffffffffffffffffffff1673ffffffffffffffffffffffffffffffffffffffff166370a08231306040518263ffffffff1660e01b81526004016103489190610f72565b60206040518083038186803b15801561036057600080fd5b505afa158015610374573d6000803e3d6000fd5b505050506040513d601f19601f820116820180604052508101906103989190610e8d565b9050600060015447866103ab9190611104565b6103b591906110d3565b9050600060015483876103c89190611104565b6103d291906110d3565b905081600260003373ffffffffffffffffffffffffffffffffffffffff1673ffffffffffffffffffffffffffffffffffffffff1681526020019081526020016000205461041f919061115e565b600260003373ffffffffffffffffffffffffffffffffffffffff1673ffffffffffffffffffffffffffffffffffffffff1681526020019081526020016000208190555081600154610470919061115e565b6001819055503373ffffffffffffffffffffffffffffffffffffffff166108fc839081150290604051600060405180830381858888f193505050501580156104bc573d6000803e3d6000fd5b5060008054906101000a900473ffffffffffffffffffffffffffffffffffffffff1673ffffffffffffffffffffffffffffffffffffffff1663a9059cbb33836040518363ffffffff1660e01b8152600401610518929190610fc4565b602060405180830381600087803b15801561053257600080fd5b505af1158015610546573d6000803e3d6000fd5b505050506040513d601f19601f8201168201806040525081019061056a9190610e3b565b61057357600080fd5b818194509450505050915091565b60008060008060009054906101000a900473ffffffffffffffffffffffffffffffffffffffff1673ffffffffffffffffffffffffffffffffffffffff166370a08231306040518263ffffffff1660e01b81526004016105e09190610f72565b60206040518083038186803b1580156105f857600080fd5b505afa15801561060c573d6000803e3d6000fd5b505050506040513d601f19601f820116820180604052508101906106309190610e8d565b9050600060015447866106439190611104565b61064d91906110d3565b9050600060015483876106609190611104565b61066a91906110d3565b9050818194509450505050915091565b60008060008054906101000a900473ffffffffffffffffffffffffffffffffffffffff1673ffffffffffffffffffffffffffffffffffffffff166370a08231306040518263ffffffff1660e01b81526004016106d69190610f72565b60206040518083038186803b1580156106ee57600080fd5b505afa158015610702573d6000803e3d6000fd5b505050506040513d601f19601f820116820180604052508101906107269190610e8d565b90506000610735848347610291565b90503373ffffffffffffffffffffffffffffffffffffffff166108fc829081150290604051600060405180830381858888f1935050505015801561077d573d6000803e3d6000fd5b5060008054906101000a900473ffffffffffffffffffffffffffffffffffffffff1673ffffffffffffffffffffffffffffffffffffffff166323b872dd3330876040518463ffffffff1660e01b81526004016107db93929190610f8d565b602060405180830381600087803b1580156107f557600080fd5b505af1158015610809573d6000803e3d6000fd5b505050506040513d601f19601f8201168201806040525081019061082d9190610e3b565b61083657600080fd5b8092505050919050565b60008060008054906101000a900473ffffffffffffffffffffffffffffffffffffffff1673ffffffffffffffffffffffffffffffffffffffff166370a08231306040518263ffffffff1660e01b815260040161089c9190610f72565b60206040518083038186803b1580156108b457600080fd5b505afa1580156108c8573d6000803e3d6000fd5b505050506040513d601f19601f820116820180604052508101906108ec9190610e8d565b90506000610906343447610900919061115e565b84610291565b905060008054906101000a900473ffffffffffffffffffffffffffffffffffffffff1673ffffffffffffffffffffffffffffffffffffffff1663a9059cbb33836040518363ffffffff1660e01b8152600401610963929190610fc4565b602060405180830381600087803b15801561097d57600080fd5b505af1158015610991573d6000803e3d6000fd5b505050506040513d601f19601f820116820180604052508101906109b59190610e3b565b6109be57600080fd5b809250505090565b60008060015414610a0c576040517f08c379a0000000000000000000000000000000000000000000000000000000008152600401610a0390611008565b60405180910390fd5b47600181905550600154600260003373ffffffffffffffffffffffffffffffffffffffff1673ffffffffffffffffffffffffffffffffffffffff1681526020019081526020016000208190555060008054906101000a900473ffffffffffffffffffffffffffffffffffffffff1673ffffffffffffffffffffffffffffffffffffffff166323b872dd3330856040518463ffffffff1660e01b8152600401610ab693929190610f8d565b602060405180830381600087803b158015610ad057600080fd5b505af1158015610ae4573d6000803e3d6000fd5b505050506040513d601f19601f82011682018060405250810190610b089190610e3b565b610b1157600080fd5b6001549050919050565b60026020528060005260406000206000915090505481565b6000803447610b42919061115e565b905060008060009054906101000a900473ffffffffffffffffffffffffffffffffffffffff1673ffffffffffffffffffffffffffffffffffffffff166370a08231306040518263ffffffff1660e01b8152600401610ba09190610f72565b60206040518083038186803b158015610bb857600080fd5b505afa158015610bcc573d6000803e3d6000fd5b505050506040513d601f19601f82011682018060405250810190610bf09190610e8d565b905060006001838334610c039190611104565b610c0d91906110d3565b610c17919061107d565b905060008360015434610c2a9190611104565b610c3491906110d3565b905080600260003373ffffffffffffffffffffffffffffffffffffffff1673ffffffffffffffffffffffffffffffffffffffff16815260200190815260200160002054610c81919061107d565b600260003373ffffffffffffffffffffffffffffffffffffffff1673ffffffffffffffffffffffffffffffffffffffff1681526020019081526020016000208190555080600154610cd2919061107d565b60018190555060008054906101000a900473ffffffffffffffffffffffffffffffffffffffff1673ffffffffffffffffffffffffffffffffffffffff166323b872dd3330856040518463ffffffff1660e01b8152600401610d3593929190610f8d565b602060405180830381600087803b158015610d4f57600080fd5b505af1158015610d63573d6000803e3d6000fd5b505050506040513d601f19601f82011682018060405250810190610d879190610e3b565b610d9057600080fd5b8094505050505090565b60008054906101000a900473ffffffffffffffffffffffffffffffffffffffff1681565b600081359050610dcd8161125c565b92915050565b600081519050610de281611273565b92915050565b600081359050610df78161128a565b92915050565b600081519050610e0c8161128a565b92915050565b600060208284031215610e2457600080fd5b6000610e3284828501610dbe565b91505092915050565b600060208284031215610e4d57600080fd5b6000610e5b84828501610dd3565b91505092915050565b600060208284031215610e7657600080fd5b6000610e8484828501610de8565b91505092915050565b600060208284031215610e9f57600080fd5b6000610ead84828501610dfd565b91505092915050565b600080600060608486031215610ecb57600080fd5b6000610ed986828701610de8565b9350506020610eea86828701610de8565b9250506040610efb86828701610de8565b9150509250925092565b610f0e81611192565b82525050565b610f1d816111da565b82525050565b6000610f30601b8361106c565b91507f444558202d20416c726561647920686173206c697175696469747900000000006000830152602082019050919050565b610f6c816111d0565b82525050565b6000602082019050610f876000830184610f05565b92915050565b6000606082019050610fa26000830186610f05565b610faf6020830185610f05565b610fbc6040830184610f63565b949350505050565b6000604082019050610fd96000830185610f05565b610fe66020830184610f63565b9392505050565b60006020820190506110026000830184610f14565b92915050565b6000602082019050818103600083015261102181610f23565b9050919050565b600060208201905061103d6000830184610f63565b92915050565b60006040820190506110586000830185610f63565b6110656020830184610f63565b9392505050565b600082825260208201905092915050565b6000611088826111d0565b9150611093836111d0565b9250827fffffffffffffffffffffffffffffffffffffffffffffffffffffffffffffffff038211156110c8576110c76111fe565b5b828201905092915050565b60006110de826111d0565b91506110e9836111d0565b9250826110f9576110f861122d565b5b828204905092915050565b600061110f826111d0565b915061111a836111d0565b9250817fffffffffffffffffffffffffffffffffffffffffffffffffffffffffffffffff0483118215151615611153576111526111fe565b5b828202905092915050565b6000611169826111d0565b9150611174836111d0565b925082821015611187576111866111fe565b5b828203905092915050565b600061119d826111b0565b9050919050565b60008115159050919050565b600073ffffffffffffffffffffffffffffffffffffffff82169050919050565b6000819050919050565b60006111e5826111ec565b9050919050565b60006111f7826111b0565b9050919050565b7f4e487b7100000000000000000000000000000000000000000000000000000000600052601160045260246000fd5b7f4e487b7100000000000000000000000000000000000000000000000000000000600052601260045260246000fd5b61126581611192565b811461127057600080fd5b50565b61127c816111a4565b811461128757600080fd5b50565b611293816111d0565b811461129e57600080fd5b5056fea2646970667358221220d345215a613fac461d9fff0fd5a25adbcb470b2fc184bc9ec82b684f5e079ab064736f6c63430008000033",
  "immutableReferences": {},
  "source": "pragma solidity ^0.8.0;\n\nimport \"@openzeppelin/contracts/token/ERC20/IERC20.sol\";\nimport \"./HodlToken.sol\";\n\n/// @dev Hand-made Automated Market Maker for HodlToken/ETH pair\ncontract Dex {\n\n  event Bought(uint256 amount);\n  event Sold(uint256 amount);\n\n  IERC20 public token;\n\n  uint256 public totalLiquidity;\n  mapping (address => uint256) public liquidity;\n\n  constructor(address token_addr) public {\n    token = IERC20(token_addr);\n  }\n\n  /// @dev We're filling the reserve, initialising the Dex with the set Ratio\n  /// FInitial ratio 1:0.00001 Eth ($.024pt)\n  function init(uint256 tokens) public payable returns (uint256) {\n    require(totalLiquidity == 0, 'DEX - Already has liquidity');\n\n    totalLiquidity = address(this).balance;\n    liquidity[msg.sender] = totalLiquidity;\n\n    require(token.transferFrom(msg.sender, address(this), tokens));\n\n    return totalLiquidity;\n  }\n\n  /// @dev This function calculate the price based on the pool's reserve in both assets\n  /// .5% fee\n  /// To add .3% burn\n  /// Pool price will be calculated based on Constant Product Market Maker\n  function price(uint256 input_amount, uint256 input_reserve, uint256 output_reserve) public view returns (uint256) {\n    uint256 input_amount_with_fee = input_amount * 995;\n    uint256 numerator = input_amount_with_fee * output_reserve;\n    uint256 denominator = input_reserve * 1000 + input_amount_with_fee;\n    return numerator / denominator;\n  }\n\n  /// @dev\n  /// Add slippage -X%/+X%\n  function ethToHodlToken() public payable returns (uint256) {\n    uint256 token_reserve = token.balanceOf(address(this));\n    uint256 tokens_bought = price(msg.value, address(this).balance - msg.value, token_reserve);\n    require(token.transfer(msg.sender, tokens_bought));\n    return tokens_bought;\n  }\n\n  /// @dev\n  /// Add slippage -X%/+X%\n  /// Need to approve first\n  function hodlTokenToEth(uint256 tokens) public returns (uint256) {\n    uint256 token_reserve = token.balanceOf(address(this));\n    uint256 eth_bought = price(tokens, token_reserve, address(this).balance);\n    payable(msg.sender).transfer(eth_bought);\n    require(token.transferFrom(msg.sender, address(this), tokens));\n    return eth_bought;\n  }\n\n  /// @dev function to deposit to the pool\n  function deposit() public payable returns (uint256) {\n    uint256 eth_reserve = address(this).balance - msg.value;\n    uint256 token_reserve = token.balanceOf(address(this));\n    uint256 token_amount = (msg.value * token_reserve / eth_reserve) + 1;\n    uint256 liquidity_minted = msg.value * totalLiquidity / eth_reserve;\n    liquidity[msg.sender] = liquidity[msg.sender] + liquidity_minted;\n    totalLiquidity = totalLiquidity + liquidity_minted;\n    require(token.transferFrom(msg.sender, address(this), token_amount));\n    return liquidity_minted;\n  }\n\n  function withdraw(uint256 amount) public returns (uint256, uint256) {\n    uint256 token_reserve = token.balanceOf(address(this));\n    uint256 eth_amount = amount * address(this).balance / totalLiquidity;\n    uint256 token_amount = amount * token_reserve / totalLiquidity;\n    liquidity[msg.sender] = liquidity[msg.sender] - eth_amount;\n    totalLiquidity = totalLiquidity - eth_amount;\n    payable(msg.sender).transfer(eth_amount);\n    require(token.transfer(msg.sender, token_amount));\n    return (eth_amount, token_amount);\n  }\n\n  function withdrawCalc(uint256 amount) public view returns (uint256, uint256) {\n    uint256 token_reserve = token.balanceOf(address(this));\n    uint256 eth_amount = amount * address(this).balance / totalLiquidity;\n    uint256 token_amount = amount * token_reserve / totalLiquidity;\n    return (eth_amount, token_amount);\n  }\n}\n",
  "sourcePath": "/Users/guillaumedesa/Documents/eth/hodler-react/contracts/Dex.sol",
  "compiler": {
    "name": "solc",
    "version": "0.8.0+commit.c7dfd78e.Emscripten.clang"
  },
  "schemaVersion": "3.3.4",
  "updatedAt": "2021-06-24T12:40:31.075Z",
  "devdoc": {
    "details": "Hand-made Automated Market Maker for HodlToken/ETH pair",
    "kind": "dev",
    "methods": {
      "deposit()": {
        "details": "function to deposit to the pool"
      },
      "ethToHodlToken()": {
        "details": "Add slippage -X%/+X%"
      },
      "hodlTokenToEth(uint256)": {
        "details": "Add slippage -X%/+X% Need to approve first"
      },
      "init(uint256)": {
        "details": "We're filling the reserve, initialising the Dex with the set Ratio FInitial ratio 1:0.00001 Eth ($.024pt)"
      },
      "price(uint256,uint256,uint256)": {
        "details": "This function calculate the price based on the pool's reserve in both assets .5% fee To add .3% burn Pool price will be calculated based on Constant Product Market Maker"
      }
    },
    "version": 1
  },
  "userdoc": {
    "kind": "user",
    "methods": {},
    "version": 1
  }
}