{
  "contractName": "Hodler",
  "abi": [
    {
      "anonymous": false,
      "inputs": [
        {
          "indexed": true,
          "internalType": "address",
          "name": "owner",
          "type": "address"
        },
        {
          "indexed": true,
          "internalType": "address",
          "name": "spender",
          "type": "address"
        },
        {
          "indexed": false,
          "internalType": "uint256",
          "name": "value",
          "type": "uint256"
        }
      ],
      "name": "Approval",
      "type": "event"
    },
    {
      "anonymous": false,
      "inputs": [
        {
          "indexed": false,
          "internalType": "uint256",
          "name": "hodlId",
          "type": "uint256"
        },
        {
          "indexed": true,
          "internalType": "address",
          "name": "owner",
          "type": "address"
        },
        {
          "indexed": false,
          "internalType": "uint256",
          "name": "amount",
          "type": "uint256"
        },
        {
          "indexed": false,
          "internalType": "uint256",
          "name": "timelocked",
          "type": "uint256"
        },
        {
          "indexed": false,
          "internalType": "uint256",
          "name": "closedAt",
          "type": "uint256"
        }
      ],
      "name": "ClosedHodl",
      "type": "event"
    },
    {
      "anonymous": false,
      "inputs": [
        {
          "indexed": false,
          "internalType": "uint256",
          "name": "hodlId",
          "type": "uint256"
        },
        {
          "indexed": true,
          "internalType": "address",
          "name": "owner",
          "type": "address"
        },
        {
          "indexed": false,
          "internalType": "uint256",
          "name": "amount",
          "type": "uint256"
        },
        {
          "indexed": false,
          "internalType": "uint256",
          "name": "timelocked",
          "type": "uint256"
        },
        {
          "indexed": false,
          "internalType": "uint256",
          "name": "createdAt",
          "type": "uint256"
        }
      ],
      "name": "NewHodl",
      "type": "event"
    },
    {
      "anonymous": false,
      "inputs": [
        {
          "indexed": true,
          "internalType": "bytes32",
          "name": "role",
          "type": "bytes32"
        },
        {
          "indexed": true,
          "internalType": "bytes32",
          "name": "previousAdminRole",
          "type": "bytes32"
        },
        {
          "indexed": true,
          "internalType": "bytes32",
          "name": "newAdminRole",
          "type": "bytes32"
        }
      ],
      "name": "RoleAdminChanged",
      "type": "event"
    },
    {
      "anonymous": false,
      "inputs": [
        {
          "indexed": true,
          "internalType": "bytes32",
          "name": "role",
          "type": "bytes32"
        },
        {
          "indexed": true,
          "internalType": "address",
          "name": "account",
          "type": "address"
        },
        {
          "indexed": true,
          "internalType": "address",
          "name": "sender",
          "type": "address"
        }
      ],
      "name": "RoleGranted",
      "type": "event"
    },
    {
      "anonymous": false,
      "inputs": [
        {
          "indexed": true,
          "internalType": "bytes32",
          "name": "role",
          "type": "bytes32"
        },
        {
          "indexed": true,
          "internalType": "address",
          "name": "account",
          "type": "address"
        },
        {
          "indexed": true,
          "internalType": "address",
          "name": "sender",
          "type": "address"
        }
      ],
      "name": "RoleRevoked",
      "type": "event"
    },
    {
      "anonymous": false,
      "inputs": [
        {
          "indexed": true,
          "internalType": "address",
          "name": "from",
          "type": "address"
        },
        {
          "indexed": true,
          "internalType": "address",
          "name": "to",
          "type": "address"
        },
        {
          "indexed": false,
          "internalType": "uint256",
          "name": "value",
          "type": "uint256"
        }
      ],
      "name": "Transfer",
      "type": "event"
    },
    {
      "inputs": [],
      "name": "DEFAULT_ADMIN_ROLE",
      "outputs": [
        {
          "internalType": "bytes32",
          "name": "",
          "type": "bytes32"
        }
      ],
      "stateMutability": "view",
      "type": "function",
      "constant": true
    },
    {
      "inputs": [
        {
          "internalType": "address",
          "name": "owner",
          "type": "address"
        },
        {
          "internalType": "address",
          "name": "spender",
          "type": "address"
        }
      ],
      "name": "allowance",
      "outputs": [
        {
          "internalType": "uint256",
          "name": "",
          "type": "uint256"
        }
      ],
      "stateMutability": "view",
      "type": "function",
      "constant": true
    },
    {
      "inputs": [
        {
          "internalType": "address",
          "name": "spender",
          "type": "address"
        },
        {
          "internalType": "uint256",
          "name": "amount",
          "type": "uint256"
        }
      ],
      "name": "approve",
      "outputs": [
        {
          "internalType": "bool",
          "name": "",
          "type": "bool"
        }
      ],
      "stateMutability": "nonpayable",
      "type": "function"
    },
    {
      "inputs": [
        {
          "internalType": "address",
          "name": "account",
          "type": "address"
        }
      ],
      "name": "balanceOf",
      "outputs": [
        {
          "internalType": "uint256",
          "name": "",
          "type": "uint256"
        }
      ],
      "stateMutability": "view",
      "type": "function",
      "constant": true
    },
    {
      "inputs": [],
      "name": "decimals",
      "outputs": [
        {
          "internalType": "uint8",
          "name": "",
          "type": "uint8"
        }
      ],
      "stateMutability": "view",
      "type": "function",
      "constant": true
    },
    {
      "inputs": [
        {
          "internalType": "address",
          "name": "spender",
          "type": "address"
        },
        {
          "internalType": "uint256",
          "name": "subtractedValue",
          "type": "uint256"
        }
      ],
      "name": "decreaseAllowance",
      "outputs": [
        {
          "internalType": "bool",
          "name": "",
          "type": "bool"
        }
      ],
      "stateMutability": "nonpayable",
      "type": "function"
    },
    {
      "inputs": [
        {
          "internalType": "bytes32",
          "name": "role",
          "type": "bytes32"
        }
      ],
      "name": "getRoleAdmin",
      "outputs": [
        {
          "internalType": "bytes32",
          "name": "",
          "type": "bytes32"
        }
      ],
      "stateMutability": "view",
      "type": "function",
      "constant": true
    },
    {
      "inputs": [
        {
          "internalType": "bytes32",
          "name": "role",
          "type": "bytes32"
        },
        {
          "internalType": "address",
          "name": "account",
          "type": "address"
        }
      ],
      "name": "grantRole",
      "outputs": [],
      "stateMutability": "nonpayable",
      "type": "function"
    },
    {
      "inputs": [
        {
          "internalType": "bytes32",
          "name": "role",
          "type": "bytes32"
        },
        {
          "internalType": "address",
          "name": "account",
          "type": "address"
        }
      ],
      "name": "hasRole",
      "outputs": [
        {
          "internalType": "bool",
          "name": "",
          "type": "bool"
        }
      ],
      "stateMutability": "view",
      "type": "function",
      "constant": true
    },
    {
      "inputs": [
        {
          "internalType": "uint256",
          "name": "",
          "type": "uint256"
        }
      ],
      "name": "hodlToOwner",
      "outputs": [
        {
          "internalType": "address",
          "name": "",
          "type": "address"
        }
      ],
      "stateMutability": "view",
      "type": "function",
      "constant": true
    },
    {
      "inputs": [
        {
          "internalType": "uint256",
          "name": "",
          "type": "uint256"
        }
      ],
      "name": "hodls",
      "outputs": [
        {
          "internalType": "address",
          "name": "owner",
          "type": "address"
        },
        {
          "internalType": "address",
          "name": "otherOwner",
          "type": "address"
        },
        {
          "internalType": "uint256",
          "name": "amount",
          "type": "uint256"
        },
        {
          "internalType": "uint256",
          "name": "timelocked",
          "type": "uint256"
        },
        {
          "internalType": "uint256",
          "name": "createdAt",
          "type": "uint256"
        },
        {
          "internalType": "bool",
          "name": "closed",
          "type": "bool"
        }
      ],
      "stateMutability": "view",
      "type": "function",
      "constant": true
    },
    {
      "inputs": [
        {
          "internalType": "address",
          "name": "spender",
          "type": "address"
        },
        {
          "internalType": "uint256",
          "name": "addedValue",
          "type": "uint256"
        }
      ],
      "name": "increaseAllowance",
      "outputs": [
        {
          "internalType": "bool",
          "name": "",
          "type": "bool"
        }
      ],
      "stateMutability": "nonpayable",
      "type": "function"
    },
    {
      "inputs": [],
      "name": "name",
      "outputs": [
        {
          "internalType": "string",
          "name": "",
          "type": "string"
        }
      ],
      "stateMutability": "view",
      "type": "function",
      "constant": true
    },
    {
      "inputs": [
        {
          "internalType": "address",
          "name": "to",
          "type": "address"
        },
        {
          "internalType": "uint256",
          "name": "amount",
          "type": "uint256"
        }
      ],
      "name": "publicMint",
      "outputs": [],
      "stateMutability": "nonpayable",
      "type": "function"
    },
    {
      "inputs": [
        {
          "internalType": "bytes32",
          "name": "role",
          "type": "bytes32"
        },
        {
          "internalType": "address",
          "name": "account",
          "type": "address"
        }
      ],
      "name": "renounceRole",
      "outputs": [],
      "stateMutability": "nonpayable",
      "type": "function"
    },
    {
      "inputs": [
        {
          "internalType": "bytes32",
          "name": "role",
          "type": "bytes32"
        },
        {
          "internalType": "address",
          "name": "account",
          "type": "address"
        }
      ],
      "name": "revokeRole",
      "outputs": [],
      "stateMutability": "nonpayable",
      "type": "function"
    },
    {
      "inputs": [
        {
          "internalType": "bytes4",
          "name": "interfaceId",
          "type": "bytes4"
        }
      ],
      "name": "supportsInterface",
      "outputs": [
        {
          "internalType": "bool",
          "name": "",
          "type": "bool"
        }
      ],
      "stateMutability": "view",
      "type": "function",
      "constant": true
    },
    {
      "inputs": [],
      "name": "symbol",
      "outputs": [
        {
          "internalType": "string",
          "name": "",
          "type": "string"
        }
      ],
      "stateMutability": "view",
      "type": "function",
      "constant": true
    },
    {
      "inputs": [],
      "name": "totalLocked",
      "outputs": [
        {
          "internalType": "uint256",
          "name": "",
          "type": "uint256"
        }
      ],
      "stateMutability": "view",
      "type": "function",
      "constant": true
    },
    {
      "inputs": [],
      "name": "totalSupply",
      "outputs": [
        {
          "internalType": "uint256",
          "name": "",
          "type": "uint256"
        }
      ],
      "stateMutability": "view",
      "type": "function",
      "constant": true
    },
    {
      "inputs": [],
      "name": "totalUnlocked",
      "outputs": [
        {
          "internalType": "uint256",
          "name": "",
          "type": "uint256"
        }
      ],
      "stateMutability": "view",
      "type": "function",
      "constant": true
    },
    {
      "inputs": [
        {
          "internalType": "address",
          "name": "recipient",
          "type": "address"
        },
        {
          "internalType": "uint256",
          "name": "amount",
          "type": "uint256"
        }
      ],
      "name": "transfer",
      "outputs": [
        {
          "internalType": "bool",
          "name": "",
          "type": "bool"
        }
      ],
      "stateMutability": "nonpayable",
      "type": "function"
    },
    {
      "inputs": [
        {
          "internalType": "address",
          "name": "sender",
          "type": "address"
        },
        {
          "internalType": "address",
          "name": "recipient",
          "type": "address"
        },
        {
          "internalType": "uint256",
          "name": "amount",
          "type": "uint256"
        }
      ],
      "name": "transferFrom",
      "outputs": [
        {
          "internalType": "bool",
          "name": "",
          "type": "bool"
        }
      ],
      "stateMutability": "nonpayable",
      "type": "function"
    },
    {
      "inputs": [
        {
          "internalType": "uint256",
          "name": "timelocked",
          "type": "uint256"
        }
      ],
      "name": "lockHodl",
      "outputs": [],
      "stateMutability": "payable",
      "type": "function",
      "payable": true
    },
    {
      "inputs": [
        {
          "internalType": "uint256",
          "name": "_hodlId",
          "type": "uint256"
        },
        {
          "internalType": "address",
          "name": "_backupAddress",
          "type": "address"
        }
      ],
      "name": "modifyHodlBackup",
      "outputs": [],
      "stateMutability": "nonpayable",
      "type": "function"
    },
    {
      "inputs": [
        {
          "internalType": "uint256",
          "name": "_hodlId",
          "type": "uint256"
        }
      ],
      "name": "unlockHodl",
      "outputs": [],
      "stateMutability": "nonpayable",
      "type": "function"
    },
    {
      "inputs": [],
      "name": "getHodlsCount",
      "outputs": [
        {
          "internalType": "uint256",
          "name": "",
          "type": "uint256"
        }
      ],
      "stateMutability": "view",
      "type": "function",
      "constant": true
    },
    {
      "inputs": [
        {
          "internalType": "address",
          "name": "_owner",
          "type": "address"
        }
      ],
      "name": "getHodlsByOwner",
      "outputs": [
        {
          "internalType": "uint256[]",
          "name": "",
          "type": "uint256[]"
        }
      ],
      "stateMutability": "view",
      "type": "function",
      "constant": true
    },
    {
      "inputs": [
        {
          "internalType": "address",
          "name": "_owner",
          "type": "address"
        }
      ],
      "name": "getTotalLockedByOwner",
      "outputs": [
        {
          "internalType": "uint256",
          "name": "",
          "type": "uint256"
        }
      ],
      "stateMutability": "view",
      "type": "function",
      "constant": true
    },
    {
      "inputs": [
        {
          "internalType": "address",
          "name": "_owner",
          "type": "address"
        }
      ],
      "name": "getTotalUnlockedByOwner",
      "outputs": [
        {
          "internalType": "uint256",
          "name": "",
          "type": "uint256"
        }
      ],
      "stateMutability": "view",
      "type": "function",
      "constant": true
    }
  ],
  "bytecode": "0x60806040523480156200001157600080fd5b506040518060400160405280600481526020017f486f646c000000000000000000000000000000000000000000000000000000008152506040518060400160405280600481526020017f484f444c00000000000000000000000000000000000000000000000000000000815250816003908051906020019062000096929190620000b8565b508060049080519060200190620000af929190620000b8565b505050620001cd565b828054620000c69062000168565b90600052602060002090601f016020900481019282620000ea576000855562000136565b82601f106200010557805160ff191683800117855562000136565b8280016001018555821562000136579182015b828111156200013557825182559160200191906001019062000118565b5b50905062000145919062000149565b5090565b5b80821115620001645760008160009055506001016200014a565b5090565b600060028204905060018216806200018157607f821691505b602082108114156200019857620001976200019e565b5b50919050565b7f4e487b7100000000000000000000000000000000000000000000000000000000600052602260045260246000fd5b61366c80620001dd6000396000f3fe6080604052600436106101cd5760003560e01c806350df21bc116100f7578063a457c2d711610095578063ce6df2b911610064578063ce6df2b914610708578063d547741f14610731578063dd62ed3e1461075a578063fd78e7d714610797576101cd565b8063a457c2d714610638578063a779d08014610675578063a9059cbb146106a0578063bf99235e146106dd576101cd565b806370a08231116100d157806370a082311461056857806391d14854146105a557806395d89b41146105e2578063a217fddf1461060d576101cd565b806350df21bc146104d7578063568914121461050057806369b514ce1461052b576101cd565b8063216be1811161016f5780632f2ff15d1161013e5780632f2ff15d1461041d578063313ce5671461044657806336568abe14610471578063395093511461049a576101cd565b8063216be1811461032457806323b872dd14610366578063248a9ca3146103a35780632e4fdbd2146103e0576101cd565b8063095ea7b3116101ab578063095ea7b3146102635780630d8bfb85146102a057806318160ddd146102dd5780631d2ff96114610308576101cd565b806301ffc9a7146101d25780630308ffad1461020f57806306fdde0314610238575b600080fd5b3480156101de57600080fd5b506101f960048036038101906101f491906128a7565b6107d4565b6040516102069190612fc6565b60405180910390f35b34801561021b57600080fd5b50610236600480360381019061023191906128d0565b61084e565b005b34801561024457600080fd5b5061024d610c79565b60405161025a9190612ffc565b60405180910390f35b34801561026f57600080fd5b5061028a60048036038101906102859190612806565b610d0b565b6040516102979190612fc6565b60405180910390f35b3480156102ac57600080fd5b506102c760048036038101906102c29190612752565b610d29565b6040516102d4919061317e565b60405180910390f35b3480156102e957600080fd5b506102f2610d72565b6040516102ff919061317e565b60405180910390f35b610322600480360381019061031d91906128d0565b610d7c565b005b34801561033057600080fd5b5061034b600480360381019061034691906128d0565b6110ee565b60405161035d96959493929190612f43565b60405180910390f35b34801561037257600080fd5b5061038d600480360381019061038891906127b7565b611187565b60405161039a9190612fc6565b60405180910390f35b3480156103af57600080fd5b506103ca60048036038101906103c59190612842565b611288565b6040516103d79190612fe1565b60405180910390f35b3480156103ec57600080fd5b50610407600480360381019061040291906128d0565b6112a8565b6040516104149190612f28565b60405180910390f35b34801561042957600080fd5b50610444600480360381019061043f919061286b565b6112db565b005b34801561045257600080fd5b5061045b611304565b6040516104689190613223565b60405180910390f35b34801561047d57600080fd5b506104986004803603810190610493919061286b565b61130d565b005b3480156104a657600080fd5b506104c160048036038101906104bc9190612806565b611390565b6040516104ce9190612fc6565b60405180910390f35b3480156104e357600080fd5b506104fe60048036038101906104f991906128f9565b61143c565b005b34801561050c57600080fd5b5061051561160e565b604051610522919061317e565b60405180910390f35b34801561053757600080fd5b50610552600480360381019061054d9190612752565b611614565b60405161055f9190612fa4565b60405180910390f35b34801561057457600080fd5b5061058f600480360381019061058a9190612752565b6117b3565b60405161059c919061317e565b60405180910390f35b3480156105b157600080fd5b506105cc60048036038101906105c7919061286b565b6117fb565b6040516105d99190612fc6565b60405180910390f35b3480156105ee57600080fd5b506105f7611866565b6040516106049190612ffc565b60405180910390f35b34801561061957600080fd5b506106226118f8565b60405161062f9190612fe1565b60405180910390f35b34801561064457600080fd5b5061065f600480360381019061065a9190612806565b6118ff565b60405161066c9190612fc6565b60405180910390f35b34801561068157600080fd5b5061068a6119f3565b604051610697919061317e565b60405180910390f35b3480156106ac57600080fd5b506106c760048036038101906106c29190612806565b6119f9565b6040516106d49190612fc6565b60405180910390f35b3480156106e957600080fd5b506106f2611a17565b6040516106ff919061317e565b60405180910390f35b34801561071457600080fd5b5061072f600480360381019061072a9190612806565b611a24565b005b34801561073d57600080fd5b506107586004803603810190610753919061286b565b611a32565b005b34801561076657600080fd5b50610781600480360381019061077c919061277b565b611a5b565b60405161078e919061317e565b60405180910390f35b3480156107a357600080fd5b506107be60048036038101906107b99190612752565b611ae2565b6040516107cb919061317e565b60405180910390f35b60007f7965db0b000000000000000000000000000000000000000000000000000000007bffffffffffffffffffffffffffffffffffffffffffffffffffffffff1916827bffffffffffffffffffffffffffffffffffffffffffffffffffffffff19161480610847575061084682611b2b565b5b9050919050565b80600b600082815260200190815260200160002060009054906101000a900473ffffffffffffffffffffffffffffffffffffffff1673ffffffffffffffffffffffffffffffffffffffff163373ffffffffffffffffffffffffffffffffffffffff1614806109525750600a81815481106108f1577f4e487b7100000000000000000000000000000000000000000000000000000000600052603260045260246000fd5b906000526020600020906006020160010160009054906101000a900473ffffffffffffffffffffffffffffffffffffffff1673ffffffffffffffffffffffffffffffffffffffff163373ffffffffffffffffffffffffffffffffffffffff16145b610991576040517f08c379a00000000000000000000000000000000000000000000000000000000081526004016109889061305e565b60405180910390fd5b6000600a83815481106109cd577f4e487b7100000000000000000000000000000000000000000000000000000000600052603260045260246000fd5b906000526020600020906006020190504267ffffffffffffffff16816003015467ffffffffffffffff161115610a0257600080fd5b600015158160050160009054906101000a900460ff16151514610a2457600080fd5b8060010160009054906101000a900473ffffffffffffffffffffffffffffffffffffffff1673ffffffffffffffffffffffffffffffffffffffff163373ffffffffffffffffffffffffffffffffffffffff161415610af0578060010160009054906101000a900473ffffffffffffffffffffffffffffffffffffffff1673ffffffffffffffffffffffffffffffffffffffff166108fc82600201549081150290604051600060405180830381858888f19350505050158015610aea573d6000803e3d6000fd5b50610b60565b8060000160009054906101000a900473ffffffffffffffffffffffffffffffffffffffff1673ffffffffffffffffffffffffffffffffffffffff166108fc82600201549081150290604051600060405180830381858888f19350505050158015610b5e573d6000803e3d6000fd5b505b60018160050160006101000a81548160ff021916908315150217905550806002015460086000828254610b93919061329e565b925050819055508060020154600e60003373ffffffffffffffffffffffffffffffffffffffff1673ffffffffffffffffffffffffffffffffffffffff1681526020019081526020016000206000828254610bed919061329e565b925050819055508060000160009054906101000a900473ffffffffffffffffffffffffffffffffffffffff1673ffffffffffffffffffffffffffffffffffffffff167fde31b1a52ca322b72a901c70ff7893e65fca1ea4a3e031dfccc181c6560e8bc6848360020154846003015442604051610c6c9493929190613199565b60405180910390a2505050565b606060038054610c88906134c1565b80601f0160208091040260200160405190810160405280929190818152602001828054610cb4906134c1565b8015610d015780601f10610cd657610100808354040283529160200191610d01565b820191906000526020600020905b815481529060010190602001808311610ce457829003601f168201915b5050505050905090565b6000610d1f610d18611b95565b8484611b9d565b6001905092915050565b6000600d60008373ffffffffffffffffffffffffffffffffffffffff1673ffffffffffffffffffffffffffffffffffffffff168152602001908152602001600020549050919050565b6000600254905090565b600a6040518060c001604052803373ffffffffffffffffffffffffffffffffffffffff168152602001600073ffffffffffffffffffffffffffffffffffffffff1681526020013481526020016018603c8086610dd89190613325565b610de29190613325565b610dec9190613325565b42610df7919061329e565b67ffffffffffffffff1681526020014267ffffffffffffffff16815260200160001515815250908060018154018082558091505060019003906000526020600020906006020160009091909190915060008201518160000160006101000a81548173ffffffffffffffffffffffffffffffffffffffff021916908373ffffffffffffffffffffffffffffffffffffffff16021790555060208201518160010160006101000a81548173ffffffffffffffffffffffffffffffffffffffff021916908373ffffffffffffffffffffffffffffffffffffffff16021790555060408201518160020155606082015181600301556080820151816004015560a08201518160050160006101000a81548160ff0219169083151502179055505050600c60003373ffffffffffffffffffffffffffffffffffffffff1673ffffffffffffffffffffffffffffffffffffffff1681526020019081526020016000206000815480929190610f64906134f3565b919050555033600b60006001600a80549050610f80919061337f565b815260200190815260200160002060006101000a81548173ffffffffffffffffffffffffffffffffffffffff021916908373ffffffffffffffffffffffffffffffffffffffff16021790555034600d60003373ffffffffffffffffffffffffffffffffffffffff1673ffffffffffffffffffffffffffffffffffffffff168152602001908152602001600020600082825461101b919061329e565b925050819055503460076000828254611034919061329e565b9250508190555061016d811061105857611057336110523484611d68565b611dbe565b5b3373ffffffffffffffffffffffffffffffffffffffff167fd902438957a94d109e82dd5c91091055ad14becb7f7ecc3f35e64ab3b49dbbcc6001600a805490506110a2919061337f565b346018603c80876110b39190613325565b6110bd9190613325565b6110c79190613325565b426110d2919061329e565b426040516110e394939291906131de565b60405180910390a250565b600a81815481106110fe57600080fd5b90600052602060002090600602016000915090508060000160009054906101000a900473ffffffffffffffffffffffffffffffffffffffff16908060010160009054906101000a900473ffffffffffffffffffffffffffffffffffffffff16908060020154908060030154908060040154908060050160009054906101000a900460ff16905086565b6000611194848484611dcc565b6000600160008673ffffffffffffffffffffffffffffffffffffffff1673ffffffffffffffffffffffffffffffffffffffff16815260200190815260200160002060006111df611b95565b73ffffffffffffffffffffffffffffffffffffffff1673ffffffffffffffffffffffffffffffffffffffff1681526020019081526020016000205490508281101561125f576040517f08c379a0000000000000000000000000000000000000000000000000000000008152600401611256906130be565b60405180910390fd5b61127c8561126b611b95565b8584611277919061337f565b611b9d565b60019150509392505050565b600060056000838152602001908152602001600020600101549050919050565b600b6020528060005260406000206000915054906101000a900473ffffffffffffffffffffffffffffffffffffffff1681565b6112e482611288565b6112f5816112f0611b95565b61204b565b6112ff83836120e8565b505050565b60006012905090565b611315611b95565b73ffffffffffffffffffffffffffffffffffffffff168173ffffffffffffffffffffffffffffffffffffffff1614611382576040517f08c379a00000000000000000000000000000000000000000000000000000000081526004016113799061313e565b60405180910390fd5b61138c82826121c9565b5050565b600061143261139d611b95565b8484600160006113ab611b95565b73ffffffffffffffffffffffffffffffffffffffff1673ffffffffffffffffffffffffffffffffffffffff16815260200190815260200160002060008873ffffffffffffffffffffffffffffffffffffffff1673ffffffffffffffffffffffffffffffffffffffff1681526020019081526020016000205461142d919061329e565b611b9d565b6001905092915050565b81600b600082815260200190815260200160002060009054906101000a900473ffffffffffffffffffffffffffffffffffffffff1673ffffffffffffffffffffffffffffffffffffffff163373ffffffffffffffffffffffffffffffffffffffff1614806115405750600a81815481106114df577f4e487b7100000000000000000000000000000000000000000000000000000000600052603260045260246000fd5b906000526020600020906006020160010160009054906101000a900473ffffffffffffffffffffffffffffffffffffffff1673ffffffffffffffffffffffffffffffffffffffff163373ffffffffffffffffffffffffffffffffffffffff16145b61157f576040517f08c379a00000000000000000000000000000000000000000000000000000000081526004016115769061305e565b60405180910390fd5b81600a84815481106115ba577f4e487b7100000000000000000000000000000000000000000000000000000000600052603260045260246000fd5b906000526020600020906006020160010160006101000a81548173ffffffffffffffffffffffffffffffffffffffff021916908373ffffffffffffffffffffffffffffffffffffffff160217905550505050565b60075481565b60606000600c60008473ffffffffffffffffffffffffffffffffffffffff1673ffffffffffffffffffffffffffffffffffffffff1681526020019081526020016000205467ffffffffffffffff811115611697577f4e487b7100000000000000000000000000000000000000000000000000000000600052604160045260246000fd5b6040519080825280602002602001820160405280156116c55781602001602082028036833780820191505090505b5090506000805b600a805490508110156117a8578473ffffffffffffffffffffffffffffffffffffffff16600b600083815260200190815260200160002060009054906101000a900473ffffffffffffffffffffffffffffffffffffffff1673ffffffffffffffffffffffffffffffffffffffff161415611795578083838151811061177a577f4e487b7100000000000000000000000000000000000000000000000000000000600052603260045260246000fd5b6020026020010181815250508180611791906134f3565b9250505b80806117a0906134f3565b9150506116cc565b508192505050919050565b60008060008373ffffffffffffffffffffffffffffffffffffffff1673ffffffffffffffffffffffffffffffffffffffff168152602001908152602001600020549050919050565b60006005600084815260200190815260200160002060000160008373ffffffffffffffffffffffffffffffffffffffff1673ffffffffffffffffffffffffffffffffffffffff16815260200190815260200160002060009054906101000a900460ff16905092915050565b606060048054611875906134c1565b80601f01602080910402602001604051908101604052809291908181526020018280546118a1906134c1565b80156118ee5780601f106118c3576101008083540402835291602001916118ee565b820191906000526020600020905b8154815290600101906020018083116118d157829003601f168201915b5050505050905090565b6000801b81565b6000806001600061190e611b95565b73ffffffffffffffffffffffffffffffffffffffff1673ffffffffffffffffffffffffffffffffffffffff16815260200190815260200160002060008573ffffffffffffffffffffffffffffffffffffffff1673ffffffffffffffffffffffffffffffffffffffff168152602001908152602001600020549050828110156119cb576040517f08c379a00000000000000000000000000000000000000000000000000000000081526004016119c29061311e565b60405180910390fd5b6119e86119d6611b95565b8585846119e3919061337f565b611b9d565b600191505092915050565b60085481565b6000611a0d611a06611b95565b8484611dcc565b6001905092915050565b6000600a80549050905090565b611a2e82826122ab565b5050565b611a3b82611288565b611a4c81611a47611b95565b61204b565b611a5683836121c9565b505050565b6000600160008473ffffffffffffffffffffffffffffffffffffffff1673ffffffffffffffffffffffffffffffffffffffff16815260200190815260200160002060008373ffffffffffffffffffffffffffffffffffffffff1673ffffffffffffffffffffffffffffffffffffffff16815260200190815260200160002054905092915050565b6000600e60008373ffffffffffffffffffffffffffffffffffffffff1673ffffffffffffffffffffffffffffffffffffffff168152602001908152602001600020549050919050565b60007f01ffc9a7000000000000000000000000000000000000000000000000000000007bffffffffffffffffffffffffffffffffffffffffffffffffffffffff1916827bffffffffffffffffffffffffffffffffffffffffffffffffffffffff1916149050919050565b600033905090565b600073ffffffffffffffffffffffffffffffffffffffff168373ffffffffffffffffffffffffffffffffffffffff161415611c0d576040517f08c379a0000000000000000000000000000000000000000000000000000000008152600401611c04906130fe565b60405180910390fd5b600073ffffffffffffffffffffffffffffffffffffffff168273ffffffffffffffffffffffffffffffffffffffff161415611c7d576040517f08c379a0000000000000000000000000000000000000000000000000000000008152600401611c749061307e565b60405180910390fd5b80600160008573ffffffffffffffffffffffffffffffffffffffff1673ffffffffffffffffffffffffffffffffffffffff16815260200190815260200160002060008473ffffffffffffffffffffffffffffffffffffffff1673ffffffffffffffffffffffffffffffffffffffff168152602001908152602001600020819055508173ffffffffffffffffffffffffffffffffffffffff168373ffffffffffffffffffffffffffffffffffffffff167f8c5be1e5ebec7d5bd14f71427d1e84f3dd0314c0f7b2291e5b200ac8c7c3b92583604051611d5b919061317e565b60405180910390a3505050565b6000633b9aca0060648384611d7d9190613325565b611d879190613325565b655af3107a400085611d9991906132f4565b611da39190613325565b611dad91906132f4565b600981905550600954905092915050565b611dc882826122ab565b5050565b600073ffffffffffffffffffffffffffffffffffffffff168373ffffffffffffffffffffffffffffffffffffffff161415611e3c576040517f08c379a0000000000000000000000000000000000000000000000000000000008152600401611e33906130de565b60405180910390fd5b600073ffffffffffffffffffffffffffffffffffffffff168273ffffffffffffffffffffffffffffffffffffffff161415611eac576040517f08c379a0000000000000000000000000000000000000000000000000000000008152600401611ea39061303e565b60405180910390fd5b611eb78383836123ff565b60008060008573ffffffffffffffffffffffffffffffffffffffff1673ffffffffffffffffffffffffffffffffffffffff16815260200190815260200160002054905081811015611f3d576040517f08c379a0000000000000000000000000000000000000000000000000000000008152600401611f349061309e565b60405180910390fd5b8181611f49919061337f565b6000808673ffffffffffffffffffffffffffffffffffffffff1673ffffffffffffffffffffffffffffffffffffffff16815260200190815260200160002081905550816000808573ffffffffffffffffffffffffffffffffffffffff1673ffffffffffffffffffffffffffffffffffffffff1681526020019081526020016000206000828254611fd9919061329e565b925050819055508273ffffffffffffffffffffffffffffffffffffffff168473ffffffffffffffffffffffffffffffffffffffff167fddf252ad1be2c89b69c2b068fc378daa952ba7f163c4a11628f55a4df523b3ef8460405161203d919061317e565b60405180910390a350505050565b61205582826117fb565b6120e45761207a8173ffffffffffffffffffffffffffffffffffffffff166014612404565b6120888360001c6020612404565b604051602001612099929190612eee565b6040516020818303038152906040526040517f08c379a00000000000000000000000000000000000000000000000000000000081526004016120db9190612ffc565b60405180910390fd5b5050565b6120f282826117fb565b6121c55760016005600084815260200190815260200160002060000160008373ffffffffffffffffffffffffffffffffffffffff1673ffffffffffffffffffffffffffffffffffffffff16815260200190815260200160002060006101000a81548160ff02191690831515021790555061216a611b95565b73ffffffffffffffffffffffffffffffffffffffff168173ffffffffffffffffffffffffffffffffffffffff16837f2f8788117e7eff1d82e926ec794901d17c78024a50270940304540a733656f0d60405160405180910390a45b5050565b6121d382826117fb565b156122a75760006005600084815260200190815260200160002060000160008373ffffffffffffffffffffffffffffffffffffffff1673ffffffffffffffffffffffffffffffffffffffff16815260200190815260200160002060006101000a81548160ff02191690831515021790555061224c611b95565b73ffffffffffffffffffffffffffffffffffffffff168173ffffffffffffffffffffffffffffffffffffffff16837ff6391f5c32d9c69d2a47ea670b442974b53935d1edc7fd64eb21e047a839171b60405160405180910390a45b5050565b600073ffffffffffffffffffffffffffffffffffffffff168273ffffffffffffffffffffffffffffffffffffffff16141561231b576040517f08c379a00000000000000000000000000000000000000000000000000000000081526004016123129061315e565b60405180910390fd5b612327600083836123ff565b8060026000828254612339919061329e565b92505081905550806000808473ffffffffffffffffffffffffffffffffffffffff1673ffffffffffffffffffffffffffffffffffffffff168152602001908152602001600020600082825461238e919061329e565b925050819055508173ffffffffffffffffffffffffffffffffffffffff16600073ffffffffffffffffffffffffffffffffffffffff167fddf252ad1be2c89b69c2b068fc378daa952ba7f163c4a11628f55a4df523b3ef836040516123f3919061317e565b60405180910390a35050565b505050565b6060600060028360026124179190613325565b612421919061329e565b67ffffffffffffffff811115612460577f4e487b7100000000000000000000000000000000000000000000000000000000600052604160045260246000fd5b6040519080825280601f01601f1916602001820160405280156124925781602001600182028036833780820191505090505b5090507f3000000000000000000000000000000000000000000000000000000000000000816000815181106124f0577f4e487b7100000000000000000000000000000000000000000000000000000000600052603260045260246000fd5b60200101907effffffffffffffffffffffffffffffffffffffffffffffffffffffffffffff1916908160001a9053507f78000000000000000000000000000000000000000000000000000000000000008160018151811061257a577f4e487b7100000000000000000000000000000000000000000000000000000000600052603260045260246000fd5b60200101907effffffffffffffffffffffffffffffffffffffffffffffffffffffffffffff1916908160001a905350600060018460026125ba9190613325565b6125c4919061329e565b90505b60018111156126b0577f3031323334353637383961626364656600000000000000000000000000000000600f86166010811061262c577f4e487b7100000000000000000000000000000000000000000000000000000000600052603260045260246000fd5b1a60f81b828281518110612669577f4e487b7100000000000000000000000000000000000000000000000000000000600052603260045260246000fd5b60200101907effffffffffffffffffffffffffffffffffffffffffffffffffffffffffffff1916908160001a905350600485901c9450806126a990613497565b90506125c7565b50600084146126f4576040517f08c379a00000000000000000000000000000000000000000000000000000000081526004016126eb9061301e565b60405180910390fd5b8091505092915050565b60008135905061270d816135da565b92915050565b600081359050612722816135f1565b92915050565b60008135905061273781613608565b92915050565b60008135905061274c8161361f565b92915050565b60006020828403121561276457600080fd5b6000612772848285016126fe565b91505092915050565b6000806040838503121561278e57600080fd5b600061279c858286016126fe565b92505060206127ad858286016126fe565b9150509250929050565b6000806000606084860312156127cc57600080fd5b60006127da868287016126fe565b93505060206127eb868287016126fe565b92505060406127fc8682870161273d565b9150509250925092565b6000806040838503121561281957600080fd5b6000612827858286016126fe565b92505060206128388582860161273d565b9150509250929050565b60006020828403121561285457600080fd5b600061286284828501612713565b91505092915050565b6000806040838503121561287e57600080fd5b600061288c85828601612713565b925050602061289d858286016126fe565b9150509250929050565b6000602082840312156128b957600080fd5b60006128c784828501612728565b91505092915050565b6000602082840312156128e257600080fd5b60006128f08482850161273d565b91505092915050565b6000806040838503121561290c57600080fd5b600061291a8582860161273d565b925050602061292b858286016126fe565b9150509250929050565b60006129418383612eb2565b60208301905092915050565b612956816133b3565b82525050565b60006129678261324e565b6129718185613271565b935061297c8361323e565b8060005b838110156129ad5781516129948882612935565b975061299f83613264565b925050600181019050612980565b5085935050505092915050565b6129c3816133c5565b82525050565b6129d2816133d1565b82525050565b60006129e382613259565b6129ed8185613282565b93506129fd818560208601613464565b612a06816135c9565b840191505092915050565b6000612a1c82613259565b612a268185613293565b9350612a36818560208601613464565b80840191505092915050565b6000612a4f602083613282565b91507f537472696e67733a20686578206c656e67746820696e73756666696369656e746000830152602082019050919050565b6000612a8f602383613282565b91507f45524332303a207472616e7366657220746f20746865207a65726f206164647260008301527f65737300000000000000000000000000000000000000000000000000000000006020830152604082019050919050565b6000612af5601583613282565b91507f53656e646572206e6f7420617574686f72697a656400000000000000000000006000830152602082019050919050565b6000612b35602283613282565b91507f45524332303a20617070726f766520746f20746865207a65726f20616464726560008301527f73730000000000000000000000000000000000000000000000000000000000006020830152604082019050919050565b6000612b9b602683613282565b91507f45524332303a207472616e7366657220616d6f756e742065786365656473206260008301527f616c616e636500000000000000000000000000000000000000000000000000006020830152604082019050919050565b6000612c01602883613282565b91507f45524332303a207472616e7366657220616d6f756e742065786365656473206160008301527f6c6c6f77616e63650000000000000000000000000000000000000000000000006020830152604082019050919050565b6000612c67602583613282565b91507f45524332303a207472616e736665722066726f6d20746865207a65726f20616460008301527f64726573730000000000000000000000000000000000000000000000000000006020830152604082019050919050565b6000612ccd602483613282565b91507f45524332303a20617070726f76652066726f6d20746865207a65726f2061646460008301527f72657373000000000000000000000000000000000000000000000000000000006020830152604082019050919050565b6000612d33601783613293565b91507f416363657373436f6e74726f6c3a206163636f756e74200000000000000000006000830152601782019050919050565b6000612d73602583613282565b91507f45524332303a2064656372656173656420616c6c6f77616e63652062656c6f7760008301527f207a65726f0000000000000000000000000000000000000000000000000000006020830152604082019050919050565b6000612dd9601183613293565b91507f206973206d697373696e6720726f6c65200000000000000000000000000000006000830152601182019050919050565b6000612e19602f83613282565b91507f416363657373436f6e74726f6c3a2063616e206f6e6c792072656e6f756e636560008301527f20726f6c657320666f722073656c6600000000000000000000000000000000006020830152604082019050919050565b6000612e7f601f83613282565b91507f45524332303a206d696e7420746f20746865207a65726f2061646472657373006000830152602082019050919050565b612ebb81613427565b82525050565b612eca81613427565b82525050565b612ed981613452565b82525050565b612ee881613445565b82525050565b6000612ef982612d26565b9150612f058285612a11565b9150612f1082612dcc565b9150612f1c8284612a11565b91508190509392505050565b6000602082019050612f3d600083018461294d565b92915050565b600060c082019050612f58600083018961294d565b612f65602083018861294d565b612f726040830187612ec1565b612f7f6060830186612ec1565b612f8c6080830185612ec1565b612f9960a08301846129ba565b979650505050505050565b60006020820190508181036000830152612fbe818461295c565b905092915050565b6000602082019050612fdb60008301846129ba565b92915050565b6000602082019050612ff660008301846129c9565b92915050565b6000602082019050818103600083015261301681846129d8565b905092915050565b6000602082019050818103600083015261303781612a42565b9050919050565b6000602082019050818103600083015261305781612a82565b9050919050565b6000602082019050818103600083015261307781612ae8565b9050919050565b6000602082019050818103600083015261309781612b28565b9050919050565b600060208201905081810360008301526130b781612b8e565b9050919050565b600060208201905081810360008301526130d781612bf4565b9050919050565b600060208201905081810360008301526130f781612c5a565b9050919050565b6000602082019050818103600083015261311781612cc0565b9050919050565b6000602082019050818103600083015261313781612d66565b9050919050565b6000602082019050818103600083015261315781612e0c565b9050919050565b6000602082019050818103600083015261317781612e72565b9050919050565b60006020820190506131936000830184612ec1565b92915050565b60006080820190506131ae6000830187612ec1565b6131bb6020830186612ec1565b6131c86040830185612ec1565b6131d56060830184612ed0565b95945050505050565b60006080820190506131f36000830187612ec1565b6132006020830186612ec1565b61320d6040830185612ed0565b61321a6060830184612ed0565b95945050505050565b60006020820190506132386000830184612edf565b92915050565b6000819050602082019050919050565b600081519050919050565b600081519050919050565b6000602082019050919050565b600082825260208201905092915050565b600082825260208201905092915050565b600081905092915050565b60006132a982613427565b91506132b483613427565b9250827fffffffffffffffffffffffffffffffffffffffffffffffffffffffffffffffff038211156132e9576132e861353c565b5b828201905092915050565b60006132ff82613427565b915061330a83613427565b92508261331a5761331961356b565b5b828204905092915050565b600061333082613427565b915061333b83613427565b9250817fffffffffffffffffffffffffffffffffffffffffffffffffffffffffffffffff04831182151516156133745761337361353c565b5b828202905092915050565b600061338a82613427565b915061339583613427565b9250828210156133a8576133a761353c565b5b828203905092915050565b60006133be82613407565b9050919050565b60008115159050919050565b6000819050919050565b60007fffffffff0000000000000000000000000000000000000000000000000000000082169050919050565b600073ffffffffffffffffffffffffffffffffffffffff82169050919050565b6000819050919050565b600067ffffffffffffffff82169050919050565b600060ff82169050919050565b600061345d82613431565b9050919050565b60005b83811015613482578082015181840152602081019050613467565b83811115613491576000848401525b50505050565b60006134a282613427565b915060008214156134b6576134b561353c565b5b600182039050919050565b600060028204905060018216806134d957607f821691505b602082108114156134ed576134ec61359a565b5b50919050565b60006134fe82613427565b91507fffffffffffffffffffffffffffffffffffffffffffffffffffffffffffffffff8214156135315761353061353c565b5b600182019050919050565b7f4e487b7100000000000000000000000000000000000000000000000000000000600052601160045260246000fd5b7f4e487b7100000000000000000000000000000000000000000000000000000000600052601260045260246000fd5b7f4e487b7100000000000000000000000000000000000000000000000000000000600052602260045260246000fd5b6000601f19601f8301169050919050565b6135e3816133b3565b81146135ee57600080fd5b50565b6135fa816133d1565b811461360557600080fd5b50565b613611816133db565b811461361c57600080fd5b50565b61362881613427565b811461363357600080fd5b5056fea26469706673582212204fcfdd866365a29d7955786064e8b4c00abd633e730a0dfe922927dec0ad60b764736f6c63430008000033",
  "immutableReferences": {},
  "source": "pragma solidity ^0.8.0;\nimport \"@openzeppelin/contracts/access/Ownable.sol\";\nimport \"@openzeppelin/contracts/token/ERC20/IERC20.sol\";\nimport \"./HodlToken.sol\";\n// import \"@chainlink/contracts/src/v0.6/interfaces/AggregatorV3Interface.sol\";\n\n/// @title A Contract to Hodl (lock) funds until a defined time in the future\n/// @author G. T. SA.\n/// @notice This contract should be used to lock funds from yourself. There is no coming back after you lock your funds.\n// contract Hodler is HodlToken {\ncontract Hodler is HodlToken {\n\n  // AggregatorV3Interface internal priceFeed;\n\n  // constructor() public {\n  //     priceFeed = AggregatorV3Interface(0x8A753747A1Fa494EC906cE90E9f37563A8AF630e);\n  // }\n\n  address owner;\n  uint256 public totalLocked;\n  uint256 public totalUnlocked;\n  uint _mintAmount;\n\n  /// @dev Two events are emitted. One for Open and one for closed hodl\n  /// A \"Hodl\" is triggered once you use lockHodl() and lock your funds\n  // event NewHodl(uint hodlId, address indexed owner, uint amount, uint timelocked, uint createdAt, uint ethPriceAtStart);\n  // event ClosedHodl(uint hodlId, address indexed owner, uint amount, uint timelocked, uint closedAt, uint ethPriceAtClose);\n\n  event NewHodl(uint hodlId, address indexed owner, uint amount, uint timelocked, uint createdAt);\n  event ClosedHodl(uint hodlId, address indexed owner, uint amount, uint timelocked, uint closedAt);\n\n  struct Hodl {\n    address owner;\n    address otherOwner;\n    uint amount;\n    uint timelocked;\n    uint createdAt;\n    bool closed;\n  }\n\n  Hodl[] public hodls;\n\n  /// @dev Mapping to store which hodl belongs to whom\n  mapping(uint => address) public hodlToOwner;\n  mapping(address => uint) ownerHodlCount;\n  mapping(address => uint) ownerTotalLocked;\n  mapping(address => uint) ownerTotalUnlocked;\n\n  /// @dev Constructor -> Initialise Token IERC20\n  /// Need to be able to mint, set a function to allow contract to mint?\n  // constructor(address token_addr) public {\n  //   token = IERC20(token_addr);\n  // }\n\n  /// @dev Constructor should set Hodler Contract as sole Admin, Minter and Burner of Hodl Token\n  // constructor() public {\n  //   /// _grantRole - Set this.address has minter and burner\n  //   grantRole(keccak256(\"MINTER_ROLE\"), address(this));\n  //   grantRole(keccak256(\"BURNER_ROLE\"), address(this));\n  //   /// _setRoleAdmin - Change ERC20 Admin to this.address.\n  //   // _setRoleAdmin(\"DEFAULT_ADMIN_ROLE\", address(this));\n  //   /// Renounce to the admin role\n  //\n  // }\n\n  /// @notice - Lock Function - Owner defines a time in days he wants he's funds to be locked from himself\n  /// @dev Logs into a struct that'll be used to verify is Unlock is possible and if unlock has happened\n  /// Time is set in days \"timelocked*60*60*24\"\n  /// When no backupAddress is present, it'll be defined as address(0)\n  function lockHodl(uint timelocked) external payable {\n    // uint ethPriceAtStart = uint(getEthPrice());\n    hodls.push(Hodl(msg.sender, address(0), msg.value, uint64(block.timestamp + timelocked*60*60*24), uint64(block.timestamp), false));\n\n    ownerHodlCount[msg.sender]++;\n    hodlToOwner[hodls.length - 1] = msg.sender;\n    ownerTotalLocked[msg.sender] += msg.value;\n\n    totalLocked += msg.value;\n\n    /// Mint new Hodl Tokens\n    /// Minimum Timelocked to get tokens = 365 days.\n    if (timelocked >= 365) {\n      mint(msg.sender, mintCalculator(msg.value, timelocked));\n    }\n\n    emit NewHodl(hodls.length - 1, msg.sender, msg.value, uint64(block.timestamp + timelocked*60*60*24), uint64(block.timestamp));\n  }\n\n  /// @dev Makes every modified functions accessible for the owner's address and owner's backup address\n  modifier onlyOwnerOf(uint _hodlId) {\n    require(msg.sender == hodlToOwner[_hodlId] || msg.sender == hodls[_hodlId].otherOwner, \"Sender not authorized\");\n    _;\n  }\n\n  /// @notice - Modify Backup Address\n  /// @dev Hodl Owner's address or BackupAddress can modify the BackupAddress\n  /// this function can be called at any time and any number of times\n  function modifyHodlBackup(uint _hodlId, address _backupAddress) public onlyOwnerOf(_hodlId) {\n    hodls[_hodlId].otherOwner = _backupAddress;\n  }\n\n  /// @notice - Unlock Function - After this time the Hodl owner can withdraw\n  /// @dev only available to the hodl owner / verify that current time is inferior to defined timelocked time\n  /// If called by backupAddress, it will pay the backupAddress\n  function unlockHodl(uint _hodlId) public onlyOwnerOf(_hodlId) {\n    Hodl storage myHodl = hodls[_hodlId];\n    require(uint64(myHodl.timelocked) <= uint64(block.timestamp));\n    require(myHodl.closed == false);\n\n    if (msg.sender == myHodl.otherOwner) {\n      payable(myHodl.otherOwner).transfer(myHodl.amount);\n    } else {\n      payable(myHodl.owner).transfer(myHodl.amount);\n    }\n\n    myHodl.closed = true;\n    totalUnlocked += myHodl.amount;\n    ownerTotalUnlocked[msg.sender] += myHodl.amount;\n\n    // uint ethPriceAtClose = uint(getEthPrice());\n    emit ClosedHodl(_hodlId, myHodl.owner, myHodl.amount, myHodl.timelocked, uint64(block.timestamp));\n  }\n\n  /// @notice - View the total count of Hodls\n  function getHodlsCount() public view returns(uint) {\n    return uint(hodls.length);\n  }\n\n  /// @notice - Get hodls by owner (ids)\n  function getHodlsByOwner(address _owner) external view returns(uint[] memory) {\n    uint[] memory result = new uint[](ownerHodlCount[_owner]);\n    uint counter = 0;\n    for (uint i = 0; i < hodls.length; i++) {\n      if (hodlToOwner[i] == _owner) {\n        result[counter] = i;\n        counter++;\n      }\n    }\n    return result;\n  }\n\n  /// @notice - Getters for owner's data\n  function getTotalLockedByOwner(address _owner) external view returns(uint) {\n    return ownerTotalLocked[_owner];\n  }\n\n  function getTotalUnlockedByOwner(address _owner) external view returns(uint) {\n    return ownerTotalUnlocked[_owner];\n  }\n\n  /// @notice ETH price feed from Chainlink\n  // function getEthPrice() public view returns (int) {\n  //     (\n  //         uint80 roundID,\n  //         int price,\n  //         uint startedAt,\n  //         uint timeStamp,\n  //         uint80 answeredInRound\n  //     ) = priceFeed.latestRoundData();\n  //     return price;\n  // }\n\n  /// @dev Timelocked should count more than the amount - the goal being to lock money longer\n  function mintCalculator(uint _amount, uint _timelocked) private returns(uint) {\n    _mintAmount = (((_amount / 10**14) * (_timelocked*_timelocked * 10**2)) / 10**9);\n    return _mintAmount;\n  }\n}\n",
  "sourcePath": "/Users/guillaumedesa/Documents/eth/hodler-react/contracts/Hodler.sol",
  "compiler": {
    "name": "solc",
    "version": "0.8.0+commit.c7dfd78e.Emscripten.clang"
  },
  "schemaVersion": "3.3.4",
  "updatedAt": "2021-06-23T09:09:31.150Z",
  "networkType": "ethereum",
  "devdoc": {
    "author": "G. T. SA.",
    "events": {
      "NewHodl(uint256,address,uint256,uint256,uint256)": {
        "details": "Two events are emitted. One for Open and one for closed hodl A \"Hodl\" is triggered once you use lockHodl() and lock your funds"
      }
    },
    "kind": "dev",
    "methods": {
      "allowance(address,address)": {
        "details": "See {IERC20-allowance}."
      },
      "approve(address,uint256)": {
        "details": "See {IERC20-approve}. Requirements: - `spender` cannot be the zero address."
      },
      "balanceOf(address)": {
        "details": "See {IERC20-balanceOf}."
      },
      "decimals()": {
        "details": "Returns the number of decimals used to get its user representation. For example, if `decimals` equals `2`, a balance of `505` tokens should be displayed to a user as `5,05` (`505 / 10 ** 2`). Tokens usually opt for a value of 18, imitating the relationship between Ether and Wei. This is the value {ERC20} uses, unless this function is overridden; NOTE: This information is only used for _display_ purposes: it in no way affects any of the arithmetic of the contract, including {IERC20-balanceOf} and {IERC20-transfer}."
      },
      "decreaseAllowance(address,uint256)": {
        "details": "Atomically decreases the allowance granted to `spender` by the caller. This is an alternative to {approve} that can be used as a mitigation for problems described in {IERC20-approve}. Emits an {Approval} event indicating the updated allowance. Requirements: - `spender` cannot be the zero address. - `spender` must have allowance for the caller of at least `subtractedValue`."
      },
      "getRoleAdmin(bytes32)": {
        "details": "Returns the admin role that controls `role`. See {grantRole} and {revokeRole}. To change a role's admin, use {_setRoleAdmin}."
      },
      "grantRole(bytes32,address)": {
        "details": "Grants `role` to `account`. If `account` had not been already granted `role`, emits a {RoleGranted} event. Requirements: - the caller must have ``role``'s admin role."
      },
      "hasRole(bytes32,address)": {
        "details": "Returns `true` if `account` has been granted `role`."
      },
      "increaseAllowance(address,uint256)": {
        "details": "Atomically increases the allowance granted to `spender` by the caller. This is an alternative to {approve} that can be used as a mitigation for problems described in {IERC20-approve}. Emits an {Approval} event indicating the updated allowance. Requirements: - `spender` cannot be the zero address."
      },
      "lockHodl(uint256)": {
        "details": "Logs into a struct that'll be used to verify is Unlock is possible and if unlock has happened Time is set in days \"timelocked*60*60*24\" When no backupAddress is present, it'll be defined as address(0)"
      },
      "modifyHodlBackup(uint256,address)": {
        "details": "Hodl Owner's address or BackupAddress can modify the BackupAddress this function can be called at any time and any number of times"
      },
      "name()": {
        "details": "Returns the name of the token."
      },
      "publicMint(address,uint256)": {
        "details": "For testing"
      },
      "renounceRole(bytes32,address)": {
        "details": "Revokes `role` from the calling account. Roles are often managed via {grantRole} and {revokeRole}: this function's purpose is to provide a mechanism for accounts to lose their privileges if they are compromised (such as when a trusted device is misplaced). If the calling account had been granted `role`, emits a {RoleRevoked} event. Requirements: - the caller must be `account`."
      },
      "revokeRole(bytes32,address)": {
        "details": "Revokes `role` from `account`. If `account` had been granted `role`, emits a {RoleRevoked} event. Requirements: - the caller must have ``role``'s admin role."
      },
      "supportsInterface(bytes4)": {
        "details": "See {IERC165-supportsInterface}."
      },
      "symbol()": {
        "details": "Returns the symbol of the token, usually a shorter version of the name."
      },
      "totalSupply()": {
        "details": "See {IERC20-totalSupply}."
      },
      "transfer(address,uint256)": {
        "details": "See {IERC20-transfer}. Requirements: - `recipient` cannot be the zero address. - the caller must have a balance of at least `amount`."
      },
      "transferFrom(address,address,uint256)": {
        "details": "See {IERC20-transferFrom}. Emits an {Approval} event indicating the updated allowance. This is not required by the EIP. See the note at the beginning of {ERC20}. Requirements: - `sender` and `recipient` cannot be the zero address. - `sender` must have a balance of at least `amount`. - the caller must have allowance for ``sender``'s tokens of at least `amount`."
      },
      "unlockHodl(uint256)": {
        "details": "only available to the hodl owner / verify that current time is inferior to defined timelocked time If called by backupAddress, it will pay the backupAddress"
      }
    },
    "stateVariables": {
      "hodlToOwner": {
        "details": "Mapping to store which hodl belongs to whom"
      }
    },
    "title": "A Contract to Hodl (lock) funds until a defined time in the future",
    "version": 1
  },
  "userdoc": {
    "kind": "user",
    "methods": {
      "getHodlsByOwner(address)": {
        "notice": "- Get hodls by owner (ids)"
      },
      "getHodlsCount()": {
        "notice": "- View the total count of Hodls"
      },
      "getTotalLockedByOwner(address)": {
        "notice": "- Getters for owner's data"
      },
      "lockHodl(uint256)": {
        "notice": "- Lock Function - Owner defines a time in days he wants he's funds to be locked from himself"
      },
      "modifyHodlBackup(uint256,address)": {
        "notice": "- Modify Backup Address"
      },
      "unlockHodl(uint256)": {
        "notice": "- Unlock Function - After this time the Hodl owner can withdraw"
      }
    },
    "notice": "This contract should be used to lock funds from yourself. There is no coming back after you lock your funds.",
    "version": 1
  }
}