{
  "contractName": "HodlToken",
  "abi": [
    {
      "inputs": [],
      "stateMutability": "nonpayable",
      "type": "constructor"
    },
    {
      "anonymous": false,
      "inputs": [
        {
          "indexed": true,
          "internalType": "address",
          "name": "owner",
          "type": "address"
        },
        {
          "indexed": true,
          "internalType": "address",
          "name": "spender",
          "type": "address"
        },
        {
          "indexed": false,
          "internalType": "uint256",
          "name": "value",
          "type": "uint256"
        }
      ],
      "name": "Approval",
      "type": "event"
    },
    {
      "anonymous": false,
      "inputs": [
        {
          "indexed": true,
          "internalType": "bytes32",
          "name": "role",
          "type": "bytes32"
        },
        {
          "indexed": true,
          "internalType": "bytes32",
          "name": "previousAdminRole",
          "type": "bytes32"
        },
        {
          "indexed": true,
          "internalType": "bytes32",
          "name": "newAdminRole",
          "type": "bytes32"
        }
      ],
      "name": "RoleAdminChanged",
      "type": "event"
    },
    {
      "anonymous": false,
      "inputs": [
        {
          "indexed": true,
          "internalType": "bytes32",
          "name": "role",
          "type": "bytes32"
        },
        {
          "indexed": true,
          "internalType": "address",
          "name": "account",
          "type": "address"
        },
        {
          "indexed": true,
          "internalType": "address",
          "name": "sender",
          "type": "address"
        }
      ],
      "name": "RoleGranted",
      "type": "event"
    },
    {
      "anonymous": false,
      "inputs": [
        {
          "indexed": true,
          "internalType": "bytes32",
          "name": "role",
          "type": "bytes32"
        },
        {
          "indexed": true,
          "internalType": "address",
          "name": "account",
          "type": "address"
        },
        {
          "indexed": true,
          "internalType": "address",
          "name": "sender",
          "type": "address"
        }
      ],
      "name": "RoleRevoked",
      "type": "event"
    },
    {
      "anonymous": false,
      "inputs": [
        {
          "indexed": true,
          "internalType": "address",
          "name": "from",
          "type": "address"
        },
        {
          "indexed": true,
          "internalType": "address",
          "name": "to",
          "type": "address"
        },
        {
          "indexed": false,
          "internalType": "uint256",
          "name": "value",
          "type": "uint256"
        }
      ],
      "name": "Transfer",
      "type": "event"
    },
    {
      "inputs": [],
      "name": "DEFAULT_ADMIN_ROLE",
      "outputs": [
        {
          "internalType": "bytes32",
          "name": "",
          "type": "bytes32"
        }
      ],
      "stateMutability": "view",
      "type": "function",
      "constant": true
    },
    {
      "inputs": [
        {
          "internalType": "address",
          "name": "owner",
          "type": "address"
        },
        {
          "internalType": "address",
          "name": "spender",
          "type": "address"
        }
      ],
      "name": "allowance",
      "outputs": [
        {
          "internalType": "uint256",
          "name": "",
          "type": "uint256"
        }
      ],
      "stateMutability": "view",
      "type": "function",
      "constant": true
    },
    {
      "inputs": [
        {
          "internalType": "address",
          "name": "spender",
          "type": "address"
        },
        {
          "internalType": "uint256",
          "name": "amount",
          "type": "uint256"
        }
      ],
      "name": "approve",
      "outputs": [
        {
          "internalType": "bool",
          "name": "",
          "type": "bool"
        }
      ],
      "stateMutability": "nonpayable",
      "type": "function"
    },
    {
      "inputs": [
        {
          "internalType": "address",
          "name": "account",
          "type": "address"
        }
      ],
      "name": "balanceOf",
      "outputs": [
        {
          "internalType": "uint256",
          "name": "",
          "type": "uint256"
        }
      ],
      "stateMutability": "view",
      "type": "function",
      "constant": true
    },
    {
      "inputs": [],
      "name": "decimals",
      "outputs": [
        {
          "internalType": "uint8",
          "name": "",
          "type": "uint8"
        }
      ],
      "stateMutability": "view",
      "type": "function",
      "constant": true
    },
    {
      "inputs": [
        {
          "internalType": "address",
          "name": "spender",
          "type": "address"
        },
        {
          "internalType": "uint256",
          "name": "subtractedValue",
          "type": "uint256"
        }
      ],
      "name": "decreaseAllowance",
      "outputs": [
        {
          "internalType": "bool",
          "name": "",
          "type": "bool"
        }
      ],
      "stateMutability": "nonpayable",
      "type": "function"
    },
    {
      "inputs": [
        {
          "internalType": "bytes32",
          "name": "role",
          "type": "bytes32"
        }
      ],
      "name": "getRoleAdmin",
      "outputs": [
        {
          "internalType": "bytes32",
          "name": "",
          "type": "bytes32"
        }
      ],
      "stateMutability": "view",
      "type": "function",
      "constant": true
    },
    {
      "inputs": [
        {
          "internalType": "bytes32",
          "name": "role",
          "type": "bytes32"
        },
        {
          "internalType": "address",
          "name": "account",
          "type": "address"
        }
      ],
      "name": "grantRole",
      "outputs": [],
      "stateMutability": "nonpayable",
      "type": "function"
    },
    {
      "inputs": [
        {
          "internalType": "bytes32",
          "name": "role",
          "type": "bytes32"
        },
        {
          "internalType": "address",
          "name": "account",
          "type": "address"
        }
      ],
      "name": "hasRole",
      "outputs": [
        {
          "internalType": "bool",
          "name": "",
          "type": "bool"
        }
      ],
      "stateMutability": "view",
      "type": "function",
      "constant": true
    },
    {
      "inputs": [
        {
          "internalType": "address",
          "name": "spender",
          "type": "address"
        },
        {
          "internalType": "uint256",
          "name": "addedValue",
          "type": "uint256"
        }
      ],
      "name": "increaseAllowance",
      "outputs": [
        {
          "internalType": "bool",
          "name": "",
          "type": "bool"
        }
      ],
      "stateMutability": "nonpayable",
      "type": "function"
    },
    {
      "inputs": [],
      "name": "name",
      "outputs": [
        {
          "internalType": "string",
          "name": "",
          "type": "string"
        }
      ],
      "stateMutability": "view",
      "type": "function",
      "constant": true
    },
    {
      "inputs": [
        {
          "internalType": "bytes32",
          "name": "role",
          "type": "bytes32"
        },
        {
          "internalType": "address",
          "name": "account",
          "type": "address"
        }
      ],
      "name": "renounceRole",
      "outputs": [],
      "stateMutability": "nonpayable",
      "type": "function"
    },
    {
      "inputs": [
        {
          "internalType": "bytes32",
          "name": "role",
          "type": "bytes32"
        },
        {
          "internalType": "address",
          "name": "account",
          "type": "address"
        }
      ],
      "name": "revokeRole",
      "outputs": [],
      "stateMutability": "nonpayable",
      "type": "function"
    },
    {
      "inputs": [
        {
          "internalType": "bytes4",
          "name": "interfaceId",
          "type": "bytes4"
        }
      ],
      "name": "supportsInterface",
      "outputs": [
        {
          "internalType": "bool",
          "name": "",
          "type": "bool"
        }
      ],
      "stateMutability": "view",
      "type": "function",
      "constant": true
    },
    {
      "inputs": [],
      "name": "symbol",
      "outputs": [
        {
          "internalType": "string",
          "name": "",
          "type": "string"
        }
      ],
      "stateMutability": "view",
      "type": "function",
      "constant": true
    },
    {
      "inputs": [],
      "name": "totalSupply",
      "outputs": [
        {
          "internalType": "uint256",
          "name": "",
          "type": "uint256"
        }
      ],
      "stateMutability": "view",
      "type": "function",
      "constant": true
    },
    {
      "inputs": [
        {
          "internalType": "address",
          "name": "recipient",
          "type": "address"
        },
        {
          "internalType": "uint256",
          "name": "amount",
          "type": "uint256"
        }
      ],
      "name": "transfer",
      "outputs": [
        {
          "internalType": "bool",
          "name": "",
          "type": "bool"
        }
      ],
      "stateMutability": "nonpayable",
      "type": "function"
    },
    {
      "inputs": [
        {
          "internalType": "address",
          "name": "sender",
          "type": "address"
        },
        {
          "internalType": "address",
          "name": "recipient",
          "type": "address"
        },
        {
          "internalType": "uint256",
          "name": "amount",
          "type": "uint256"
        }
      ],
      "name": "transferFrom",
      "outputs": [
        {
          "internalType": "bool",
          "name": "",
          "type": "bool"
        }
      ],
      "stateMutability": "nonpayable",
      "type": "function"
    }
  ],
  "bytecode": "0x60806040523480156200001157600080fd5b506040518060400160405280600481526020017f486f646c000000000000000000000000000000000000000000000000000000008152506040518060400160405280600481526020017f484f444c0000000000000000000000000000000000000000000000000000000081525081600390805190602001906200009692919062000248565b508060049080519060200190620000af92919062000248565b505050620000c76000801b33620000cd60201b60201c565b6200035d565b620000df8282620000e360201b60201c565b5050565b620000f58282620001d560201b60201c565b620001d15760016005600084815260200190815260200160002060000160008373ffffffffffffffffffffffffffffffffffffffff1673ffffffffffffffffffffffffffffffffffffffff16815260200190815260200160002060006101000a81548160ff021916908315150217905550620001766200024060201b60201c565b73ffffffffffffffffffffffffffffffffffffffff168173ffffffffffffffffffffffffffffffffffffffff16837f2f8788117e7eff1d82e926ec794901d17c78024a50270940304540a733656f0d60405160405180910390a45b5050565b60006005600084815260200190815260200160002060000160008373ffffffffffffffffffffffffffffffffffffffff1673ffffffffffffffffffffffffffffffffffffffff16815260200190815260200160002060009054906101000a900460ff16905092915050565b600033905090565b8280546200025690620002f8565b90600052602060002090601f0160209004810192826200027a5760008555620002c6565b82601f106200029557805160ff1916838001178555620002c6565b82800160010185558215620002c6579182015b82811115620002c5578251825591602001919060010190620002a8565b5b509050620002d59190620002d9565b5090565b5b80821115620002f4576000816000905550600101620002da565b5090565b600060028204905060018216806200031157607f821691505b602082108114156200032857620003276200032e565b5b50919050565b7f4e487b7100000000000000000000000000000000000000000000000000000000600052602260045260246000fd5b61203a806200036d6000396000f3fe608060405234801561001057600080fd5b50600436106101165760003560e01c806339509351116100a2578063a217fddf11610071578063a217fddf1461031b578063a457c2d714610339578063a9059cbb14610369578063d547741f14610399578063dd62ed3e146103b557610116565b8063395093511461026d57806370a082311461029d57806391d14854146102cd57806395d89b41146102fd57610116565b806323b872dd116100e957806323b872dd146101b7578063248a9ca3146101e75780632f2ff15d14610217578063313ce5671461023357806336568abe1461025157610116565b806301ffc9a71461011b57806306fdde031461014b578063095ea7b31461016957806318160ddd14610199575b600080fd5b6101356004803603810190610130919061166d565b6103e5565b6040516101429190611b66565b60405180910390f35b61015361045f565b6040516101609190611b9c565b60405180910390f35b610183600480360381019061017e91906115cc565b6104f1565b6040516101909190611b66565b60405180910390f35b6101a161050f565b6040516101ae9190611cde565b60405180910390f35b6101d160048036038101906101cc919061157d565b610519565b6040516101de9190611b66565b60405180910390f35b61020160048036038101906101fc9190611608565b61061a565b60405161020e9190611b81565b60405180910390f35b610231600480360381019061022c9190611631565b61063a565b005b61023b610663565b6040516102489190611cf9565b60405180910390f35b61026b60048036038101906102669190611631565b61066c565b005b610287600480360381019061028291906115cc565b6106ef565b6040516102949190611b66565b60405180910390f35b6102b760048036038101906102b29190611518565b61079b565b6040516102c49190611cde565b60405180910390f35b6102e760048036038101906102e29190611631565b6107e3565b6040516102f49190611b66565b60405180910390f35b61030561084e565b6040516103129190611b9c565b60405180910390f35b6103236108e0565b6040516103309190611b81565b60405180910390f35b610353600480360381019061034e91906115cc565b6108e7565b6040516103609190611b66565b60405180910390f35b610383600480360381019061037e91906115cc565b6109db565b6040516103909190611b66565b60405180910390f35b6103b360048036038101906103ae9190611631565b6109f9565b005b6103cf60048036038101906103ca9190611541565b610a22565b6040516103dc9190611cde565b60405180910390f35b60007f7965db0b000000000000000000000000000000000000000000000000000000007bffffffffffffffffffffffffffffffffffffffffffffffffffffffff1916827bffffffffffffffffffffffffffffffffffffffffffffffffffffffff19161480610458575061045782610aa9565b5b9050919050565b60606003805461046e90611f07565b80601f016020809104026020016040519081016040528092919081815260200182805461049a90611f07565b80156104e75780601f106104bc576101008083540402835291602001916104e7565b820191906000526020600020905b8154815290600101906020018083116104ca57829003601f168201915b5050505050905090565b60006105056104fe610b13565b8484610b1b565b6001905092915050565b6000600254905090565b6000610526848484610ce6565b6000600160008673ffffffffffffffffffffffffffffffffffffffff1673ffffffffffffffffffffffffffffffffffffffff1681526020019081526020016000206000610571610b13565b73ffffffffffffffffffffffffffffffffffffffff1673ffffffffffffffffffffffffffffffffffffffff168152602001908152602001600020549050828110156105f1576040517f08c379a00000000000000000000000000000000000000000000000000000000081526004016105e890611c3e565b60405180910390fd5b61060e856105fd610b13565b85846106099190611deb565b610b1b565b60019150509392505050565b600060056000838152602001908152602001600020600101549050919050565b6106438261061a565b6106548161064f610b13565b610f65565b61065e8383611002565b505050565b60006012905090565b610674610b13565b73ffffffffffffffffffffffffffffffffffffffff168173ffffffffffffffffffffffffffffffffffffffff16146106e1576040517f08c379a00000000000000000000000000000000000000000000000000000000081526004016106d890611cbe565b60405180910390fd5b6106eb82826110e3565b5050565b60006107916106fc610b13565b84846001600061070a610b13565b73ffffffffffffffffffffffffffffffffffffffff1673ffffffffffffffffffffffffffffffffffffffff16815260200190815260200160002060008873ffffffffffffffffffffffffffffffffffffffff1673ffffffffffffffffffffffffffffffffffffffff1681526020019081526020016000205461078c9190611d3b565b610b1b565b6001905092915050565b60008060008373ffffffffffffffffffffffffffffffffffffffff1673ffffffffffffffffffffffffffffffffffffffff168152602001908152602001600020549050919050565b60006005600084815260200190815260200160002060000160008373ffffffffffffffffffffffffffffffffffffffff1673ffffffffffffffffffffffffffffffffffffffff16815260200190815260200160002060009054906101000a900460ff16905092915050565b60606004805461085d90611f07565b80601f016020809104026020016040519081016040528092919081815260200182805461088990611f07565b80156108d65780601f106108ab576101008083540402835291602001916108d6565b820191906000526020600020905b8154815290600101906020018083116108b957829003601f168201915b5050505050905090565b6000801b81565b600080600160006108f6610b13565b73ffffffffffffffffffffffffffffffffffffffff1673ffffffffffffffffffffffffffffffffffffffff16815260200190815260200160002060008573ffffffffffffffffffffffffffffffffffffffff1673ffffffffffffffffffffffffffffffffffffffff168152602001908152602001600020549050828110156109b3576040517f08c379a00000000000000000000000000000000000000000000000000000000081526004016109aa90611c9e565b60405180910390fd5b6109d06109be610b13565b8585846109cb9190611deb565b610b1b565b600191505092915050565b60006109ef6109e8610b13565b8484610ce6565b6001905092915050565b610a028261061a565b610a1381610a0e610b13565b610f65565b610a1d83836110e3565b505050565b6000600160008473ffffffffffffffffffffffffffffffffffffffff1673ffffffffffffffffffffffffffffffffffffffff16815260200190815260200160002060008373ffffffffffffffffffffffffffffffffffffffff1673ffffffffffffffffffffffffffffffffffffffff16815260200190815260200160002054905092915050565b60007f01ffc9a7000000000000000000000000000000000000000000000000000000007bffffffffffffffffffffffffffffffffffffffffffffffffffffffff1916827bffffffffffffffffffffffffffffffffffffffffffffffffffffffff1916149050919050565b600033905090565b600073ffffffffffffffffffffffffffffffffffffffff168373ffffffffffffffffffffffffffffffffffffffff161415610b8b576040517f08c379a0000000000000000000000000000000000000000000000000000000008152600401610b8290611c7e565b60405180910390fd5b600073ffffffffffffffffffffffffffffffffffffffff168273ffffffffffffffffffffffffffffffffffffffff161415610bfb576040517f08c379a0000000000000000000000000000000000000000000000000000000008152600401610bf290611bfe565b60405180910390fd5b80600160008573ffffffffffffffffffffffffffffffffffffffff1673ffffffffffffffffffffffffffffffffffffffff16815260200190815260200160002060008473ffffffffffffffffffffffffffffffffffffffff1673ffffffffffffffffffffffffffffffffffffffff168152602001908152602001600020819055508173ffffffffffffffffffffffffffffffffffffffff168373ffffffffffffffffffffffffffffffffffffffff167f8c5be1e5ebec7d5bd14f71427d1e84f3dd0314c0f7b2291e5b200ac8c7c3b92583604051610cd99190611cde565b60405180910390a3505050565b600073ffffffffffffffffffffffffffffffffffffffff168373ffffffffffffffffffffffffffffffffffffffff161415610d56576040517f08c379a0000000000000000000000000000000000000000000000000000000008152600401610d4d90611c5e565b60405180910390fd5b600073ffffffffffffffffffffffffffffffffffffffff168273ffffffffffffffffffffffffffffffffffffffff161415610dc6576040517f08c379a0000000000000000000000000000000000000000000000000000000008152600401610dbd90611bde565b60405180910390fd5b610dd18383836111c5565b60008060008573ffffffffffffffffffffffffffffffffffffffff1673ffffffffffffffffffffffffffffffffffffffff16815260200190815260200160002054905081811015610e57576040517f08c379a0000000000000000000000000000000000000000000000000000000008152600401610e4e90611c1e565b60405180910390fd5b8181610e639190611deb565b6000808673ffffffffffffffffffffffffffffffffffffffff1673ffffffffffffffffffffffffffffffffffffffff16815260200190815260200160002081905550816000808573ffffffffffffffffffffffffffffffffffffffff1673ffffffffffffffffffffffffffffffffffffffff1681526020019081526020016000206000828254610ef39190611d3b565b925050819055508273ffffffffffffffffffffffffffffffffffffffff168473ffffffffffffffffffffffffffffffffffffffff167fddf252ad1be2c89b69c2b068fc378daa952ba7f163c4a11628f55a4df523b3ef84604051610f579190611cde565b60405180910390a350505050565b610f6f82826107e3565b610ffe57610f948173ffffffffffffffffffffffffffffffffffffffff1660146111ca565b610fa28360001c60206111ca565b604051602001610fb3929190611b2c565b6040516020818303038152906040526040517f08c379a0000000000000000000000000000000000000000000000000000000008152600401610ff59190611b9c565b60405180910390fd5b5050565b61100c82826107e3565b6110df5760016005600084815260200190815260200160002060000160008373ffffffffffffffffffffffffffffffffffffffff1673ffffffffffffffffffffffffffffffffffffffff16815260200190815260200160002060006101000a81548160ff021916908315150217905550611084610b13565b73ffffffffffffffffffffffffffffffffffffffff168173ffffffffffffffffffffffffffffffffffffffff16837f2f8788117e7eff1d82e926ec794901d17c78024a50270940304540a733656f0d60405160405180910390a45b5050565b6110ed82826107e3565b156111c15760006005600084815260200190815260200160002060000160008373ffffffffffffffffffffffffffffffffffffffff1673ffffffffffffffffffffffffffffffffffffffff16815260200190815260200160002060006101000a81548160ff021916908315150217905550611166610b13565b73ffffffffffffffffffffffffffffffffffffffff168173ffffffffffffffffffffffffffffffffffffffff16837ff6391f5c32d9c69d2a47ea670b442974b53935d1edc7fd64eb21e047a839171b60405160405180910390a45b5050565b505050565b6060600060028360026111dd9190611d91565b6111e79190611d3b565b67ffffffffffffffff811115611226577f4e487b7100000000000000000000000000000000000000000000000000000000600052604160045260246000fd5b6040519080825280601f01601f1916602001820160405280156112585781602001600182028036833780820191505090505b5090507f3000000000000000000000000000000000000000000000000000000000000000816000815181106112b6577f4e487b7100000000000000000000000000000000000000000000000000000000600052603260045260246000fd5b60200101907effffffffffffffffffffffffffffffffffffffffffffffffffffffffffffff1916908160001a9053507f780000000000000000000000000000000000000000000000000000000000000081600181518110611340577f4e487b7100000000000000000000000000000000000000000000000000000000600052603260045260246000fd5b60200101907effffffffffffffffffffffffffffffffffffffffffffffffffffffffffffff1916908160001a905350600060018460026113809190611d91565b61138a9190611d3b565b90505b6001811115611476577f3031323334353637383961626364656600000000000000000000000000000000600f8616601081106113f2577f4e487b7100000000000000000000000000000000000000000000000000000000600052603260045260246000fd5b1a60f81b82828151811061142f577f4e487b7100000000000000000000000000000000000000000000000000000000600052603260045260246000fd5b60200101907effffffffffffffffffffffffffffffffffffffffffffffffffffffffffffff1916908160001a905350600485901c94508061146f90611edd565b905061138d565b50600084146114ba576040517f08c379a00000000000000000000000000000000000000000000000000000000081526004016114b190611bbe565b60405180910390fd5b8091505092915050565b6000813590506114d381611fa8565b92915050565b6000813590506114e881611fbf565b92915050565b6000813590506114fd81611fd6565b92915050565b60008135905061151281611fed565b92915050565b60006020828403121561152a57600080fd5b6000611538848285016114c4565b91505092915050565b6000806040838503121561155457600080fd5b6000611562858286016114c4565b9250506020611573858286016114c4565b9150509250929050565b60008060006060848603121561159257600080fd5b60006115a0868287016114c4565b93505060206115b1868287016114c4565b92505060406115c286828701611503565b9150509250925092565b600080604083850312156115df57600080fd5b60006115ed858286016114c4565b92505060206115fe85828601611503565b9150509250929050565b60006020828403121561161a57600080fd5b6000611628848285016114d9565b91505092915050565b6000806040838503121561164457600080fd5b6000611652858286016114d9565b9250506020611663858286016114c4565b9150509250929050565b60006020828403121561167f57600080fd5b600061168d848285016114ee565b91505092915050565b61169f81611e31565b82525050565b6116ae81611e3d565b82525050565b60006116bf82611d14565b6116c98185611d1f565b93506116d9818560208601611eaa565b6116e281611f97565b840191505092915050565b60006116f882611d14565b6117028185611d30565b9350611712818560208601611eaa565b80840191505092915050565b600061172b602083611d1f565b91507f537472696e67733a20686578206c656e67746820696e73756666696369656e746000830152602082019050919050565b600061176b602383611d1f565b91507f45524332303a207472616e7366657220746f20746865207a65726f206164647260008301527f65737300000000000000000000000000000000000000000000000000000000006020830152604082019050919050565b60006117d1602283611d1f565b91507f45524332303a20617070726f766520746f20746865207a65726f20616464726560008301527f73730000000000000000000000000000000000000000000000000000000000006020830152604082019050919050565b6000611837602683611d1f565b91507f45524332303a207472616e7366657220616d6f756e742065786365656473206260008301527f616c616e636500000000000000000000000000000000000000000000000000006020830152604082019050919050565b600061189d602883611d1f565b91507f45524332303a207472616e7366657220616d6f756e742065786365656473206160008301527f6c6c6f77616e63650000000000000000000000000000000000000000000000006020830152604082019050919050565b6000611903602583611d1f565b91507f45524332303a207472616e736665722066726f6d20746865207a65726f20616460008301527f64726573730000000000000000000000000000000000000000000000000000006020830152604082019050919050565b6000611969602483611d1f565b91507f45524332303a20617070726f76652066726f6d20746865207a65726f2061646460008301527f72657373000000000000000000000000000000000000000000000000000000006020830152604082019050919050565b60006119cf601783611d30565b91507f416363657373436f6e74726f6c3a206163636f756e74200000000000000000006000830152601782019050919050565b6000611a0f602583611d1f565b91507f45524332303a2064656372656173656420616c6c6f77616e63652062656c6f7760008301527f207a65726f0000000000000000000000000000000000000000000000000000006020830152604082019050919050565b6000611a75601183611d30565b91507f206973206d697373696e6720726f6c65200000000000000000000000000000006000830152601182019050919050565b6000611ab5602f83611d1f565b91507f416363657373436f6e74726f6c3a2063616e206f6e6c792072656e6f756e636560008301527f20726f6c657320666f722073656c6600000000000000000000000000000000006020830152604082019050919050565b611b1781611e93565b82525050565b611b2681611e9d565b82525050565b6000611b37826119c2565b9150611b4382856116ed565b9150611b4e82611a68565b9150611b5a82846116ed565b91508190509392505050565b6000602082019050611b7b6000830184611696565b92915050565b6000602082019050611b9660008301846116a5565b92915050565b60006020820190508181036000830152611bb681846116b4565b905092915050565b60006020820190508181036000830152611bd78161171e565b9050919050565b60006020820190508181036000830152611bf78161175e565b9050919050565b60006020820190508181036000830152611c17816117c4565b9050919050565b60006020820190508181036000830152611c378161182a565b9050919050565b60006020820190508181036000830152611c5781611890565b9050919050565b60006020820190508181036000830152611c77816118f6565b9050919050565b60006020820190508181036000830152611c978161195c565b9050919050565b60006020820190508181036000830152611cb781611a02565b9050919050565b60006020820190508181036000830152611cd781611aa8565b9050919050565b6000602082019050611cf36000830184611b0e565b92915050565b6000602082019050611d0e6000830184611b1d565b92915050565b600081519050919050565b600082825260208201905092915050565b600081905092915050565b6000611d4682611e93565b9150611d5183611e93565b9250827fffffffffffffffffffffffffffffffffffffffffffffffffffffffffffffffff03821115611d8657611d85611f39565b5b828201905092915050565b6000611d9c82611e93565b9150611da783611e93565b9250817fffffffffffffffffffffffffffffffffffffffffffffffffffffffffffffffff0483118215151615611de057611ddf611f39565b5b828202905092915050565b6000611df682611e93565b9150611e0183611e93565b925082821015611e1457611e13611f39565b5b828203905092915050565b6000611e2a82611e73565b9050919050565b60008115159050919050565b6000819050919050565b60007fffffffff0000000000000000000000000000000000000000000000000000000082169050919050565b600073ffffffffffffffffffffffffffffffffffffffff82169050919050565b6000819050919050565b600060ff82169050919050565b60005b83811015611ec8578082015181840152602081019050611ead565b83811115611ed7576000848401525b50505050565b6000611ee882611e93565b91506000821415611efc57611efb611f39565b5b600182039050919050565b60006002820490506001821680611f1f57607f821691505b60208210811415611f3357611f32611f68565b5b50919050565b7f4e487b7100000000000000000000000000000000000000000000000000000000600052601160045260246000fd5b7f4e487b7100000000000000000000000000000000000000000000000000000000600052602260045260246000fd5b6000601f19601f8301169050919050565b611fb181611e1f565b8114611fbc57600080fd5b50565b611fc881611e3d565b8114611fd357600080fd5b50565b611fdf81611e47565b8114611fea57600080fd5b50565b611ff681611e93565b811461200157600080fd5b5056fea2646970667358221220abcab45c74e753ebe14b326fef4b8431bb7449ce8df1d81c53b2af449fed3a6f64736f6c63430008000033",
  "immutableReferences": {},
  "source": "pragma solidity ^0.8.0;\nimport \"@openzeppelin/contracts/token/ERC20/ERC20.sol\";\nimport \"@openzeppelin/contracts/access/AccessControl.sol\";\n\n/// @dev this contract is to create an ERC20 token to be minted and burned by Hodler\ncontract HodlToken is ERC20, AccessControl {\n  // bytes32 public constant MINTER_ROLE = keccak256(\"MINTER_ROLE\");\n  // bytes32 public constant BURNER_ROLE = keccak256(\"BURNER_ROLE\");\n\n  /// @dev Set msg.sender as Admin, he'll be replaced by the smart contract afterwards\n  constructor() ERC20(\"Hodl\", \"HODL\") public {\n      _setupRole(DEFAULT_ADMIN_ROLE, msg.sender);\n    }\n\n  /// @dev Only accessible from Lock Function\n  function mint(address to, uint256 amount) internal {\n      // require(hasRole(MINTER_ROLE, msg.sender), \"Caller is not a minter\");\n      _mint(to, amount);\n  }\n\n  /// @dev Only accessible from Unlock Function\n  function burn(address from, uint256 amount) internal {\n      // require(hasRole(BURNER_ROLE, msg.sender), \"Caller is not a burner\");\n      _burn(from, amount);\n  }\n}\n",
  "sourcePath": "/Users/guillaumedesa/Documents/eth/hodler-react/contracts/HodlToken.sol",
  "compiler": {
    "name": "solc",
    "version": "0.8.0+commit.c7dfd78e.Emscripten.clang"
  },
  "schemaVersion": "3.3.4",
  "updatedAt": "2021-06-14T14:00:40.518Z",
  "networkType": "ethereum",
  "devdoc": {
    "details": "this contract is to create an ERC20 token to be minted and burned by Hodler",
    "kind": "dev",
    "methods": {
      "allowance(address,address)": {
        "details": "See {IERC20-allowance}."
      },
      "approve(address,uint256)": {
        "details": "See {IERC20-approve}. Requirements: - `spender` cannot be the zero address."
      },
      "balanceOf(address)": {
        "details": "See {IERC20-balanceOf}."
      },
      "constructor": {
        "details": "Set msg.sender as Admin, he'll be replaced by the smart contract afterwards"
      },
      "decimals()": {
        "details": "Returns the number of decimals used to get its user representation. For example, if `decimals` equals `2`, a balance of `505` tokens should be displayed to a user as `5,05` (`505 / 10 ** 2`). Tokens usually opt for a value of 18, imitating the relationship between Ether and Wei. This is the value {ERC20} uses, unless this function is overridden; NOTE: This information is only used for _display_ purposes: it in no way affects any of the arithmetic of the contract, including {IERC20-balanceOf} and {IERC20-transfer}."
      },
      "decreaseAllowance(address,uint256)": {
        "details": "Atomically decreases the allowance granted to `spender` by the caller. This is an alternative to {approve} that can be used as a mitigation for problems described in {IERC20-approve}. Emits an {Approval} event indicating the updated allowance. Requirements: - `spender` cannot be the zero address. - `spender` must have allowance for the caller of at least `subtractedValue`."
      },
      "getRoleAdmin(bytes32)": {
        "details": "Returns the admin role that controls `role`. See {grantRole} and {revokeRole}. To change a role's admin, use {_setRoleAdmin}."
      },
      "grantRole(bytes32,address)": {
        "details": "Grants `role` to `account`. If `account` had not been already granted `role`, emits a {RoleGranted} event. Requirements: - the caller must have ``role``'s admin role."
      },
      "hasRole(bytes32,address)": {
        "details": "Returns `true` if `account` has been granted `role`."
      },
      "increaseAllowance(address,uint256)": {
        "details": "Atomically increases the allowance granted to `spender` by the caller. This is an alternative to {approve} that can be used as a mitigation for problems described in {IERC20-approve}. Emits an {Approval} event indicating the updated allowance. Requirements: - `spender` cannot be the zero address."
      },
      "name()": {
        "details": "Returns the name of the token."
      },
      "renounceRole(bytes32,address)": {
        "details": "Revokes `role` from the calling account. Roles are often managed via {grantRole} and {revokeRole}: this function's purpose is to provide a mechanism for accounts to lose their privileges if they are compromised (such as when a trusted device is misplaced). If the calling account had been granted `role`, emits a {RoleRevoked} event. Requirements: - the caller must be `account`."
      },
      "revokeRole(bytes32,address)": {
        "details": "Revokes `role` from `account`. If `account` had been granted `role`, emits a {RoleRevoked} event. Requirements: - the caller must have ``role``'s admin role."
      },
      "supportsInterface(bytes4)": {
        "details": "See {IERC165-supportsInterface}."
      },
      "symbol()": {
        "details": "Returns the symbol of the token, usually a shorter version of the name."
      },
      "totalSupply()": {
        "details": "See {IERC20-totalSupply}."
      },
      "transfer(address,uint256)": {
        "details": "See {IERC20-transfer}. Requirements: - `recipient` cannot be the zero address. - the caller must have a balance of at least `amount`."
      },
      "transferFrom(address,address,uint256)": {
        "details": "See {IERC20-transferFrom}. Emits an {Approval} event indicating the updated allowance. This is not required by the EIP. See the note at the beginning of {ERC20}. Requirements: - `sender` and `recipient` cannot be the zero address. - `sender` must have a balance of at least `amount`. - the caller must have allowance for ``sender``'s tokens of at least `amount`."
      }
    },
    "version": 1
  },
  "userdoc": {
    "kind": "user",
    "methods": {},
    "version": 1
  }
}